:020000040800F2
:10000000000002209D3E0008592A00085B2A0008D3
:100010005D2A00085F2A0008612A0008000000002D
:10002000000000000000000000000000DD8000086B
:10003000632A000800000000FD80000859810008C4
:10004000ED3E0008ED3E0008ED3E0008ED3E0008E4
:10005000ED3E0008652A0008672A0008ED3E00080A
:10006000712A00087B2A0008852A0008ED3E000856
:10007000ED3E0008912A0008ED3E0008ED3E000824
:10008000ED3E0008ED3E0008ED3E000800000000D7
:10009000000000000000000000000000A12A00088D
:1000A000ED3E0008ED3E0008AD2A0008ED3E0008D8
:1000B000ED3E0008BD2A0008CD2A0008ED3E0008EC
:1000C000ED3E0008DD2A0008ED3E0008ED3E000888
:1000D000ED3E0008ED3E0008ED3E00080000000087
:1000E000ED3E0008ED3E0008ED3E00080000000077
:1000F000000000000000000000000000ED3E0008CD
:1001000000000000ED3E0008ED3E0008ED3E000856
:1001100000000000000000000000000000000000DF
:10012000ED3E0008ED2A0008ED3E0008ED3E000817
:10013000ED3E00080000000000000000000000008C
:10014000000000000000000000000000ED3E00087C
:10015000ED3E0008ED3E0008ED3E0008ED3E0008D3
:10016000ED3E0008ED3E0008000000000000000029
:10017000000000000000000000000000000000007F
:1001800000000000ED3E000800000000000000003C
:08019000FD2A0008ED3E000805
:1001A00010B5054C237833B9044B13B10448AFF3B1
:1001B00000800123237010BDC40200200000000055
:1001C000BC66030808B5034B1BB103490348AFF3F2
:1001D000008008BD00000000C8020020BC660308C3
:1001E00010F8012B11F8013B012A28BF9A42F7D0E1
:1001F000D01A70470000000000000000000000005E
:1002000001F0FF01102A2BDB10F0070F08D010F8C7
:10021000013B013A8B422DD010F0070F42B3F6D1CB
:10022000F0B441EA012141EA014122F007047FF0E4
:1002300000070023F0E80256083C85EA010586EA3B
:10024000010685FA47F5A3FA87F586FA47F6A5FA77
:1002500087F68EB9EED1F0BC01F0FF0102F0070283
:1002600032B110F8013B013A83EA010313B1F8D12E
:100270000020704701387047002D06BF354603380F
:10028000073815F0010F07D1013015F4807F02BF48
:10029000013015F4C03F0130F0BC0138704700BF99
:1002A000034613F8012B002AFBD1181A01387047B6
:1002B00081F0004102E000BF83F0004330B54FEA17
:1002C00041044FEA430594EA050F08BF90EA020F84
:1002D0001FBF54EA000C55EA020C7FEA645C7FEA17
:1002E000655C00F0E2804FEA5454D4EB5555B8BF3A
:1002F0006D420CDD2C4480EA020281EA030382EAAB
:10030000000083EA010180EA020281EA0303362D3C
:1003100088BF30BD11F0004F4FEA01314FF4801C0F
:100320004CEA113102D0404261EB410113F0004F21
:100330004FEA03334CEA133302D0524263EB4303D8
:1003400094EA050F00F0A780A4F10104D5F1200E76
:100350000DDB02FA0EFC22FA05F2801841F10001D1
:1003600003FA0EF2801843FA05F359410EE0A5F1A5
:1003700020050EF1200E012A03FA0EFC28BF4CF0D6
:10038000020C43FA05F3C01851EBE37101F000458C
:1003900007D54FF0000EDCF1000C7EEB00006EEB99
:1003A0000101B1F5801F1BD3B1F5001F0CD3490823
:1003B0005FEA30004FEA3C0C04F101044FEA44527A
:1003C00012F5800F80F09A80BCF1004F08BF5FEA01
:1003D000500C50F1000041EB045141EA050130BDE1
:1003E0005FEA4C0C404141EB0101013C28BFB1F5F3
:1003F000801FE9D291F0000F04BF01460020B1FA3E
:1004000081F308BF2033A3F10B03B3F120020CDA10
:100410000C3208DD02F1140CC2F10C0201FA0CF0EE
:1004200021FA02F10CE002F11402D8BFC2F1200C53
:1004300001FA02F120FA0CFCDCBF41EA0C01904009
:10044000E41AA2BF01EB0451294330BD6FEA040452
:100450001F3C1CDA0C340EDC04F11404C4F120023D
:1004600020FA04F001FA02F340EA030021FA04F34F
:1004700045EA030130BDC4F10C04C4F1200220FAA6
:1004800002F001FA04F340EA0300294630BD21FAE4
:1004900004F0294630BD94F0000F83F4801306BFAA
:1004A00081F480110134013D4EE77FEA645C18BF9E
:1004B0007FEA655C29D094EA050F08BF90EA020F35
:1004C00005D054EA000C04BF1946104630BD91EA2D
:1004D000030F1EBF0021002030BD5FEA545C05D130
:1004E0004000494128BF41F0004130BD14F580046F
:1004F0003CBF01F5801130BD01F0004545F0FE41E3
:1005000041F470014FF0000030BD7FEA645C1ABF17
:10051000194610467FEA655C1CBF0B46024650EA4E
:10052000013406BF52EA033591EA030F41F400217A
:1005300030BD00BF90F0000F04BF0021704730B500
:100540004FF4806404F132044FF000054FF00001D5
:1005500050E700BF90F0000F04BF0021704730B596
:100560004FF4806404F1320410F0004548BF40426B
:100570004FF000013EE700BF42004FEAE2014FEAC0
:1005800031014FEA02701FBF12F07F4393F07F4F9B
:1005900081F06051704732F07F4208BF704793F09E
:1005A0007F4F04BF41F40021704730B54FF46074B1
:1005B00001F0004521F000411CE700BF50EA0102B4
:1005C00008BF704730B54FF000050AE050EA01025D
:1005D00008BF704730B511F0004502D5404261EBCD
:1005E00041014FF4806404F132045FEA915C3FF40E
:1005F000D8AE4FF003025FEADC0C18BF03325FEAAB
:10060000DC0C18BF033202EBDC02C2F1200300FA5B
:1006100003FC20FA02F001FA03FE40EA0E0021FA80
:1006200002F11444BDE600BF70B54FF0FF0C4CF46E
:10063000E06C1CEA11541DBF1CEA135594EA0C0F20
:1006400095EA0C0F00F0DEF82C4481EA030621EA5B
:100650004C5123EA4C5350EA013518BF52EA033596
:1006600041F4801143F4801338D0A0FB02CE4FF048
:100670000005E1FB02E506F00042E0FB03E54FF078
:100680000006E1FB03569CF0000F18BF4EF0010E70
:10069000A4F1FF04B6F5007F64F5407404D25FEA6C
:1006A0004E0E6D4146EB060642EAC62141EA55511F
:1006B0004FEAC52040EA5E504FEACE2EB4F1FD0C61
:1006C00088BFBCF5E06F1ED8BEF1004F08BF5FEADF
:1006D000500E50F1000041EB045170BD06F0004691
:1006E00046EA010140EA020081EA0301B4EB5C043E
:1006F000C2BFD4EB0C0541EA045170BD41F4801136
:100700004FF0000E013C00F3AB8014F1360FDEBF5A
:10071000002001F0004170BDC4F10004203C35DA36
:100720000C341BDC04F11404C4F1200500FA05F3B9
:1007300020FA04F001FA05F240EA020001F000425A
:1007400021F0004110EBD37021FA04F642EB0601D0
:100750005EEA430E08BF20EAD37070BDC4F10C04FA
:10076000C4F1200500FA04F320FA05F001FA04F2BE
:1007700040EA020001F0004110EBD37041F10001AA
:100780005EEA430E08BF20EAD37070BDC4F12005B5
:1007900000FA05F24EEA020E20FA04F301FA05F21D
:1007A00043EA020321FA04F001F0004121FA04F2C5
:1007B00020EA020000EBD3705EEA430E08BF20EA95
:1007C000D37070BD94F0000F0FD101F000464000CF
:1007D00041EB010111F4801F08BF013CF7D041EA51
:1007E000060195F0000F18BF704703F00046520055
:1007F00043EB030313F4801F08BF013DF7D043EA26
:100800000603704794EA0C0F0CEA135518BF95EADB
:100810000C0F0CD050EA410618BF52EA4306D1D162
:1008200081EA030101F000414FF0000070BD50EA81
:10083000410606BF1046194652EA430619D094EA0B
:100840000C0F02D150EA013613D195EA0C0F05D1F5
:1008500052EA03361CBF104619460AD181EA030149
:1008600001F0004141F0FE4141F470014FF0000001
:1008700070BD41F0FE4141F4780170BD70B54FF09C
:10088000FF0C4CF4E06C1CEA11541DBF1CEA13551C
:1008900094EA0C0F95EA0C0F00F0A7F8A4EB0504FE
:1008A00081EA030E52EA03354FEA013100F08880F5
:1008B0004FEA03334FF0805545EA131343EA1263BE
:1008C0004FEA022245EA111545EA10654FEA002673
:1008D0000EF000419D4208BF964244F1FD0404F52C
:1008E000407402D25B084FEA3202B61A65EB030588
:1008F0005B084FEA32024FF480104FF4002CB6EB45
:10090000020E75EB030E22BFB61A754640EA0C00C4
:100910005B084FEA3202B6EB020E75EB030E22BF04
:10092000B61A754640EA5C005B084FEA3202B6EB45
:10093000020E75EB030E22BFB61A754640EA9C0004
:100940005B084FEA3202B6EB020E75EB030E22BFD4
:10095000B61A754640EADC0055EA060E18D04FEA92
:10096000051545EA16754FEA06164FEAC30343EA32
:1009700052734FEAC2025FEA1C1CC0D111F4801FFF
:100980000BD141EA00014FF000004FF0004CB6E7F8
:1009900011F4801F04BF01430020B4F1FD0C88BF97
:1009A000BCF5E06F3FF6AFAEB5EB030C04BFB6EBA2
:1009B000020C5FEA500C50F1000041EB045170BD95
:1009C0000EF0004E4EEA113114EB5C04C2BFD4EBC2
:1009D0000C0541EA045170BD41F480114FF0000E46
:1009E000013C90E645EA060E8DE60CEA135594EAC2
:1009F0000C0F08BF95EA0C0F3FF43BAF94EA0C0FC5
:100A00000AD150EA01347FF434AF95EA0C0F7FF439
:100A100025AF104619462CE795EA0C0F06D152EA8D
:100A200003353FF4FDAE1046194622E750EA410671
:100A300018BF52EA43067FF4C5AE50EA41047FF482
:100A40000DAF52EA43057FF4EBAE12E74FF0FF3CE7
:100A500006E000BF4FF0010C02E000BF4FF0010CB8
:100A60004DF804CD4FEA410C7FEA6C5C4FEA430C31
:100A700018BF7FEA6C5C1BD001B050EA410C0CBF80
:100A800052EA430C91EA030F02BF90EA020F0020E2
:100A9000704710F1000F91EA030F58BF994208BF49
:100AA00090422CBFD8176FEAE37040F00100704706
:100AB0004FEA410C7FEA6C5C02D150EA013C07D15D
:100AC0004FEA430C7FEA6C5CD6D152EA033CD3D0A8
:100AD0005DF8040B704700BF8446104662468C46A2
:100AE0001946634600E000BF01B5FFF7B7FF0028D5
:100AF00048BF10F1000F01BD4DF808EDFFF7F4FFFE
:100B00000CBF012000205DF808FB00BF4DF808ED88
:100B1000FFF7EAFF34BF012000205DF808FB00BFAB
:100B20004DF808EDFFF7E0FF94BF012000205DF8CD
:100B300008FB00BF4DF808EDFFF7CEFF94BF012082
:100B400000205DF808FB00BF4DF808EDFFF7C4FF7B
:100B500034BF012000205DF808FB00BF4FEA410CC4
:100B60007FEA6C5C02D150EA013C0AD14FEA430CA7
:100B70007FEA6C5C02D152EA033C02D14FF00000E4
:100B800070474FF0010070474FEA410212F5001222
:100B900015D211D56FF47873B3EB625212D94FEAC4
:100BA000C12343F0004343EA505311F0004F23FAAE
:100BB00002F018BF404270474FF00000704750EA03
:100BC000013005D111F0004008BF6FF000407047C0
:100BD0004FF00000704700BF4A0011D212F500121A
:100BE00011D20DD56FF47873B3EB62520ED44FEA85
:100BF000C12343F0004343EA505323FA02F0704705
:100C00004FF00000704750EA013002D14FF0FF3042
:100C100070474FF0000070474FEA4102B2F1E043E5
:100C200024BFB3F5001CDCF1FE5C0DD901F0004CD3
:100C30004FEAC0024CEA5070B2F1004F40EB830023
:100C400008BF20F00100704711F0804F21D113F14F
:100C50003872BCBF01F00040704741F480114FEA88
:100C60005252C2F11802C2F1200C10FA0CF320FA11
:100C700002F018BF40F001004FEAC1234FEAD3232E
:100C800003FA0CFC40EA0C0023FA02F34FEA430398
:100C9000CCE77FEA625307D150EA01331EBF4FF021
:100CA000FE4040F44000704701F0004040F0FE403C
:100CB00040F40000704700BF53B94AB9002908BF8B
:100CC00000281CBF4FF0FF314FF0FF3000F0BEB9DD
:100CD000ADF1080C6DE904CE00F03CF8DDF804E05D
:100CE000DDE9022304B0704738B500220023044632
:100CF0000D46FFF70BFF28B920462946BDE83840CE
:100D000000F00AB8204605F1004100F005F8404225
:100D100061EB410138BD00BFD0B50C4B0022064647
:100D20000F46FFF781FCFFF757FF0446FFF702FC71
:100D3000074B0022FFF778FC02460B463046394647
:100D4000FFF7BAFAFFF748FF2146D0BD0000F03D9B
:100D50000000F0412DE9F047089D0F4604468C46FF
:100D6000002B48D18A42164661D9B2FA82F34BB1C0
:100D7000C3F1200201FA03FC20FA02F29E4042EA8B
:100D80000C0C9C404FEA164EB7B2BCFBFEF1220C95
:100D90000EFB11CC42EA0C4201FB07F0904209D94C
:100DA000B21801F1FF3C80F0EE80904240F2EB80FF
:100DB00002393244121AA4B2B2FBFEF00EFB10222A
:100DC00044EA024400FB07F7A74209D9341900F1AD
:100DD000FF3280F0DA80A74240F2D78034440238F4
:100DE00040EA0140E41B00211DB1DC400023C5E9BD
:100DF0000043BDE8F0878B4206D90DB1C5E900017B
:100E000000210846BDE8F087B3FA83F1002948D1F4
:100E1000BB4202D3824200F20781841A67EB0302CD
:100E200001209446002DE4D0C5E9004CE1E7002AFA
:100E300000F09280B2FA82F3002B40F0A8808A1A68
:100E40004FEA164E1FFA86FC0121200CB2FBFEF77A
:100E50000EFB172240EA02420CFB07F0904207D932
:100E6000B21807F1FF3802D2904200F2E280474602
:100E7000121AA4B2B2FBFEF00EFB102244EA0244A6
:100E80000CFB00FCA44507D9341900F1FF3202D253
:100E9000A44500F2CB801046A4EB0C0440EA0740C6
:100EA000A2E7C1F120068B4022FA06FC4CEA030CB3
:100EB00007FA01F420FA06F3F7404FEA1C492343EE
:100EC00000FA01F81FFA8CFEB7FBF9F01C0C09FBC5
:100ED000107744EA074400FB0EF7A74202FA01F23A
:100EE0000AD91CEB040400F1FF3A80F09B80A74272
:100EF00040F2988002386444E41B9FB2B4FBF9F3DB
:100F000009FB134447EA044403FB0EFEA64509D936
:100F10001CEB040403F1FF3780F08280A6457FD9E3
:100F2000023B644443EA0040A4EB0E04A0FB02E74A
:100F3000BC427346B94663D360D05DB1B8EB0302DF
:100F400064EB090404FA06F622FA01F31E43CC40CE
:100F5000C5E9006400214CE76208480842EAC17113
:100F60000B0C43EA00438AB242EA0342B3FBF6F1B8
:100F7000E407B4463746B6461F23B0FBF6F0D21B53
:100F800041EA004161E7614614E7104628E7C3F1F2
:100F9000200120FA01F29E4027FA01F19F403A43D6
:100FA0004FEA164E1FFA86FCB1FBFEF70EFB171038
:100FB000110C41EA004107FB0CF8884504FA03F4E0
:100FC0003AD9711807F1FF3001D288451FD8A1EB3B
:100FD0000801B1FBFEF808FB0CF70EFB181192B2EA
:100FE00042EA0142BA422FD2B21808F1FF31C6D20A
:100FF000BA42C4D2A8F102013244C0E7F0459CD203
:10100000BEEB020367EB0C070138B94695E7A6EB88
:1010100008084144B81EB1FBFEF808FB0CF7DCE7FA
:101020003B467FE7504667E70846FBE63444023814
:1010300032E7023F32441BE7A1EB08013846B1FB1F
:10104000FEF808FB0CF7C8E7414698E7704700BF79
:1010500008B501F055FA002001F0C4FA08BD08B542
:1010600000F084F800F0A4F808BD000070B5060197
:10107000124D2B4640F20442002106F1640000F0BC
:10108000C5F80A2002F0ECFF0D4C23464FF48062B5
:10109000042106F1680000F0B9F86A1E611E0948D3
:1010A00005F2FF3C12F8014F11F8013F43EA042317
:1010B00020F8023F6245F5D170BD00BF000F00204F
:1010C000000B0020E202002070B51E4600016430D3
:1010D0000D1E0DDD0C490D4C01EB450531F902CB20
:1010E000CCF3072E04F801EB84F803C4A942F5D130
:1010F000064B83F8022483F8036440F604020021BF
:1011000000F01EF970BD00BF101B00200813002066
:1011100070B582B005460E46114801F058FF114CDB
:1011200023688DF807300DF10703012200210846DE
:1011300000F006F933462A464FF480612068FFF735
:10114000C3FF2368084A1360092BD4BF013300236F
:10115000044A1360024802F0DBF902B070BD00BF20
:1011600044C40020F40A0020E80A002010B582B030
:1011700066238DF8043099238DF805300A4C00223F
:101180000121204603F0D2FA6423022201A9074874
:1011900005F053FE01221146204603F0C7FA6420F1
:1011A00002F05EFF02B010BD0004024090BD0020BE
:1011B00030B583B09F238DF80730124C00220121F7
:1011C000204603F0B3FA104D642301220DF107010C
:1011D000284605F032FE6423032201A9284606F0C2
:1011E0002FF801221146204603F0A0FA9DF80420B2
:1011F0009DF805301B0243EA02439DF806001843A0
:1012000003B030BD0004024090BD0020F0B583B0B3
:1012100015461C460B238DF80030C0F30F238DF8C4
:1012200001308DF802008DF8031000228DF80420A3
:101230000C4E0121304603F079FA0B4F642305224E
:101240006946384605F0F9FD6423AAB221463846BE
:1012500005F0F6FF01221146304603F067FA03B0AD
:10126000F0BD00BF0004024090BD002010B582B068
:1012700006238DF807300A4C00220121204603F096
:1012800055FA642301220DF10701064805F0D5FD4A
:1012900001221146204603F049FA02B010BD00BFFA
:1012A0000004024090BD002010B582B004238DF8E8
:1012B00007300A4C00220121204603F037FA64234C
:1012C00001220DF10701064805F0B7FD0122114684
:1012D000204603F02BFA02B010BD00BF000402400C
:1012E00090BD002010B582B00403FFF7BFFF20239C
:1012F0008DF80030230C8DF80130240A8DF802405F
:1013000000228DF803200C4C0121204603F00EFA38
:10131000642304226946094805F08FFD0122114625
:10132000204603F003FA4FF4E17002F099FEFFF754
:10133000BBFF02B010BD00BF0004024090BD002002
:101340002DE9F04FC7B083460C4617469A46531E08
:101350000B444FEA1328C0F30F1500EB1322C5F11D
:10136000010303EB12139BB243B12B449EB22846F8
:101370000135ADB2FFF7B6FFB542F8D10BF101036D
:10138000434401934FF00008DFF8D4901DE00022A1
:101390000121484603F0CAF96423324603A92F48C5
:1013A00005F04BFD01221146484603F0BFF90BF151
:1013B000010BA4B23F1BA044052002F051FEFFF731
:1013C00073FF0024019B5B4544D004EB0B26E3191B
:1013D000FF2B8CBFC4F580743C46A5B2FFF746FFD7
:1013E00002228DF80C20320C8DF80D20320A8DF877
:1013F0000E208DF80F602E1DB6B2002DC7D008F15B
:10140000FF3353440DF10F02681E0AEB080111FA75
:1014100080F013F8011F02F8011F8342F9D1C82E92
:10142000B5D900220121484603F080F964231A4609
:1014300003A90A4805F001FDA5F16002642392B2F8
:101440001CA9064805F0F9FC01221146484603F0A4
:101450006DF9ACE747B0BDE8F08F00BF90BD00204C
:1014600000040240044B054A12681A80044A1268BC
:101470005A80044A5A607047902300200C000020D4
:101480001000002010230020094B1968094B1B682D
:1014900003FB01F151B1831E074A00EB4100023802
:1014A00033F9021F22F8021B8342F9D1704700BFB3
:1014B000100000200C000020102300202DE9F04F28
:1014C00083B0284B1B6803F1FF3E274B1A68274B5C
:1014D0001B68002B43DD4FEA0E58013A15054FF00B
:1014E000000A234EDFF87C9001954FEA0A5202F57C
:1014F00000221D49096801FB02F292FBF3F2A2F5FA
:10150000002222EAE272019B9342A8BF13469B4647
:101510003368002B1DDD0024164D0AFB034721050F
:1015200001F50021D9F8002002FB01F191FBF3F154
:10153000A1F5002121EAE1715A464145A8BF414683
:101540000D4802F0D4FC25F8170001343368A3429B
:10155000E3DC0AF1010A054B1B685345C5DC03B007
:10156000BDE8F08F100000200C00002004000020D7
:1015700008000020101B00209023002030B5002818
:1015800009DBB0F5967F28DA154B83FB0023C017E3
:10159000C0EBA30000E00020124C00EB4000231839
:1015A0005A7814F800C04FEADC0C9878C0080E4C4A
:1015B00004EB410E550914F8113065F302036CF386
:1015C000C70304F811309EF8013060F30403920859
:1015D00062F347138EF8013030BD1D20DCE700BFF9
:1015E000676666666C6A03089823002000B583B0BE
:1015F0008C4608884988BCF8063001335B1ABCF871
:1016000004C00CF1010CACEB000C00929BB21FFA71
:101610008CF200F0F2FF03B000BD08B530F0A6FC7C
:1016200026F016FA08BD00002E4B5B69002B58D03F
:101630002DE9F04F93B0002914BF0425082500FBC5
:1016400005F505FB05F94FF0910898FBF5F8B9F1A0
:10165000000F10DD961E0024234F36F9020F87FB82
:101660000023C017C0EBA300214600B2FFF786FF9E
:101670000134A145F1D104A810F008FD0023ADF814
:101680001030ADF830309D4228DD0023DFF85CB02B
:101690000FFA88F6DFF84CA003FB05F903FB08F707
:1016A0003FB20024039309EB04033BF81330ADF879
:1016B0001430691E091B08FB01F104AB019300966D
:1016C00033463A4609B2DAF8140029F004FF01342F
:1016D000A542E8DC039B01339D42DDDC13B0BDE88D
:1016E000F08F7047FC9301206766666698230020A0
:1016F00030B583B007F0ACFF174D4FF448630022BC
:101700001649284623F052F9154C204623F026F9B5
:10171000A023238080236380124B6361E560204611
:1017200023F052F930F03CFC0F4B586930B10423E0
:101730000093692391220D4929F0AEFE0A4B986966
:1017400010B10B492CF00CFA074BD86910B10949BC
:101750002CF006FA03B030BDDCBB0020DCA2002078
:101760008CA20020ED150008FC930120982B00208E
:1017700044000020380000202DE9F041044688464E
:1017800017461E4626F064F930F012FC104D2D78F5
:1017900065B10F4B00221A700E4B1B785BB9012C00
:1017A0000FD00D4A39462046FFF73EFF052002F0D4
:1017B00057FCBDE8F081094A31464046FFF734FF47
:1017C000F4E7074A39460120FFF72EFFEEE700BF96
:1017D000E2020020E0020020101B0020E4020020B2
:1017E000B8C2002010B50C46B0B1274B1868274A84
:1017F00012689042B4BF01300020234B1860244B84
:101800001A68244B1968FFF731FC0123224A137030
:10181000224A1370204610BD214801F0D8FB012C4C
:101820001DD0022C25D01F4B1F4A92E803001860E0
:101830009980090C997101241C4B1B6804FB03F36C
:101840001B4A13601B4B1B6804FB03F31A4A13600B
:101850001A4B01221A70124801F05AFEDAE7114BB6
:10186000174A92E8030018609980090C99710224C4
:10187000E2E70C4B134A92E8030018609980090CC8
:1018800099710424D8E700BFE80A0020F40A002078
:10189000F00A0020EC0A0020E0020020E202002012
:1018A00044C4002014000020D86A0308100000205F
:1018B000080000200C00002004000020E1020020AD
:1018C000C86A0308D06A030870B50C46B0B1274B4C
:1018D00018680028CEBF00F1FF30254B1868234B55
:1018E0001860244B1A68244B1968FFF7BFFB0123CB
:1018F000224A1370224A1370204670BD15460646D0
:10190000204801F064FB0CBB10211E4801F0BCFE16
:1019100004231D4A13601D4A13601D4A1D4B07CA4C
:1019200003C31A800124184B1B6805FB03F31A4AF2
:101930001360164B1B6805FB03F3184A1360184B22
:1019400001221A700F4801F0E3FDD5E740210D4850
:1019500001F09AFE08230C4A13600C4A1360114AE6
:101960000C4B07CA03C31A803446DCE7E80A0020A0
:10197000F40A0020F00A0020EC0A0020E002002017
:10198000E202002044C40020100000200C000020CF
:10199000E06A030820000020080000200400002066
:1019A000E1020020EC6A030810B5B9B90A2002F080
:1019B000C1FB172002F0BEFB2B4B00221A602B4A02
:1019C0002B4B07CA03C31A702A4A2B4B07CA03C3FF
:1019D0001A702A4801F0FBFA012035E003469446CC
:1019E000214A012111602649214C07C903C42280E4
:1019F0002449214C07C903C4228033BB224A234B0C
:101A000007CA03C31A80BCF1010F24D0BCF1020F36
:101A10001F4B0CBF1F4A204A92E8030018609980B0
:101A2000090C99711D4A1E4B07CA03C31A801D4B2E
:101A300001221A70114801F06BFD0A2002F06CFBC4
:101A4000172002F069FB002010BD174A0F4B07CA90
:101A500003C31A80D7E70E4B144A92E803001860BC
:101A60009980090C9971DDE7F80A0020F86A0308EB
:101A700044000020046B03083800002044C4002008
:101A8000106B03081C6B0308EC6A0308200000209D
:101A900014000020C86A0308D06A0308286B0308F2
:101AA0002C000020E1020020E06A0308D86A030845
:101AB00000487047346B030800487047440000201A
:101AC0000048704738000020004870472000002080
:101AD000004870471400002010B594B008AC3022C4
:101AE0000021204631F0CFFA00230393049305939D
:101AF0000693079301931E4A116C41F080511164C3
:101B0000126C02F080520192019A0293194A1168F4
:101B100041F440411160126802F440420292029A7C
:101B20000222089201210B9110210C910E920F9329
:101B300008231093642311931292042313932046D5
:101B400004F0DEFC80B90F230393022304930023E7
:101B500005934FF4805206920793032103A804F0E3
:101B60001FFF18B914B010BD72B6FEE772B6FEE7DB
:101B7000003802400070004008B510280DD818B396
:101B800001380F2820D8DFE800F0161F1F371F1F6D
:101B90001F231F1F1F1F1F1F1F2D402814D11A4B4B
:101BA0001B78A3B9194B1B68012B10D11849194890
:101BB00001F0A0FA0BE0062002F0BCFA172002F0B8
:101BC000B9FA154B00221A60144B01221A6008BDA5
:101BD000092002F0AFFA172002F0ACFA0E4B0322F4
:101BE0001A60F1E7172002F0A5FA0A2002F0A2FA23
:101BF000094B04221A60E7E7082002F09BFA064B23
:101C000002221A60E0E700BFA7BE0020FCBB002054
:101C1000F4BE002044C4002050000020F8BB002087
:101C200010B5224B1B68042B11D8DFE803F003101A
:101C3000241431001E4C21681E4B1868FFF7D2FD9A
:101C40002060062002F068FA172002F065FA174BB0
:101C500064221A6010BD184C154B1A682168154B88
:101C60001868FFF731FE2060092002F055FA1720AE
:101C700002F052FAEBE70F4C0D4B1A6821680E4B3D
:101C80001868FFF791FE2060082002F045FADEE7B1
:101C9000074B1968084B1868FFF73AFA0A2002F058
:101CA0003BFA172002F038FAD1E700BF50000020BD
:101CB00000000020E40A0020FC0A002008B54FF4D0
:101CC0000051104802F038FD0F4B1B68012B10D15A
:101CD0000E4B00221A700E4B01221A700D4B1B681E
:101CE0000D4A12680D49096807480068FFF744FD6E
:101CF00008BD0B48FFF7C8FBFFF7B4FBFFF7DEFB9F
:101D0000E6E700BF0008024000000020E0020020DB
:101D1000E2020020EC0A0020FC0A0020F00A002069
:101D2000B8C200202DE9804895B002F06DF9FFF7A8
:101D3000D3FE0DAF00240D940E940F9410941194C3
:101D40000394B84D2B6B43F004032B632B6B03F010
:101D500004030393039B04942B6B43F080032B63D6
:101D60002B6B03F080030493049B05942B6B43F0CF
:101D700001032B632B6B03F001030593059B069472
:101D80002B6B43F002032B632B6B03F002030693D0
:101D9000069BDFF8C08222464FF40051404602F015
:101DA000C5FCDFF8B492224640F28711484602F0A3
:101DB000BDFCDFF8A8A222464FF4B851504602F00D
:101DC000B5FC4FF400530D9301260E960F9410941A
:101DD0003946404602F0C2FB1D230D934FF4041315
:101DE0000E934FF00208CDF83C803946504602F081
:101DF000B5FB0D960E960F964FF0030BCDF840B045
:101E00003946484602F0AAFB4FF483730D930E96B1
:101E10000F9410943946484602F0A0FB4FF4A0639B
:101E20000D930E96CDF83C8010943946504602F042
:101E300095FB4FF400720D920E960F94CDF84080F2
:101E40003946504602F08AFB4FF480530D930E96AC
:101E5000CDF83C80CDF840B03946504602F07EFBCC
:101E600040230D934FF404130E930F9439464846C4
:101E700002F074FB80230D930E960F94CDF840B0C2
:101E80003946484602F06AFB42464146062002F0C7
:101E90000DF9062002F040F942464146082002F0C2
:101EA00005F9082002F038F942464146092002F0BF
:101EB000FDF8092002F030F9224641460A2002F0DE
:101EC000F5F80A2002F028F932464146172002F0C0
:101ED000EDF8172002F020F901942B6B43F48003F6
:101EE0002B632B6B03F480030193019B02942B6BF8
:101EF00043F400132B632B6B03F400130293029B38
:101F0000324621460D2002F0D1F80D2002F004F9EE
:101F100032463146392002F0C9F8392002F0FCF887
:101F20004148424B03604FF4827343608460C46055
:101F3000046144614FF4007282612023C361046232
:101F4000446284620A23C36204F018FF002840F050
:101F500004813748374B0360374B4360002383606D
:101F6000C3604FF48042026143618361C3610362D5
:101F700002F0C4FD002840F0F28000230D930E9380
:101F80000F93109309930A932C482D4A026041F253
:101F90008732426083606322C2600361836105F01F
:101FA00073FD002840F0DD804FF480530D930DA9A0
:101FB000224805F06AFE002840F0D58000230993EE
:101FC0000A9309A91D4805F015FF002840F0CD80AF
:101FD0001C481D4B03604FF4827343604FF4004371
:101FE00083600023C360036143614FF40072826128
:101FF000C3610362436283620A23C36204F0BEFECC
:10200000002840F0B48000230D930E930F9310939B
:1020100009930A930D480E4A0260312242608360A0
:102020001EE000BF0038024090BD0020003001409B
:1020300048BE002000580040801A060048BC00201E
:102040000004004038BD00200034014000BC0020E6
:102050000008004000080240000402400000024066
:1020600046F67712C2600361836105F00DFD00281A
:102070007FD14FF480530D930DA9464805F005FE1E
:10208000002878D1002309930A9309A9414805F053
:10209000B1FE002871D1002309930A930B930C938E
:1020A000079308930D930E930F931093119312932C
:1020B000139339484FF080420260436083604FF0D1
:1020C000FF32C2600361836105F0DEFC002856D157
:1020D0004FF48053099309A92F4805F0D6FD002835
:1020E0004FD12D4805F0FCFC00284CD1002307936C
:1020F000089307A9284805F07DFE002845D16023F4
:102100000D9300220E920F9211920DA9224805F014
:1021100041FD00283BD1204800F028FCFEF798FF45
:10212000FFF7E6FAFEF79BFF1C4B18601C4B186884
:1021300000F050FD1B4B18601B4801F0E9F902202C
:10214000FFF76BFA194C0025FFF7B8FD2368012B48
:10215000FAD1FFF765FD2560F6E772B6FEE772B6C5
:10216000FEE772B6FEE772B6FEE772B6FEE772B63B
:10217000FEE772B6FEE772B6FEE772B6FEE772B62B
:10218000FEE772B6FEE772B6FEE772B6FEE772B61B
:10219000FEE700BF00BC002090BC00200C1B00200C
:1021A000FC0A0020FCBB002044C40020F8BB002037
:1021B00008B50368054A934204D0A2F580629342B1
:1021C00000D008BD024822F0DFFCFAE700340140ED
:1021D0008CA2002008B50268044B9A4200D008BDCA
:1021E000012022F019FD01F029FFF8E70048014025
:1021F00072B6FEE7F0B585B0044615460B0A8DF8B9
:102200000C308DF80D100A4E64270097022303AAA4
:102210000188304602F034FD0097012302AA21888C
:10222000304602F031FE9DF808302B7005B0F0BD4D
:1022300048BE002000B585B00B0A8DF80C308DF833
:102240000D108DF80E20018864230093032303AA48
:10225000024802F015FD05B000BD00BF48BE0020D9
:1022600000B585B08C4601884FF6FF7002909BB296
:102270000193009210236246024803F0C5F805B0AE
:1022800000BD00BF48BE0020F0B585B0044615462D
:102290001E460B0A8DF80C308DF80D1002880D4B80
:1022A0001A800D4B1D600D4B1E600D4F6423009373
:1022B000022303AA0188384602F0E2FC4FF47A7345
:1022C0000093B3B22A462188384602F0DDFD002093
:1022D00005B0F0BDA4BE0020A0BE00209CBE002022
:1022E00048BE0020F0B585B0044615461E460B0AD0
:1022F0008DF80C308DF80D1002880D4B1A800D4BA7
:102300001D600D4B1E600D4F64230093022303AA32
:102310000188384602F0B4FCB3B22A462188384618
:1023200002F0B0FF064B01221A70002005B0F0BD8C
:10233000A4BE0020A0BE00209CBE002048BE0020FD
:10234000A7BE002008B5642001F08AFE642001F0D9
:1023500087FE002008BD99B102464B1E23F00303FF
:1023600004301844117853781B0443EA0163D17890
:102370000B43917843EA012342F8043B8242F1D1B6
:10238000704708B5084601F06BFE002008BD00004C
:1023900008B500220221024802F0C8F908BD00BFBA
:1023A0000004024008B501220221024802F0BEF9F1
:1023B00008BD00BF0004024010B5074C00220421F4
:1023C000204602F0B3F9052001F04AFE0122042163
:1023D000204602F0ABF910BD0004024000B583B006
:1023E0008DF8070000224FF40071064802F09EF9B4
:1023F0004FF0FF3301220DF10701034804F01DFDEA
:1024000003B000BD0000024038BD002038B50446CE
:102410000D4601224FF40071054802F087F94FF094
:10242000FF33AAB22146034804F007FD38BD00BFC0
:102430000000024038BD002038B504460D46012298
:102440004FF40071044802F071F9AAB22146034822
:1024500004F0BEFF38BD00BF0000024038BD0020C0
:10246000F8B5064616F8013B5C1EE4B29BB9F8BD10
:1024700039462846FFF7CAFF3D4415E02E4616F8B8
:10248000010BFF2808BF4FF4FA7001F0E9FD013C91
:10249000E4B2FF2CEBD0354615F8020BFFF79EFF98
:1024A000767816F07F07E3D116F0800FE6D12E463E
:1024B000EDE7F0B583B007460D4616461C462A20C8
:1024C000FFF78CFF00238DF804308DF805708DF830
:1024D00006308DF8076001AE04213046FFF796FF05
:1024E0002B20FFF77BFF8DF805508DF80740042166
:1024F0003046FFF78BFF2C20FFF770FF03B0F0BDD5
:1025000008B5FFF745FFFFF757FF0648FFF7A8FF9D
:102510000548FFF7A5FF0548FFF7A2FFFFF742FFB9
:1025200008BD00BFF4700308E4700308B870030826
:102530002DE9F04782B0BDF828609F284AD80446AC
:102540000D46914698467F2944D88318A02BC4BFD6
:10255000C0F1A0091FFA89F901EB0803802BC4BF61
:10256000C1F180081FFA88F8FFF712FFE0B2E9B264
:102570004B1E4344421E4A44DBB2D2B2FFF799FFDE
:10258000330A8DF804308DF8056001224FF4007194
:10259000124802F0CBF8B8F1000F19D0CA4601AFCB
:1025A0000F4E11E0544602252A463946304604F0C3
:1025B0000FFF013CA4B2002CF6D108F1FF381FFA3E
:1025C00088F8B8F1000F03D0B9F1000FEAD1F4E7B1
:1025D000FFF7E8FE02B0BDE8F08700BF0000024050
:1025E00038BD002000B583B000908023A0220021D8
:1025F0000846FFF79DFF03B000BD9F2820D8F8B51F
:1026000004460D4617461E467F2905D88318A02B81
:1026100002DC8B19802B00DDF8BDFFF7B9FEE0B2BC
:10262000E9B2731E0B447A1E0244DBB2D2B2FFF74A
:1026300040FF06FB07F149000698FFF7FDFEEBE7B8
:102640007047000010B582B000240094134B5A6C00
:1026500042F480425A645A6C02F480420092009A1A
:1026600001941A6C42F080521A641B6C03F0805380
:102670000193019B052001F007FD012203216FF06A
:10268000010001F013FD22462146052001F00EFD58
:10269000052001F041FD02B010BD00BF003802402E
:1026A0002DE9F04F89B0002303930493059306931B
:1026B00007930268304B9A4202D009B0BDE8F08F10
:1026C0000446002501952D4E336B43F0020333631E
:1026D000336B03F002030193019B4FF48067039770
:1026E0004FF0120BCDF810B04FF0030ACDF818A040
:1026F000042307930DF10C09DFF88C80494640460E
:1027000001F02CFF08230393CDF810B001230593AB
:10271000CDF818A0092307934946404601F01EFF53
:102720000295336C43F480033364336C03F4800309
:102730000293029B1248134B03604FF060634360A7
:102740008560C560076145618561C5614FF40033EF
:102750000362456201F01EFD58B9094BA3639C63F7
:1027600000221146212001F0A1FC212001F0D4FC1F
:10277000A3E7FFF73DFDF0E70058004000380240B6
:10278000E8BD002040600240000402402DE9F04115
:102790008AB000230593069307930893099303686F
:1027A000464A934206D00446454A934225D00AB091
:1027B000BDE8F08100210091424B5A6C42F48052F6
:1027C0005A645A6C02F480520092009A01911A6B7A
:1027D00042F001021A631B6B03F001030193019B9A
:1027E000E02305930223069303230893052309930B
:1027F00005A9354801F0B2FED9E700250295314B15
:102800005A6C42F400525A645A6C02F4005202921A
:10281000029A03951A6B42F001021A631A6B02F0D6
:1028200001020392039A04951A6B42F002021A63A2
:102830001B6B03F002030493049B02260596069685
:102840004FF00308CDF820800523099305AF3946E2
:102850001D4801F083FE4FF400530593069607953B
:10286000CDF82080062309933946184801F076FEFA
:102870001748184B03604FF00063436040238360A8
:10288000C5604FF48063036145618561C5614FF4A4
:1028900040330362456201F07DFC58B90C4BA364E0
:1028A0009C6302220021542001F000FC542001F01E
:1028B00033FC7CE7FFF79CFCF0E700BF00300140F1
:1028C0000034014000380240000002400004024091
:1028D000D8BC00202864024000B585B00368B3F17D
:1028E000804F07D01E4A934211D01E4A934222D0F5
:1028F00005B000BD002301931B4B1A6C42F001028E
:102900001A641B6C03F001030193019BF0E70022A2
:102910000292154B196C41F0020119641B6C03F013
:1029200002030293029B03211D2001F0BFFB1D2027
:1029300001F0F2FBDCE7002203920B4B196C41F033
:10294000040119641B6C03F004030393039B01212E
:102950001E2001F0ABFB1E2001F0DEFBC8E700BF2C
:1029600000040040000800400038024000B587B075
:102970000023019302930393049305930368B3F137
:10298000804F01D007B000BD002300930A4B1A6BA3
:1029900042F001021A631B6B03F001030093009BDA
:1029A0004FF400430193022302930123059301A9ED
:1029B000024801F0D3FDE5E7003802400000024084
:1029C00030B589B00546002401941E4B5A6C42F480
:1029D00080225A645B6C03F480230193019B02A95B
:1029E00003A804F0AFF804F09DF803461648174A10
:1029F000026040F2E732C260154AA2FB03239B0C3F
:102A0000013B436004618460846105F03DF8044645
:102A100010B1204609B030BD0B4804F0C3FE044697
:102A20000028F6D11A2001F077FB0F2D01D90124DF
:102A3000EFE7002229461A2001F038FB054B1D6004
:102A4000E7E700BF00380240A8BE00200048014070
:102A500083DE1B435C000020FEE7FEE7FEE7FEE7A7
:102A6000FEE77047704708B5012001F06FFE08BD12
:102A700008B5042001F06AFE08BD08B5082001F081
:102A800065FE08BD08B5102001F060FE08BD00001D
:102A900008B5024801F06EFC08BD00BFE8BD00208B
:102AA00008B5402001F052FE08BD000008B50248FC
:102AB00004F0B7FE08BD00BFA8BE002008B502485C
:102AC00004F0AFFE08BD00BF48BC002008B50248B6
:102AD00004F0A7FE08BD00BF00BC002008B50248F6
:102AE00002F0A6FF08BD00BF48BE002008B502489E
:102AF00001F040FC08BD00BFD8BC002008B502486A
:102B000004F026FD08BD00BF38BD0020012070473D
:102B100008B530F01BFB162303604FF0FF3008BDF3
:102B200008B530F013FB16230360FEE770B5161EE0
:102B300007DD0C468D19AFF3008004F8010BA542A8
:102B4000F9D1304670BD70B5161E07DD0C468D19E3
:102B500014F8010BAFF30080A542F9D1304670BDE7
:102B60004FF0FF3070474FF400534B600020704728
:102B7000012070470020704708B503460C4A1268D0
:102B800052B10B4A106803440A4A0B49521A934245
:102B900006D8074A136008BD054A08491160F0E7E6
:102BA00030F0D4FA0C2303604FF0FF30F3E700BF9E
:102BB000F0BE0020000002200004000078950120F3
:102BC000034AD2F8883043F47003C2F88830704763
:102BD00000ED00E070B50546254C00224FF48071F1
:102BE000204601F0A3FD642001F03AFA01224FF4DF
:102BF0008071204601F09AFD01228021204601F0DB
:102C000095FD642001F02CFA00228021204601F07D
:102C10008DFD184C522323802046FFF793FB164965
:102C2000204600F0A3F9154E3070204600F004FE57
:102C300030700121204600F0A9FD307065B94021B7
:102C4000204600F021FD30700F21204601F012F9DE
:102C50000A4B1870012070BD064C1021204600F070
:102C600013FD064B18703C21204601F003F9EFE7F5
:102C70000004024044C40020F4CE0020F5CE002021
:102C80002DE9F04F83B081460F4600939DF830B098
:102C90009DF834A0C926002400F5A063019300EB41
:102CA000020808E044F001041FE098F800350BEA40
:102CB0000303534519D03B46019A00994846FFF754
:102CC000E3FA05460A214846FFF75BFB0543254327
:102CD000ECB2013E16F0FF06E4D0032FE5D999F8D7
:102CE00002357E2BE1D944F04204204603B0BDE812
:102CF000F08F00002DE9F04FE9B004460E4606AA19
:102D0000554B93E8030082E8030004AA083393E8D4
:102D1000030082E8030004F5A0654FF4F47204F1A7
:102D20001001284630F047FA102E27D004F2FF4356
:102D300004F2E3615A7A03F8012F8B42FAD104AB13
:102D400003CBC4F8E006C4F8E4164FF4F4732A4643
:102D500042F618612046FFF783FA054603230193E4
:102D6000FF2300934FF43053012204212046FFF744
:102D700087FF2843C0B269B0BDE8F08F06AB03CB34
:102D8000C4F81005C4F814154FF4F4712846FFF781
:102D9000E2FA04F23C5A28AE4FF4807251463046B3
:102DA00030F009FA04F5C86B0DF12009802259466C
:102DB000484630F000FAC8460DF1C00E00270395D2
:102DC000AEF120024D4641463046029413685468E5
:102DD0002344146A2344546A23449B0840F8043B68
:102DE000B1F90030B1F902C09C44B1F9103063442C
:102DF000B1F912C013EB0C0348BF03339B1025F845
:102E0000023B083204317245E0D1029C103608F1D1
:102E1000200809F1080904370EF1400E102FCFD118
:102E2000039D6022002110A830F02DF9C02200215E
:102E300038A830F028F94FF4807228A9504630F0B5
:102E4000BAF9802208A9584630F0B5F94FF4F47168
:102E50002846FFF780FA69E7D8660308F0B5C7B0DF
:102E600004460E463E4B93E8030046AB03E90300DD
:102E700042AB3C4A92E8030083E8030004F5A065F6
:102E80004FF4427204F5FC71284630F094F9102E8C
:102E900017D04FF442732A4642F6F8412046FFF716
:102EA000DFF9054603230193FF2300934FF43053CA
:102EB000012204212046FFF7E3FE2843C0B247B0B9
:102EC000F0BD44AB03CBC4F80805C4F80C1542AB05
:102ED00003CBC4F82005C4F824154FF442712846EA
:102EE000FFF739FA04F2345602AF4FF480723146DC
:102EF000384630F060F938460DF1280C4FF0000EDE
:102F0000ACF120020146136857683B44176A3B4402
:102F1000576A3B449B0841F8043B08326245F2D1B2
:102F200010300EF1040E0CF1400CBEF1100FE7D181
:102F3000C022002112A830F0A6F84FF4807202A936
:102F4000304630F038F94FF442712846FFF703FA63
:102F5000054BC4F834360023C4F8783599E700BF30
:102F6000446B0308E8660308A0FC010070B582B05A
:102F700006460D46002247F6FF71FFF75BF904464F
:102F80000DF1070200213046FFF734F90443E4B2A3
:102F90000DF1060201213046FFF72CF90443E4B29B
:102FA000022247F6FF713046FFF744F92043C0B2D2
:102FB0009DF80730F02B03D000232B7002B070BDBA
:102FC0009DF80630022B14BF00230123F5E72DE9FD
:102FD000F04782B0054600238DF8073000930423A4
:102FE0006A4642F6FC71FFF74FF90446009A40F238
:102FF000FF439A4202D095F8AC3A9BB30DF1070219
:1030000006212846FFF7F6F80443E4B29DF907309D
:10301000002B5EDB002247F6FF712846FFF70AF916
:103020000443E4B2002214212846FFF703F90443C5
:10303000E4B2002215212846FFF7FCF80443E4B26D
:10304000042209212846FFF7F5F80443E4B20222DE
:1030500047F6FF712846FFF7EDF82043C0B202B0F3
:10306000BDE8F087002247F6FF712846FFF7E2F837
:103070000646162215212846FFF7DCF8064334439E
:10308000E4B2012214212846FFF7D4F80443E4B245
:1030900040F2F5170DF1070A4FF006094FF00A0844
:1030A0009DF90730002BA9DB524649462846FFF719
:1030B000A1F8064641462846FFF763F90643264332
:1030C000F4B2013FBFB2002FEAD19DF807301C4394
:1030D00094E70DF1070207212846FFF78BF8044318
:1030E000E4B29DF8072002F17C03DBB2012B88BF1C
:1030F00014438FE708B5054B1860054B196043680A
:1031000000F5A0620021FFF7EDF808BDFCCE00201D
:10311000F8CE00208F4B1B78012B00D070472DE993
:10312000F0418C4B00221A708B4C236893F80025D9
:103130009A702068818800F5A060FFF70CF9236879
:103140005A68102A40F2B08010244DF6C4364EF270
:103150004408814F44E04DF658018A4200F09980BE
:103160004DF684318A4235D17C4A106804F204510C
:103170002A46194400F5827030F01DF82AE04245D5
:103180007CD012D84DF6C4618A426CD04DF64471A1
:103190008A421FD1714A106804F204512A46194428
:1031A00000F5717030F007F814E04EF284018A42A5
:1031B00010D16A4A106804F204512A46194400F2F8
:1031C00084402FF0F8FF05E0644A1268234493F826
:1031D0000C35137004342C443B685A68A24263D9FE
:1031E00004F5A06103EB010C5A5C02F00F0202F13E
:1031F0000E0000F00F000A285D5AC5F30B1598BFAA
:103200005543BCF80220B24222D0B8D845F2D05182
:103210008A4212D09FD845F2B4418A42D4D045F2B6
:10322000D0418A42D6D14D4A106804F204512A4650
:10323000194404302FF0BFFFCCE7484A106804F26D
:1032400004512A46194400F5A2702FF0B4FFC1E7DB
:10325000424A106804F204512A46194400F51170DC
:103260002FF0A9FFB6E73D4A106804F204512A4640
:10327000194400F551702FF09EFFABE7374A1068F4
:1032800004F204512A46194400F244402FF093FFFF
:10329000A0E7324A106804F204512A46194400F2A9
:1032A000C4402FF088FF95E72C4B1D6805F5807111
:1032B0002B4653F8042FD20A1A608B42F9D105F23B
:1032C000423005F2434E05F5107C05F2C2310C4642
:1032D00000260231B1F900301A46002BB8BFDA1CC3
:1032E00092100A8013F1030FACBF13B233460B8068
:1032F0001EF8013F5B088EF8003030F8023FDB0912
:1033000003805CF8043FDB0ACCF80030A042E0D137
:1033100005F2031305F24311FF2003E083F8800355
:103320008B4204D013F8012F002AF9D1F6E705F2F9
:10333000CC4205F24C550A4952F8043FA1FB030365
:10334000DB0B1360AA42F7D1064B01221A70BDE8CD
:10335000F08100BFA7BE0020FCCE0020F8CE0020E8
:1033600001800080A6BE00202DE9F04387B007460B
:103370000C4616461D46294B93E8070006AB03E9A9
:103380000700B5F5B46F04D9FF26304607B0BDE895
:10339000F083330A8DF80C308DF80D602B118DF809
:1033A0000E302B018DF80F300C230DEB030242F68B
:1033B000F4713846FEF754FF064603230193FF23BA
:1033C00000934FF43053012204213846FFF758FC94
:1033D0000643F6B207F5A06805F10C094B464246D4
:1033E00042F604413846FEF74FFF0643F6B21FFA95
:1033F00089F14046FEF7AFFF2BB2002BC5DD07F287
:103400000352611E07F20457013D17FA85F512F8C1
:10341000013F01F8013FAA42F9D1B6E7F06603087F
:1034200038B504460D46082345F2504200F5A06128
:10343000FFF79AFF94F8003594F8012513FB02F387
:103440002B7038BD2DE9F04184B0B3F5B46F04D9C9
:10345000FF25284604B0BDE8F08105460E461C460F
:10346000DFB2130A8DF80C308DF80D2023118DF882
:103470000E303B018DF80F3021463046FEF76BFFD2
:10348000621E12B2002A0CDB531C334402F2055CAC
:10349000AC4413F8011D0CF8011D013A12B2002AC8
:1034A000F7DA039BC5F8003504F204516B180022CB
:1034B0006A545A709A700F22DA7005221A714FF00E
:1034C000010883F8058004F1080212129A71083786
:1034D000DF71C4F53F51343104F10C0305F5A062EE
:1034E00089B22846FEF7BCFE074603230193FF235B
:1034F00000934FF43053424604212846FFF7C0FBA7
:1035000047EA0005EDB221463046FEF724FFA0E76A
:103510002DE9F04F99B004460027159716974FF400
:10352000407314930DF15F01FFF77AFF81466760E6
:10353000FF23A370534D10AE05F124030FCB86E893
:103540000F0004AE34350FCD0FC60FCD0FC695E872
:103550000F0086E80F0040F6FF73109303AB3A4666
:1035600040F6FF7608E00088616801EB1011043135
:10357000616001320C2A1BD00433184619680029F7
:10358000F7D026FA02F111F0010FF2D0197811F0FC
:103590000F0FE8D001F00F050C2DE4D89DF85F0067
:1035A000198860F30F111980616800FB0511DEE7CF
:1035B00063681833636030234DF6801204A92046F7
:1035C000FFF740FF8246636815930D231693082387
:1035D0004DF6681215A92046FFF734FF83461023E5
:1035E0004DF6701210A92046FFF72CFF80460022EE
:1035F00047F6FF712046FEF71DFE0746052209210A
:103600002046FEF717FE0646022247F6FF712046C7
:10361000FEF710FE0290042314AA42F6FC71204625
:10362000FEF71EFE039003230193FF2300934FF444
:103630003053012204212046FFF722FB05460C23CC
:1036400045F2404204F5A0612046FFF78DFEB4F834
:10365000082563689A4203D0FF2019B0BDE8F08FB7
:103660004AEA0B0A49EA0A0948EA090847EA080748
:103670003E43029B3343039A1A431543284300F009
:10368000FF00EAE7D86603082DE9F04105460E463B
:10369000102903D0402944D07F2434E000F5A067EE
:1036A00010234AF638523946FFF75EFE044640239F
:1036B00085F8043585F806354FF0040885F8098546
:1036C00010234AF6385239462846FFF7BBFE04431A
:1036D000E4B2082345F2504239462846FFF744FE3B
:1036E0000443E4B285F8008585F80185082385F850
:1036F000043585F8053545F2504239462846FFF72E
:10370000A1FE0443E4B231462846FFF7F3FA04432E
:10371000E4B231462846FFF7A1FB2043C0B2BDE822
:10372000F08100F5A06710234AF638523946FFF7BA
:103730001BFE0446102385F8043585F80635012262
:1037400085F809254AF6385239462846FFF77AFEA9
:103750000443E4B2082345F2504239462846FFF7B5
:1037600003FE0443E4B2082385F8003585F80135EB
:10377000042285F8042585F8052545F2504239468E
:103780002846FFF75FFE0443E4B2BCE7F0B583B020
:1037900006460D460023019300F5A06708234AF66C
:1037A00030523946FFF7E0FD0446012D03D0032DCA
:1037B0001ED07F2407E0012386F80135032386F815
:1037C00003350023019308234AF630523946304628
:1037D000FFF738FE0443E4B204234DF664120DEB08
:1037E00003013046FFF72EFE2043C0B203B0F0BD08
:1037F000032386F80135022386F80335012301935C
:10380000E1E72DE9F04106460D4617469846FFF7D9
:10381000ABFD0446BDF81C200699BDF820002844E5
:103820002FF0C9FC43463A4629463046FFF70AFEC8
:103830002043C0B2BDE8F0812DE9F04788B00546CD
:103840004FF00113069301260596554BC360554B67
:103850008360002780F8AC7A3A4647F6FF71FEF79E
:10386000E9FC0446042209212846FEF7E3FC044350
:10387000E4B240220F212846FEF7DCFC0443E4B208
:1038800003220A212846FEF7D5FC0443E4B20DF1D9
:103890001F0247F6FF712846FEF7ACFC0443E4B272
:1038A00032460C212846FEF7C5FC0443E4B23A46F2
:1038B00040F201112846FEF7BDFC0443E4B23A464B
:1038C0004FF481712846FEF7B5FC0443E4B232465A
:1038D0004FF485712846FEF7ADFC0443E4B232464E
:1038E00044F202012846FEF7A5FC0443E4B23A463E
:1038F00044F202012846FEF79DFC0443E4B2032291
:103900004FF485712846FEF795FC0443E4B2324635
:1039100040F203112846FEF78DFC0443E4B23A4618
:103920000C212846FEF786FC0443E4B243220F2113
:103930002846FEF77FFC0443E4B231462846FEF7F2
:1039400020FD0443E4B240220F212846FEF772FC1A
:103950000443E4B232460A212846FEF76BFC0443D6
:10396000E4B264212846FEF70CFD0443E4B23A4673
:1039700047F6FF712846FEF75DFC0443E4B201966A
:10398000FF23009306233A4631462846FFF778F98D
:10399000044314F0FF0407D0204608B0BDE8F087C8
:1039A000707103087874030832460E212846FEF72A
:1039B00041FC0446022247F6FF712846FEF73AFC16
:1039C0000443E4B20D2203212846FEF733FC0443EE
:1039D000E4B2324647F6FF712846FEF72BFC04435B
:1039E000E4B210260196009621233A46012128468A
:1039F000FFF746F90443E4B23A4647F6FF7128461A
:103A0000FEF718FC0443E4B20DF11F073A4647F6EF
:103A1000FF712846FEF7EEFB0443E4B201220C21BD
:103A20002846FEF707FC0443E4B2002247F6FF7184
:103A30002846FEF7FFFB0443E4B2002240F20111E6
:103A40002846FEF7F7FB0443E4B200224FF48171ED
:103A50002846FEF7EFFB0443E4B201224FF48571E0
:103A60002846FEF7E7FB0443E4B2012244F20201D8
:103A70002846FEF7DFFB0443E4B2002244F20201D1
:103A80002846FEF7D7FB0443E4B203224FF48571C6
:103A90002846FEF7CFFB0443E4B2012240F20311B3
:103AA0002846FEF7C7FB0443E4B2002244F20F01AC
:103AB0002846FEF7BFFB0443E4B2432240F21A213A
:103AC0002846FEF7B7FB0443E4B2032240F21A2172
:103AD0002846FEF7AFFB0443E4B2012240F21A216C
:103AE0002846FEF7A7FB0443E4B2002240F21A2165
:103AF0002846FEF79FFB0443E4B2002240F219215E
:103B00002846FEF797FB0443E4B2002240F21B2153
:103B10002846FEF78FFB0443E4B2002247F6FF710C
:103B20002846FEF787FB0443E4B23A4647F6FF71A6
:103B30002846FEF75FFB0443E4B200220C2128462E
:103B4000FEF778FB0443E4B2012247F6FF712846F2
:103B5000FEF770FB0443E4B2072220212846FEF75B
:103B600069FB0443E4B2062220212846FEF762FBEB
:103B70000443E4B2092247F6FF712846FEF75AFBD8
:103B80000443E4B2B84F4FF400433A4600212846BC
:103B9000FEF766FB0443E4B20A2247F6FF712846AB
:103BA000FEF748FB0443E4B24FF40043FA18002147
:103BB0002846FEF755FB0443E4B20B2247F6FF719B
:103BC0002846FEF737FB0443E4B24FF4A04307F561
:103BD000803200212846FEF743FB0443E4B2012271
:103BE00047F6FF712846FEF725FB0443E4B20222A4
:103BF00047F6FF712846FEF71DFB0443E4B20D2291
:103C000003212846FEF716FB0443E4B2012247F6DF
:103C1000FF712846FEF70EFB0443E4B201960096BE
:103C20002123002201212846FFF72AF8044314F03B
:103C3000FF047FF4B1AE002247F6FF712846FEF77D
:103C4000F9FA07460DF11F06324647F6FF7128467E
:103C5000FEF7D0FA0743FFB201220C212846FEF7F7
:103C6000E9FA0743FFB2002247F6FF712846FEF744
:103C7000E1FA0743FFB200224FF48A712846FEF7AB
:103C8000D9FA0743FFB2002240F215112846FEF789
:103C9000D1FA0743FFB242224FF48B712846FEF758
:103CA000C9FA0743FFB2002240F217112846FEF777
:103CB000C1FA0743FFB200220B212846FEF7BAFAE9
:103CC0000743FFB2324647F6FF712846FEF792FAE5
:103CD0000743FFB200220C212846FEF7ABFA074348
:103CE000FFB201220B212846FEF7A4FA0743FFB2D8
:103CF0004FF4FA760DF112094FF006084FF0010A61
:103D00004A4641462846FEF775FA2043C4B29DF95B
:103D10001230002B0DDB51462846FEF732FB9DF892
:103D2000123013F0010F0FD1013EB6B2002EE7D1D1
:103D30000AE00DF1130207212846FEF75BFA9DF811
:103D4000133023430343DCB23C437FF425AE02220D
:103D500047F6FF712846FEF76DFA04462823434ACA
:103D600042F6D8712846FEF77BFA0443E4B20223F8
:103D70000193FF2700974FF4305300220421284677
:103D8000FEF77EFF0443E4B205F5A0664FF4F67338
:103D9000324642F604412846FEF776FA0443E4B27E
:103DA0004FF4F472314605F110002FF004FA10219F
:103DB0002846FEF79FFF0443E4B24FF442722C49B9
:103DC00005F5FC702FF0F7F910212846FFF746F8AB
:103DD0000443E4B24FF47373AA6842F634412846B0
:103DE000FEF73EFA0443E4B20323019300974FF435
:103DF0003053012204212846FEF742FF0443E4B277
:103E000004234DF6803206A92846FFF71BFB044326
:103E1000E4B204234DF6641205A92846FFF712FB0D
:103E20000443E4B201278DF81F7026230293019703
:103E30000DF11F08CDF8008028234EF208123146FC
:103E40002846FFF7DEFC0443E4B2252302930197E2
:103E5000CDF8008028234EF2081231462846FFF79D
:103E6000D0FC0443E4B297E54478030848710308A2
:103E70003C67030800B587B08DF817100123029343
:103E800001930DF117030093042345F2584200F506
:103E9000A061FFF7B6FC07B000BD0000DFF834D02A
:103EA000FEF78EFE0C480D490D4A002302E0D4585F
:103EB000C4500433C4188C42F9D30A4A0A4C002374
:103EC00001E013600432A242FBD32FF045F9FDF765
:103ED00029FF70470000022000000020C4020020DB
:103EE000F45F0508C402002074950120FEE70B155D
:103EF00000F181802DE9F04345886C1E9C427CDDF9
:103F00005FEA225E7CD40488013C74457ADD446813
:103F1000C1F3130105FB0EFE0EEB0309C2F31302FE
:103F2000AE449E44C1F57F2C0CF6FF7C4FEAEC7545
:103F3000C2F57F2000F6FF70C61734F919304FEA3A
:103F4000E37803FB05F70CFB0877A3FB0C38474429
:103F50001B0943EA07734FEAE37803FB06F700FB0C
:103F60000877A3FB00831F4404EB4909B9F9023029
:103F70004FEAE37903FB06F600FB0966A3FB00307A
:103F800006441B0943EA0673D817A3FB013601FB5D
:103F9000006613EB080047EB060634F91E30DF1706
:103FA00003FB05F50CFB0755A3FB0C3C65441B0903
:103FB00043EA0573DF17A3FB023502FB075513EB3A
:103FC000000C45EB060504EB4E04B4F90230DC1797
:103FD000A3FB013001FB04011B0943EA0173D9175C
:103FE000A3FB023002FB010013EB0C0340EB0500C6
:103FF00040F30F1002E0002070470020BDE8F0837E
:104000000020FBE70020F9E708B50B4B1A6842F4E3
:1040100000721A601A6842F480621A601A6842F4E8
:1040200080721A60032000F02FF80320FEF7C8FC0E
:10403000FEF708FB002008BD003C0240034A11685F
:10404000034B1B780B441360704700BF00CF002068
:1040500058000020014B1868704700BF00CF0020B7
:1040600038B50446FFF7F6FF0546B4F1FF3F02D02E
:10407000044B1B781C44FFF7EDFF401BA042FAD312
:1040800038BD00BF580000200749CA68030203F486
:10409000E06322F4E0621204120C134343F0BF63A6
:1040A00043F40033CB60704700ED00E000B5184BDF
:1040B000DB68C3F30223C3F1070CBCF1040F28BF74
:1040C0004FF0040C03F1040EBEF1060F8CBF033B4E
:1040D00000234FF0FF3E0EFA0CFC21EA0C01994040
:1040E0000EFA03FE22EA0E021143002808DB090142
:1040F000C9B200F1604000F5614080F8001300BDD6
:1041000000F00F000901C9B2024B1954F7E700BFD4
:1041100000ED00E014ED00E0002807DB410900F0AD
:104120001F0001238340024A42F82130704700BF3C
:1041300000E100E000280CDB430900F01F00012231
:1041400082402033034941F82320BFF34F8FBFF350
:104150006F8F704700E100E010B402460368D8B2E8
:1041600010380A49A1FB00410909094C615CD1657D
:104170005F2887BF6FF30903181D23F47F7020F0B9
:10418000030090655DF8044B704700BFABAAAAAA74
:1041900044C8040838B50446FFF75CFF002C00F063
:1041A0008A800546022384F83530002384F83430B1
:1041B0002268136823F00103136023681A6812F061
:1041C000010F0AD0FFF746FF431B052BF5D920232B
:1041D0006365032084F8350038BD1A6837491140FB
:1041E0006268A0680243E068024320690243606994
:1041F0000243A0690243E0690243206A02430A4382
:10420000616A042924D01A6021684B6923F00703EE
:10421000626A1343042A0DD1A26A1343E06A48B1CB
:10422000A56905BB012A18D032F0020202D1C0F301
:10423000006018BB4B612046FFF78EFFE26D3F2305
:104240009340836000206065012384F83530C3E724
:10425000E16A206B01430A43D5E7B0F1C07F14BF88
:1042600000200120E5E7B5F5005F0DD0022A05D951
:10427000032ADFD1C0F300600028DBD04023636550
:10428000012084F83500A7E7032AD3D801A555F803
:1042900022F000BF7D420008A54200087D420008D0
:1042A000AB420008C0F30060E6E7B0F1C07F14BF86
:1042B00000200120E0E701208EE700BF3F8010F0E2
:1042C00070B4846D90F834C0BCF1010F3DD04FF054
:1042D000010C80F834C090F835C0BCF1010F05D056
:1042E000002380F83430022070BC7047022580F82B
:1042F0003550002545650668356825F4802535600C
:1043000005686B608368402B1AD003689960036866
:10431000DA60C26D3F239340A3600268136843F0E4
:1043200016031360036C23B10268136843F008039B
:1043300013600268136843F0010313600020D3E7A1
:1043400003689A600368D960E3E70220CCE790F83D
:104350003530022B03D080234365012070470523AD
:1043600080F835300268136823F0010313600020E1
:1043700070470000F0B583B0044600230193724BF0
:104380001E68876D3D68C26D082393402B4210D094
:1043900003681A6812F0040F0BD01A6822F00402A6
:1043A0001A60C26D08239340BB60436D43F0010364
:1043B0004365E26D012393402B4209D02268526984
:1043C00012F0800F04D0BB60636D43F0020363659D
:1043D000E26D042393402B4209D02268126812F048
:1043E000020F04D0BB60636D43F004036365E26DAC
:1043F000102393402B4224D02268126812F0080F39
:104400001FD0BB6023681A6812F4802F0DD01B6880
:1044100013F4002F04D1236C9BB12046984710E081
:10442000A36C73B1204698470BE01A6812F4807FA2
:1044300003D11A6822F008021A60236C0BB12046DF
:104440009847E26D202393402B4254D02268126893
:1044500012F0100F4FD0BB6094F83530052B0ED002
:1044600023681A6812F4802F33D01B6813F4002FCE
:104470002AD1636C002B3ED0204698473BE022684F
:10448000136823F0160313602268536923F0800336
:104490005361236CA3B12268136823F008031360EF
:1044A000E26D3F239340BB60012384F83530002345
:1044B00084F83430236D002B43D02046984740E0E9
:1044C000A36C002BE7D1EBE7E36BA3B12046984741
:1044D00011E01A6812F4807F09D11A6822F01002E4
:1044E0001A60012384F83530002384F83430E36BFC
:1044F0000BB120469847636D1BB3636D13F0010F3A
:104500001BD0124BA3FB0636B60A052384F83530C0
:104510002268136823F001031360019B01330193A8
:10452000B34204D823681B6813F0010FF5D10123AF
:1045300084F83530002384F83430E36C0BB1204626
:10454000984703B0F0BD00BF54000020B5814E1B5A
:1045500090F835007047406D704700002DE9F04F2E
:1045600083B0002213464FF0010E03254FF00F08D1
:104570006B4C4BE0876805FA02FA27EA0A0ACF6813
:10458000974047EA0A078760476827EA0C0C4F689C
:10459000C7F300179F4047EA0C07476044E04FF01D
:1045A000000C0CFA0BFC4CEA0A0CC7F808C0A76810
:1045B0006FEA090C4E6816F4801F0CBF0CEA07075F
:1045C00049EA0707A760E7684E6816F4001F0CBFAA
:1045D0000CEA070749EA0707E76067684E6816F4C0
:1045E000003F0CBF0CEA070749EA07076760276826
:1045F0004E6816F4803F0CBF0CEA070749EA07072C
:10460000276001330232102B00F086800EFA03FC83
:104610000F680CEA07093CEA0707F2D14F6807F078
:104620000307013F012FA5D94F6807F00307032FA8
:1046300023D0C76805FA02FC27EA0C0C8F68974064
:1046400047EA0C07C7604F6807F00307022F14D131
:104650004FEAD30C00EB8C0CDCF8207003F0070B56
:104660004FEA8B0B08FA0BFA27EA0A0A0F6907FAD6
:104670000BF747EA0A07CCF82070076805FA02FC36
:1046800027EA0C0C4F6807F00307974047EA0C072E
:1046900007604F6817F4403FB3D000270197214EC1
:1046A000776C47F480477764776C07F4804701970D
:1046B000019F23F0030707F1804707F59C37D7F8E0
:1046C00008A003F0030B4FEA8B0B08FA0BFC2AEA55
:1046D0000C0AA6F56056B0423FF461AF06F580665D
:1046E000B04210D006F58066B0420FD0DFF838C077
:1046F00060450ED00CF5806C604514BF4FF0070C80
:104700004FF0040C4DE74FF0010C4AE74FF0020C5C
:1047100047E74FF0030C44E703B0BDE8F08F00BF5C
:10472000003C014000380240000C02400AB18161A7
:104730007047090481617047436901EA030221EA75
:10474000030141EA024181617047000008B5054B51
:104750005B69034200D108BD024B5861FDF70CFABA
:10476000F9E700BF003C014003685A6912F4806F0A
:1047700001D1002070476FF480625A610023036307
:10478000202280F83D2080F83E30026C42F0040286
:10479000026480F83C30012070472DE9F041054665
:1047A0000C4616461F46C1F30748B8F1010F2B68A7
:1047B0000CBF5B699B6924EA030C1FFA8CFCBCFAF2
:1047C0008CFC4FEA5C1C664527D1B7F1FF3FECD06B
:1047D000FFF740FC069BC01AB84201D8002FE4D175
:1047E000B8F1010F2B680CBF5B699B6924EA0303D6
:1047F0009BB2B3FA83F35B099E42D6D100232B63AD
:10480000202285F83D2085F83E302A6C42F02002B7
:104810002A6485F83C30012000E00020BDE8F081EA
:104820002DE9F84305460E4617469946C1F3074859
:10483000B8F1010F2B680CBF5C699C6926EA04047F
:10484000A4B2003C18BF0124002C43D02B685A6945
:1048500012F4806F27D1B7F1FF3FE9D0FFF7FAFBE1
:10486000A0EB0900B84201D8002FE1D1B8F1010F47
:104870002B680CBF5B699B6926EA03039BB2003B74
:1048800018BF0123002BD3D000232B63202285F8EF
:104890003D2085F83E302A6C42F020022A6485F8DB
:1048A0003C30012017E01A6842F400721A602B684D
:1048B0006FF480625A6100232B63202285F83D202B
:1048C00085F83E302A6C42F004022A6485F83C30B8
:1048D000012000E00020BDE8F88370B504460D46D5
:1048E000164623685B6913F0800F21D12046FFF73D
:1048F0003BFFF8B9B5F1FF3FF3D0FFF7ABFB801BEF
:10490000A84201D8002DECD123685B6913F0800F19
:10491000E7D100232363202284F83D2084F83E3031
:10492000226C42F02002226484F83C30012000E036
:10493000002070BD0120FCE72DE9F04385B004465E
:104940000D4691461F46DDF830800D9E03681968BC
:1049500041F4807119600096434600224FF0011126
:10496000FFF71BFF70B9236805F0FE051D61334694
:10497000424628492046FFF753FF68B1012005B0A1
:10498000BDE8F08323681B6813F4807F40D04FF4A8
:10499000007323640320F2E70023039323685A691A
:1049A00003929B690393039B324641462046FFF7DF
:1049B00094FF30B9012F10D123685FFA89F61E6188
:1049C000DDE7236C042B01D00120D8E722681368AF
:1049D00043F4007313600120D1E723684FEA1922E2
:1049E0001A61324641462046FFF777FF20B9236817
:1049F0005FFA89F61E61C2E7236C042B01D0012007
:104A0000BDE72268136843F4007313600120B6E722
:104A10000320B4E70200010070B504460D461646B7
:104A200023685B6913F0040F21D12046FFF79CFE39
:104A3000F8B9B5F1FF3FF3D0FFF70CFB801BA8429C
:104A400001D8002DECD123685B6913F0040FE7D186
:104A500000232363202284F83D2084F83E30226C1A
:104A600042F02002226484F83C30012000E0002063
:104A700070BD0120FCE770B504460D46164603687C
:104A80005A6912F0400F1BD000200EE06FF01002A8
:104A90005A6100232363202284F83D2084F83E30AD
:104AA000226C226484F83C30012070BD23685B696D
:104AB00013F0400F10D02368586910F0400F1AD13E
:104AC000586910F0100FE1D1FFF7C4FA801BA8421B
:104AD000ECD8002DEFD1E9E700232363202284F8EE
:104AE0003D2084F83E30226C42F02002226484F89B
:104AF0003C300120D9E70020D7E70000002800F073
:104B0000B08070B5044690F83D30002B73D024235C
:104B100084F83D302268136823F001031360226893
:104B2000136843F4004313602268136823F40043BE
:104B3000136001F0E7FF62684C4B9A4260D84C4B1F
:104B4000984240F290804B49A1FB00318B0C2568C4
:104B50006A6822F03F0242EA91426A6021680A6A6A
:104B600022F03F02414D6668AE424ED801331343F6
:104B70000B622168CA6922F44F4222F0FF02656885
:104B80003A4B9D424BD8431E6D00B3FBF5F3013306
:104B900040F6FC7003425ED0C3F30B031A43CA61B4
:104BA00021680A68E369206A034322F0C0021343C4
:104BB0000B6021688A682369E068034322F403429A
:104BC00022F0FF0213438B602168CA686369A06901
:104BD000034322F0FF021343CB602268136843F0C3
:104BE0000103136000202064202384F83D302063FB
:104BF00084F83E0070BD80F83C30FDF751FD86E73B
:104C00001D4B98429FD80120F4E74FF4967505FBA1
:104C100003F31A4DA5FB03539B090133A7E7A368D0
:104C20005BB9431E05EB4505B3FBF5F30133C3F355
:104C30000B0393B143F40043B0E7431E05EB850536
:104C400005EB8505B3FBF5F30133C3F30B0333B178
:104C500043F44043A2E70423A0E701239EE7012396
:104C60009CE7012070470120C4E700BFA086010037
:104C70007F841E0083DE1B43FF083D00D34D62107E
:104C80002DE9F04385B004460F46904699460C9EA8
:104C9000FFF7E0F994F83D10202904D002273846A8
:104CA00005B0BDE8F0830546009019230122724942
:104CB0002046FFF772FD002840F0D78094F83C3082
:104CC000012B00F0D480012384F83C3023681A685B
:104CD00012F0010F03D11A6842F001021A60226833
:104CE000136823F400631360212384F83D301023FC
:104CF00084F83E3000232364C4F82480A4F82A906A
:104D0000638D23855D4BE362E36A082B0DD0012B95
:104D10000BD013F5803F08D0236B122B0AD12268E9
:104D2000136843F48073136004E02268136843F44B
:104D3000807313600095334600224FF00111204626
:104D4000FFF72BFDD0B92369B3F5804F20D123683D
:104D500007F0FE071F612B46324649492046FFF700
:104D60005FFD0746002840F08480002303932368FA
:104D70005A6903929B690393039B2FE023681B6886
:104D800013F4807F02D04FF400732364012786E779
:104D90002268FB1103F0060343F0F00313612B4676
:104DA000324638492046FFF73BFD0028EED1236804
:104DB000FFB21F61CFE7236C042B01D001276EE700
:104DC0002268136843F400731360012767E72A46DB
:104DD00031462046FFF720FE00282CD1238D002BE2
:104DE00035D02A4631462046FFF777FD0028E2D12C
:104DF0002368626A12781A61626A531C6362618D69
:104E0000013989B26185218D013989B221852368F3
:104E1000586910F0040FDAD00029D8D052781A61FE
:104E2000636A01336362638D013B9BB26385238DAB
:104E3000013B2385CBE7236C042B01D001272EE710
:104E40002268136843F400731360012727E7226880
:104E5000136843F400731360202384F83D3000236B
:104E600084F83E3084F83C3019E7022717E7022720
:104E700015E7012713E700BF020010000000FFFF45
:104E800002000100080001002DE9F04389B004464A
:104E90000F4690469946109EFFF7DCF894F83D10B7
:104EA000202905D04FF00209484609B0BDE8F0833B
:104EB000054600901923012287492046FFF76DFC23
:104EC000002840F0C78194F83C30012B00F0C581E8
:104ED000012384F83C3023681A6812F0010F03D1D3
:104EE0001A6842F001021A602268136823F4006312
:104EF0001360222384F83D30102384F83E300023D1
:104F00002364C4F82480A4F82A90638D2385734B0E
:104F1000E362E26A21680B6843F480630B60082A4D
:104F20000DD0012A0BD012F5803F08D0236B112B36
:104F30000AD12268136843F48073136004E0226886
:104F4000136843F4807313600095334600224FF0DA
:104F500001112046FFF721FC40BB2369B3F5804FC8
:104F60002DD1236847F00107FFB21F612B4632465F
:104F70005B492046FFF754FC8146002840F07081D1
:104F8000238D002B5AD1039323685A6903929A699F
:104F90000392039A1A6842F400721A60218D002964
:104FA00000F04F81DFF840810027CCE023681B68C8
:104FB00013F4807F12D04FF4007323640EE04FEAA5
:104FC000E71808F00608236848F0F0021A612B463B
:104FD000324644492046FFF723FC10B14FF0010947
:104FE00062E72368FFB21F612B4632463C492046E8
:104FF000FFF716FC0028F1D10022079223685969B7
:105000000791996907910799196841F480711960AE
:10501000009533464FF001112046FFF7BEFB20B943
:10502000226848F0F1031361A0E723681B6813F4BA
:10503000807FD3D04FF400732364CFE7012B0FD0D0
:10504000022B1FD02268136843F48063136000238F
:10505000069323685A6906929B690693069B9DE70F
:105060002268136823F48063136000230493236889
:105070005A6904929A690492049A1A6842F4007276
:105080001A608BE72268136823F480631360226838
:10509000136843F4006313600023059323685A697F
:1050A00005929B690593059B78E72A463146204681
:1050B000FFF7E1FC002840F0D68023681A69636A94
:1050C0001A70636A01336362238D013B2385638D0C
:1050D000013B9BB2638533E0020010000000FFFF3C
:1050E00002000100080001000400010000953346A1
:1050F0003A4641462046FFF750FB002840F0B68074
:105100002268136843F40073136023681A69636AA2
:105110001A70626A531C6362238D013B2385638D81
:10512000013B9BB2638523681B695370636A01333B
:105130006362238D013B2385638D013B9BB26385B5
:10514000218D00297DD003294AD80129ADD002291B
:10515000CCD0009533463A4641462046FFF71DFB2A
:10516000002840F086802268136823F4806313606F
:1051700023681A69636A1A70636A01336362238D54
:10518000013B2385638D013B9BB2638500953346CC
:105190003A4641462046FFF700FB00286CD12268C2
:1051A000136843F40073136023681A69636A1A7002
:1051B000626A531C6362238D013B2385638D013B2F
:1051C0009BB2638523681B695370636A0133636212
:1051D000238D013B2385638D013B9BB26385AFE744
:1051E0002A4631462046FFF746FC002847D123686F
:1051F0001A69636A1A70636A01336362238D013B23
:105200009BB22385628D013A92B262852268516910
:1052100011F0040F94D0032B0ED023681A69636A2F
:105220001A70636A01336362238D013B2385638DAA
:10523000013B9BB2638583E7136823F480631360AB
:10524000EBE7202384F83D30002384F83E3084F8D7
:105250003C3029E64FF0020926E64FF0020923E62A
:105260004FF0010920E64FF001091DE64FF001095A
:105270001AE64FF0010917E64FF0010914E64FF066
:10528000010911E630B583B005460020019095F87C
:105290003D00202840F0A98056480068C008564CC0
:1052A000A4FB0040000A00EB800000EB80000190AE
:1052B000019C013C01940198002851D02868846920
:1052C00014F0020FF4D195F83C40012C00F09080CE
:1052D000012485F83C40046814F0010F03D10468F0
:1052E00044F0010404602C68206820F40060206011
:1052F000222085F83D00102085F83E00002028641B
:105300006A626B856B8D9BB22B853C4AEA6269644D
:10531000002B57D0AB6B002B2ED0394ADA63AB6B26
:10532000384ADA64AA6B1064AA6B5064AA6B906462
:10533000AA6B106529682B8D6A6A1031A86BFEF77D
:10534000BFFF38B3202385F83D30002285F83E208A
:105350002B6C43F010032B6485F83C20012045E0C2
:1053600000232B63202285F83D2085F83E302B6CEE
:1053700013432B64022039E0202385F83D300022BE
:1053800085F83E202B6C43F080032B6485F83C208D
:1053900001202BE02A68136843F4806313602A68B5
:1053A000136843F480731360002385F83C302A6847
:1053B000536843F4407353602A68536843F40063AE
:1053C000536013E0002085F83C002A68536843F4DA
:1053D000E06353602A68136843F4806313602A68AB
:1053E000136843F48073136000E0022003B030BD03
:1053F0000220FBE75400002089B5F8140000FFFFED
:1054000097560008515600082DE9F04383B0044632
:105410000F46904699460C9EFEF71CFE94F83D20E0
:10542000202A03D0022003B0BDE8F0830546009097
:10543000192301224C492046FFF7AFF9002840F01C
:105440008D8094F83C30012B00F08A80012384F891
:105450003C3023681A6812F0010F03D11A6842F039
:1054600001021A602268136823F400631360212389
:1054700084F83D30402384F83E30002323640A9BA7
:105480006362BDF82C306385638D2385374BE362FF
:10549000019500964B46424639462046FFF74CFAA6
:1054A00000285FD1238DD3B92A4631462046FFF725
:1054B000B3FA002844D0236C042B3AD00120B2E781
:1054C000236C042B01D00120ADE72268136843F45C
:1054D000007313600120A6E7238D002BE4D02A4639
:1054E00031462046FFF7F9F90028E9D12368626ABE
:1054F00012781A61606A431C6362238D013B9BB280
:105500002385618D013989B261852268516911F065
:10551000040FE1D0002BC7D043781361636A0133D5
:105520006362238D013B2385638D013B9BB26385C1
:10553000D2E72268136843F400731360012072E716
:105540002268136843F400731360202384F83D300D
:10555000002384F83E3084F83C3064E7022062E7A0
:10556000022060E701205EE7020010000000FFFF5C
:1055700070477047704770477047704708B590F89C
:105580003D30026D9AB9C36C012B08D0836C026860
:10559000C3F307231361036D0133036508BD836CF7
:1055A0000268DBB21361036D02330365F6E7DBB219
:1055B000026D012A0BD0026D022A3FD1222B0ED0A0
:1055C000428D92B202B3212B12D0438DE6E7836C59
:1055D0000268DBB21361036D01330365DEE7026825
:1055E000136843F480731360036D01330365D5E7DB
:1055F0000368426A12781A61436A01334362438D39
:10560000013B9BB24385C9E7428D92B2002AC5D1C6
:10561000212BC3D10268536823F4E063536002680E
:10562000136843F40073136000230363202280F89F
:105630003D2080F83E30FFF7A0FFAFE703685A69CE
:1056400012F0800FAAD000221A61A7E770477047B6
:1056500010B5846B636B0BB10022DA63A36B0BB1E3
:105660000022DA63FEF777FF022800D110BD22681E
:10567000136823F48063136000236385202284F879
:105680003D2084F83E30236C43F010032364204611
:10569000FFF7DDFFEAE738B5846B94F83D30DBB205
:1056A00094F83E20D1B2E56A2068426822F4407244
:1056B0004260626B0AB10020D063A26B0AB1002085
:1056C000D06303F02102212A73D003F02202222AA0
:1056D0003AD094F83E30002B79D0638D9BB2012BE9
:1056E0004FD02268536823F44073536015F5803F10
:1056F00006D0082D04D0B5F12A4F01D0202D04D1B9
:105700002268136843F4007313602268536823F41B
:10571000805353602268536823F40063536000236E
:105720006385236C9BBB202384F83D3094F83E3086
:10573000402B30D0002384F83E30082D33D0202D6C
:1057400031D01223236330E02029C2D121684A6876
:1057500022F400624A60002262852A2B32D1222381
:105760002363282384F83D302046FFF703FF29E018
:1057700021232363282384F83D302046FFF7F9FED8
:1057800020E02268136823F480631360A9E72046B1
:10579000FFF75DFF1BE0002384F83E3023632046C3
:1057A000FFF754FF13E0002323632046FDF7B2FC0C
:1057B0000DE021684A6822F400624A600022628596
:1057C000292BD5D02268536843F44073536038BD09
:1057D0007047000000B583B000230193806B90F800
:1057E0003D20D2B2314B1B68DB083149A1FB0313CA
:1057F0001B0A03EB8303C3EBC3030193019B43B178
:10580000019B013B019303681B6813F4007FF5D1F2
:1058100003E0036C43F020030364436B0BB10021EE
:10582000D963836B0BB10021D96301680B6823F442
:1058300080630B6000234385436B0BB10021196526
:10584000836B0BB10021196501680B6823F001031C
:105850000B6090F83D30602B0DD002F02802282A12
:1058600013D0202380F83D30002380F83E30FFF72E
:10587000EEFE03B000BD202380F83D30002380F809
:105880003E300364FFF7A4FFF3E70268136843F0B8
:10589000010313600268136843F4806313600023FC
:1058A0000363282380F83D30E1E700BF5400002067
:1058B00089B5F81410B5044690F83D30DBB290F885
:1058C0003E20102A36D0D1B2402933D003F028022E
:1058D000282A3CD02268526812F4006F07D1602B4E
:1058E00005D0202384F83D30002384F83E30002387
:1058F000236323685A6812F4006F4CD05A6822F46C
:1059000000625A60636B93F83520012A25D0464A1D
:105910001A65606BFEF71BFD00284DD022681368E6
:1059200023F001031360202384F83D30606B036D86
:10593000984741E0222BC9D12268136823F4006301
:10594000136023685B6813F4006FCAD0CFE70023AD
:105950002363282384F83D30CBE7A36B324A1A65D2
:10596000A06BFEF7F4FC38B323685A6912F0400FBD
:1059700005D01A69636A1A70636A01336362226828
:10598000136823F001031360202384F83D30A06BDB
:10599000036D984710E094F83D20602A1FD05A69A3
:1059A00012F0400F05D01A69636A1A70636A0133F6
:1059B00063622046FFF74BFE236C13F00F0F04D0F9
:1059C0002268536823F4E063536094F83D30DBB2FF
:1059D000226C12F0040F01D0282B18D010BD202209
:1059E00084F83D20002222645A6912F0400F05D04D
:1059F0001A69636A1A70636A013363622268136802
:105A000023F0010313602046FFF7E2FED4E7074BC3
:105A1000E36200232363202284F83D2084F83E3093
:105A20002046FFF7A9FDD9E7D55700080000FFFF82
:105A300070B58EB0044603685868E56A94F83E1065
:105A40005FFA81FC94F83D20D2B2102925D0BCF138
:105A5000400F22D0216C002900F0D0835969002525
:105A600011F0020F00F0E68310F4007F00F0E883ED
:105A7000226C02B19D6994F83D2002F02802282A88
:105A800000F0BF8300220C9259690C919B690C9322
:105A90000C9B84F83C200EB070BD9E69596911F0D2
:105AA000010F1CD1B5F52A0FF5D0B5F12A4FF2D070
:105AB00011F0080F1AD010F4007F00F08981626C99
:105AC000D2B21A61636B002B00F08180DB6B002B7C
:105AD0007DD02268536843F400635360DBE710F421
