:020000040800F2
:1000000000000220C555000811340008193400080A
:1000100021340008293400083134000800000000B1
:10002000000000000000000000000000D9C200082D
:100030003934000800000000C1C5000821C60008CE
:1000400015560008155600081556000815560008E4
:1000500015560008473400085534000815560008A6
:1000600063340008713400087F3400081556000816
:1000700015560008155600081556000815560008B4
:100080001556000815560008155600080000000017
:100090000000000000000000000000008D34000897
:1000A00015560008155600089D340008155600081E
:1000B00015560008B1340008C5340008155600086C
:1000C0001556000815560008155600081556000864
:1000D00015560008155600081556000800000000C7
:1000E00015560008155600081556000800000000B7
:1000F000000000000000000000000000155600088D
:100100000000000015560008155600081556000896
:1001100000000000000000000000000000000000DF
:1001200015560008D9340008155600081556000861
:10013000155600080000000000000000000000004C
:10014000000000000000000000000000155600083C
:1001500015560008155600081556000815560008D3
:1001600015560008155600080000000000000000A9
:10017000000000000000000000000000000000007F
:1001800000000000155600080000000000000000FC
:08019000ED34000815560008CB
:1001A00010B5054C237833B9044B13B10448AFF3B1
:1001B00000800123237010BD2003002000000000F8
:1001C0000C81050808B5034B1BB103490348AFF385
:1001D000008008BD00000000240300200C810508F9
:1001E00010F8012B11F8013B012A28BF9A42F7D0E1
:1001F000D01A70470000000000000000000000005E
:1002000001F0FF01102A2BDB10F0070F08D010F8C7
:10021000013B013A8B422DD010F0070F42B3F6D1CB
:10022000F0B441EA012141EA014122F007047FF0E4
:1002300000070023F0E80256083C85EA010586EA3B
:10024000010685FA47F5A3FA87F586FA47F6A5FA77
:1002500087F68EB9EED1F0BC01F0FF0102F0070283
:1002600032B110F8013B013A83EA010313B1F8D12E
:100270000020704701387047002D06BF354603380F
:10028000073815F0010F07D1013015F4807F02BF48
:10029000013015F4C03F0130F0BC0138704700BF99
:1002A000034613F8012B002AFBD1181A01387047B6
:1002B00081F0004102E000BF83F0004330B54FEA17
:1002C00041044FEA430594EA050F08BF90EA020F84
:1002D0001FBF54EA000C55EA020C7FEA645C7FEA17
:1002E000655C00F0E2804FEA5454D4EB5555B8BF3A
:1002F0006D420CDD2C4480EA020281EA030382EAAB
:10030000000083EA010180EA020281EA0303362D3C
:1003100088BF30BD11F0004F4FEA01314FF4801C0F
:100320004CEA113102D0404261EB410113F0004F21
:100330004FEA03334CEA133302D0524263EB4303D8
:1003400094EA050F00F0A780A4F10104D5F1200E76
:100350000DDB02FA0EFC22FA05F2801841F10001D1
:1003600003FA0EF2801843FA05F359410EE0A5F1A5
:1003700020050EF1200E012A03FA0EFC28BF4CF0D6
:10038000020C43FA05F3C01851EBE37101F000458C
:1003900007D54FF0000EDCF1000C7EEB00006EEB99
:1003A0000101B1F5801F1BD3B1F5001F0CD3490823
:1003B0005FEA30004FEA3C0C04F101044FEA44527A
:1003C00012F5800F80F09A80BCF1004F08BF5FEA01
:1003D000500C50F1000041EB045141EA050130BDE1
:1003E0005FEA4C0C404141EB0101013C28BFB1F5F3
:1003F000801FE9D291F0000F04BF01460020B1FA3E
:1004000081F308BF2033A3F10B03B3F120020CDA10
:100410000C3208DD02F1140CC2F10C0201FA0CF0EE
:1004200021FA02F10CE002F11402D8BFC2F1200C53
:1004300001FA02F120FA0CFCDCBF41EA0C01904009
:10044000E41AA2BF01EB0451294330BD6FEA040452
:100450001F3C1CDA0C340EDC04F11404C4F120023D
:1004600020FA04F001FA02F340EA030021FA04F34F
:1004700045EA030130BDC4F10C04C4F1200220FAA6
:1004800002F001FA04F340EA0300294630BD21FAE4
:1004900004F0294630BD94F0000F83F4801306BFAA
:1004A00081F480110134013D4EE77FEA645C18BF9E
:1004B0007FEA655C29D094EA050F08BF90EA020F35
:1004C00005D054EA000C04BF1946104630BD91EA2D
:1004D000030F1EBF0021002030BD5FEA545C05D130
:1004E0004000494128BF41F0004130BD14F580046F
:1004F0003CBF01F5801130BD01F0004545F0FE41E3
:1005000041F470014FF0000030BD7FEA645C1ABF17
:10051000194610467FEA655C1CBF0B46024650EA4E
:10052000013406BF52EA033591EA030F41F400217A
:1005300030BD00BF90F0000F04BF0021704730B500
:100540004FF4806404F132044FF000054FF00001D5
:1005500050E700BF90F0000F04BF0021704730B596
:100560004FF4806404F1320410F0004548BF40426B
:100570004FF000013EE700BF42004FEAE2014FEAC0
:1005800031014FEA02701FBF12F07F4393F07F4F9B
:1005900081F06051704732F07F4208BF704793F09E
:1005A0007F4F04BF41F40021704730B54FF46074B1
:1005B00001F0004521F000411CE700BF50EA0102B4
:1005C00008BF704730B54FF000050AE050EA01025D
:1005D00008BF704730B511F0004502D5404261EBCD
:1005E00041014FF4806404F132045FEA915C3FF40E
:1005F000D8AE4FF003025FEADC0C18BF03325FEAAB
:10060000DC0C18BF033202EBDC02C2F1200300FA5B
:1006100003FC20FA02F001FA03FE40EA0E0021FA80
:1006200002F11444BDE600BF70B54FF0FF0C4CF46E
:10063000E06C1CEA11541DBF1CEA135594EA0C0F20
:1006400095EA0C0F00F0DEF82C4481EA030621EA5B
:100650004C5123EA4C5350EA013518BF52EA033596
:1006600041F4801143F4801338D0A0FB02CE4FF048
:100670000005E1FB02E506F00042E0FB03E54FF078
:100680000006E1FB03569CF0000F18BF4EF0010E70
:10069000A4F1FF04B6F5007F64F5407404D25FEA6C
:1006A0004E0E6D4146EB060642EAC62141EA55511F
:1006B0004FEAC52040EA5E504FEACE2EB4F1FD0C61
:1006C00088BFBCF5E06F1ED8BEF1004F08BF5FEADF
:1006D000500E50F1000041EB045170BD06F0004691
:1006E00046EA010140EA020081EA0301B4EB5C043E
:1006F000C2BFD4EB0C0541EA045170BD41F4801136
:100700004FF0000E013C00F3AB8014F1360FDEBF5A
:10071000002001F0004170BDC4F10004203C35DA36
:100720000C341BDC04F11404C4F1200500FA05F3B9
:1007300020FA04F001FA05F240EA020001F000425A
:1007400021F0004110EBD37021FA04F642EB0601D0
:100750005EEA430E08BF20EAD37070BDC4F10C04FA
:10076000C4F1200500FA04F320FA05F001FA04F2BE
:1007700040EA020001F0004110EBD37041F10001AA
:100780005EEA430E08BF20EAD37070BDC4F12005B5
:1007900000FA05F24EEA020E20FA04F301FA05F21D
:1007A00043EA020321FA04F001F0004121FA04F2C5
:1007B00020EA020000EBD3705EEA430E08BF20EA95
:1007C000D37070BD94F0000F0FD101F000464000CF
:1007D00041EB010111F4801F08BF013CF7D041EA51
:1007E000060195F0000F18BF704703F00046520055
:1007F00043EB030313F4801F08BF013DF7D043EA26
:100800000603704794EA0C0F0CEA135518BF95EADB
:100810000C0F0CD050EA410618BF52EA4306D1D162
:1008200081EA030101F000414FF0000070BD50EA81
:10083000410606BF1046194652EA430619D094EA0B
:100840000C0F02D150EA013613D195EA0C0F05D1F5
:1008500052EA03361CBF104619460AD181EA030149
:1008600001F0004141F0FE4141F470014FF0000001
:1008700070BD41F0FE4141F4780170BD70B54FF09C
:10088000FF0C4CF4E06C1CEA11541DBF1CEA13551C
:1008900094EA0C0F95EA0C0F00F0A7F8A4EB0504FE
:1008A00081EA030E52EA03354FEA013100F08880F5
:1008B0004FEA03334FF0805545EA131343EA1263BE
:1008C0004FEA022245EA111545EA10654FEA002673
:1008D0000EF000419D4208BF964244F1FD0404F52C
:1008E000407402D25B084FEA3202B61A65EB030588
:1008F0005B084FEA32024FF480104FF4002CB6EB45
:10090000020E75EB030E22BFB61A754640EA0C00C4
:100910005B084FEA3202B6EB020E75EB030E22BF04
:10092000B61A754640EA5C005B084FEA3202B6EB45
:10093000020E75EB030E22BFB61A754640EA9C0004
:100940005B084FEA3202B6EB020E75EB030E22BFD4
:10095000B61A754640EADC0055EA060E18D04FEA92
:10096000051545EA16754FEA06164FEAC30343EA32
:1009700052734FEAC2025FEA1C1CC0D111F4801FFF
:100980000BD141EA00014FF000004FF0004CB6E7F8
:1009900011F4801F04BF01430020B4F1FD0C88BF97
:1009A000BCF5E06F3FF6AFAEB5EB030C04BFB6EBA2
:1009B000020C5FEA500C50F1000041EB045170BD95
:1009C0000EF0004E4EEA113114EB5C04C2BFD4EBC2
:1009D0000C0541EA045170BD41F480114FF0000E46
:1009E000013C90E645EA060E8DE60CEA135594EAC2
:1009F0000C0F08BF95EA0C0F3FF43BAF94EA0C0FC5
:100A00000AD150EA01347FF434AF95EA0C0F7FF439
:100A100025AF104619462CE795EA0C0F06D152EA8D
:100A200003353FF4FDAE1046194622E750EA410671
:100A300018BF52EA43067FF4C5AE50EA41047FF482
:100A40000DAF52EA43057FF4EBAE12E74FF0FF3CE7
:100A500006E000BF4FF0010C02E000BF4FF0010CB8
:100A60004DF804CD4FEA410C7FEA6C5C4FEA430C31
:100A700018BF7FEA6C5C1BD001B050EA410C0CBF80
:100A800052EA430C91EA030F02BF90EA020F0020E2
:100A9000704710F1000F91EA030F58BF994208BF49
:100AA00090422CBFD8176FEAE37040F00100704706
:100AB0004FEA410C7FEA6C5C02D150EA013C07D15D
:100AC0004FEA430C7FEA6C5CD6D152EA033CD3D0A8
:100AD0005DF8040B704700BF8446104662468C46A2
:100AE0001946634600E000BF01B5FFF7B7FF0028D5
:100AF00048BF10F1000F01BD4DF808EDFFF7F4FFFE
:100B00000CBF012000205DF808FB00BF4DF808ED88
:100B1000FFF7EAFF34BF012000205DF808FB00BFAB
:100B20004DF808EDFFF7E0FF94BF012000205DF8CD
:100B300008FB00BF4DF808EDFFF7CEFF94BF012082
:100B400000205DF808FB00BF4DF808EDFFF7C4FF7B
:100B500034BF012000205DF808FB00BF4FEA410CC4
:100B60007FEA6C5C02D150EA013C0AD14FEA430CA7
:100B70007FEA6C5C02D152EA033C02D14FF00000E4
:100B800070474FF0010070474FEA410212F5001222
:100B900015D211D56FF47873B3EB625212D94FEAC4
:100BA000C12343F0004343EA505311F0004F23FAAE
:100BB00002F018BF404270474FF00000704750EA03
:100BC000013005D111F0004008BF6FF000407047C0
:100BD0004FF00000704700BF4A0011D212F500121A
:100BE00011D20DD56FF47873B3EB62520ED44FEA85
:100BF000C12343F0004343EA505323FA02F0704705
:100C00004FF00000704750EA013002D14FF0FF3042
:100C100070474FF0000070474FEA4102B2F1E043E5
:100C200024BFB3F5001CDCF1FE5C0DD901F0004CD3
:100C30004FEAC0024CEA5070B2F1004F40EB830023
:100C400008BF20F00100704711F0804F21D113F14F
:100C50003872BCBF01F00040704741F480114FEA88
:100C60005252C2F11802C2F1200C10FA0CF320FA11
:100C700002F018BF40F001004FEAC1234FEAD3232E
:100C800003FA0CFC40EA0C0023FA02F34FEA430398
:100C9000CCE77FEA625307D150EA01331EBF4FF021
:100CA000FE4040F44000704701F0004040F0FE403C
:100CB00040F40000704700BF53B94AB9002908BF8B
:100CC00000281CBF4FF0FF314FF0FF3000F0BEB9DD
:100CD000ADF1080C6DE904CE00F03CF8DDF804E05D
:100CE000DDE9022304B0704738B500220023044632
:100CF0000D46FFF70BFF28B920462946BDE83840CE
:100D000000F00AB8204605F1004100F005F8404225
:100D100061EB410138BD00BFD0B50C4B0022064647
:100D20000F46FFF781FCFFF757FF0446FFF702FC71
:100D3000074B0022FFF778FC02460B463046394647
:100D4000FFF7BAFAFFF748FF2146D0BD0000F03D9B
:100D50000000F0412DE9F047089D0F4604468C46FF
:100D6000002B48D18A42164661D9B2FA82F34BB1C0
:100D7000C3F1200201FA03FC20FA02F29E4042EA8B
:100D80000C0C9C404FEA164EB7B2BCFBFEF1220C95
:100D90000EFB11CC42EA0C4201FB07F0904209D94C
:100DA000B21801F1FF3C80F0EE80904240F2EB80FF
:100DB00002393244121AA4B2B2FBFEF00EFB10222A
:100DC00044EA024400FB07F7A74209D9341900F1AD
:100DD000FF3280F0DA80A74240F2D78034440238F4
:100DE00040EA0140E41B00211DB1DC400023C5E9BD
:100DF0000043BDE8F0878B4206D90DB1C5E900017B
:100E000000210846BDE8F087B3FA83F1002948D1F4
:100E1000BB4202D3824200F20781841A67EB0302CD
:100E200001209446002DE4D0C5E9004CE1E7002AFA
:100E300000F09280B2FA82F3002B40F0A8808A1A68
:100E40004FEA164E1FFA86FC0121200CB2FBFEF77A
:100E50000EFB172240EA02420CFB07F0904207D932
:100E6000B21807F1FF3802D2904200F2E280474602
:100E7000121AA4B2B2FBFEF00EFB102244EA0244A6
:100E80000CFB00FCA44507D9341900F1FF3202D253
:100E9000A44500F2CB801046A4EB0C0440EA0740C6
:100EA000A2E7C1F120068B4022FA06FC4CEA030CB3
:100EB00007FA01F420FA06F3F7404FEA1C492343EE
:100EC00000FA01F81FFA8CFEB7FBF9F01C0C09FBC5
:100ED000107744EA074400FB0EF7A74202FA01F23A
:100EE0000AD91CEB040400F1FF3A80F09B80A74272
:100EF00040F2988002386444E41B9FB2B4FBF9F3DB
:100F000009FB134447EA044403FB0EFEA64509D936
:100F10001CEB040403F1FF3780F08280A6457FD9E3
:100F2000023B644443EA0040A4EB0E04A0FB02E74A
:100F3000BC427346B94663D360D05DB1B8EB0302DF
:100F400064EB090404FA06F622FA01F31E43CC40CE
:100F5000C5E9006400214CE76208480842EAC17113
:100F60000B0C43EA00438AB242EA0342B3FBF6F1B8
:100F7000E407B4463746B6461F23B0FBF6F0D21B53
:100F800041EA004161E7614614E7104628E7C3F1F2
:100F9000200120FA01F29E4027FA01F19F403A43D6
:100FA0004FEA164E1FFA86FCB1FBFEF70EFB171038
:100FB000110C41EA004107FB0CF8884504FA03F4E0
:100FC0003AD9711807F1FF3001D288451FD8A1EB3B
:100FD0000801B1FBFEF808FB0CF70EFB181192B2EA
:100FE00042EA0142BA422FD2B21808F1FF31C6D20A
:100FF000BA42C4D2A8F102013244C0E7F0459CD203
:10100000BEEB020367EB0C070138B94695E7A6EB88
:1010100008084144B81EB1FBFEF808FB0CF7DCE7FA
:101020003B467FE7504667E70846FBE63444023814
:1010300032E7023F32441BE7A1EB08013846B1FB1F
:10104000FEF808FB0CF7C8E7414698E7704700BF79
:1010500080B582B000AF66233B7199237B7100227B
:1010600001210A4805F09AFB391D64230222084831
:1010700007F07BFA01220121044805F08FFB642070
:1010800004F03EFD00BF0837BD4680BD00040240AD
:101090009003002080B582B000AF9F23FB71002237
:1010A00001210F4805F07AFBF91D642301220D4848
:1010B00007F05BFA391D642303220A4807F099FB05
:1010C00001220121064805F069FB3B791A047B796E
:1010D0001B021343BA79134318460837BD4680BD37
:1010E000000402409003002080B588B000AFF86093
:1010F0007A603B600B46FB72FB681A02FB7A134472
:10110000FB610B233B75FB691B0CDBB27B75FB6939
:101110001B0ADBB2BB75FB69DBB2FB7500233B76B8
:10112000002201210C4805F039FB07F1140164236A
:1011300005220A4807F019FA7B689AB264233968D5
:10114000064807F056FB01220121034805F026FB63
:1011500000BF2037BD4680BD000402409003002040
:1011600080B582B000AF0623FB710022012109483F
:1011700005F014FBF91D64230122074807F0F5F977
:1011800001220121034805F009FB00BF0837BD46D5
:1011900080BD00BF000402409003002080B582B0F3
:1011A00000AF0423FB7100220121094805F0F6FA83
:1011B000F91D64230122074807F0D7F90122012114
:1011C000034805F0EBFA00BF0837BD4680BD00BFFD
:1011D000000402409003002080B586B000AF0346B3
:1011E000FB80FB881B037B61FFF7BAFF20233B7367
:1011F0007B691B0CDBB27B737B691B0ADBB2BB73A5
:101200007B69DBB2FB73002201210C4805F0C6FAB2
:1012100007F10C0164230422094807F0A6F9012212
:101220000121064805F0BAFA4FF4E17004F068FCB9
:10123000FFF7B4FF00BF1837BD4680BD0004024071
:101240009003002080B483B000AF78600B467B80B1
:101250007A887B681344FF2B01D87B6802E07B8887
:10126000C3F5807318460C37BD465DF8047B7047A4
:1012700090B5D3B000AF07F5A474A4F59E742060B8
:10128000084607F5A471A1F5A2710A6007F5A472DA
:10129000A2F5A472136007F5A473A3F59F73024629
:1012A0001A8007F5A473A3F59E731B68C7F8443131
:1012B00007F5A473A3F59F731A8807F5A473A3F524
:1012C000A2731B681344013B1B0AD7F84421134443
:1012D000C7F82C31D7F82C21D7F84431D31A013371
:1012E000C7F82831D7F844311B09A7F84231D7F89D
:1012F0002C311B09A7F82631B7F82621B7F842315F
:10130000D31A9BB20133A7F824310023A7F8403148
:101310000CE0B7F842315A1CA7F842211846FFF7F3
:101320005BFFB7F840310133A7F84031B7F84021EF
:10133000B7F824319A42ECD30023C7F83C3100239C
:10134000C7F83831CBE0D7F844311A0207F5A47357
:10135000A3F59F731B881344C7F8203107F5A473C6
:10136000A3F59F731A8807F5A473A3F5A27311461A
:101370001868FFF767FF0346A7F81E310023C7F878
:101380003431FFF7EDFE07F5A473A3F59C73022239
:101390001A70D7F820311B0CDAB207F5A473A3F545
:1013A0009C735A70D7F820311B0ADAB207F5A47380
:1013B000A3F59C739A70D7F82031DAB207F5A473BD
:1013C000A3F59C73DA700423C7F83431D7F83431AD
:1013D0009AB2B7F81E311344A7F81C310023A7F8BE
:1013E00032311AE0B7F83221D7F83C31134407F50F
:1013F000A472A2F5A47212681A44D7F83431591CA9
:10140000C7F83411117807F5A472A2F59C72D15473
:10141000B7F832310133A7F83231B7F83221B7F8D3
:101420001E319A42DED3B7F81C31C82B1CD90022DA
:101430000121314805F0B2F907F11001642364225B
:101440002E4807F092F807F110016431B7F81C310B
:10145000643B9AB26423294807F087F801220121EE
:10146000254805F09BF911E000220121224805F0F2
:1014700095F9B7F81C2107F1100164231F4807F004
:1014800074F8012201211C4805F088F9D7F844318D
:101490000133C7F8443107F5A473A3F59F73002205
:1014A0001A80B7F81E2107F5A473A3F5A27307F5F8
:1014B000A471A1F5A27109688A1A1A60B7F81E31E1
:1014C000D7F83C211344C7F83C31052004F018FB41
:1014D000FFF764FED7F838310133C7F83831D7F851
:1014E0003821D7F828319A42FFF42DAF00BF00BF52
:1014F00007F5A677BD4690BD00040240900300208A
:1015000090B482B000AF0446084611462246FA71F4
:101510000246BA710A467A71BA795209D2B202F019
:101520000702D4B2FA79D208D2B202F01F02D0B2C6
:101530007A79D208D2B202F01F02D1B2BA799208F7
:10154000D2B202F00702D2B264F3020360F3C7031F
:1015500061F30C2362F34F3318460837BD4690BC45
:101560007047000080B400AF084B1B689AB2084B6C
:101570001A80084B1B689AB2054B5A80044B064AE6
:101580005A6000BFBD465DF8047B70470C00002028
:1015900054370020080000205C37002080B485B05C
:1015A00000AF78600023FB600CE0FB685B007A68AA
:1015B0001344B3F900100C4AFB6822F81310FB68BF
:1015C0000133FB60094B1B68094A126802FB03F3F5
:1015D0001A46FB689342E8D300BF00BF1437BD46EC
:1015E0005DF8047B704700BF5C37002008000020D6
:1015F0000C00002090B587B000AF354B1B68013B55
:101600001B057B60334B1B68013B1B053B600023C4
:101610007B6152E07B691B0503F500232D4A1268AC
:1016200003FB02F22C4B1B6892FBF3F3A3F50023A0
:101630003B613B69002B01DA00233B613A693B685F
:101640009A4201DD3B683B610023FB602DE0FB68B3
:101650001B0503F500231E4A126803FB02F21F4B11
:101660001B6892FBF3F3A3F50023BB60BB68002B60
:1016700001DA0023BB60BA687B689A4201DD7B68AF
:10168000BB60164B1B687A6903FB02F2FB68D41837
:101690003A69B968124803F0BEFF03461A46114B77
:1016A00023F81420FB680133FB600C4B1B68FA68BD
:1016B0009A42CCDB7B6901337B61074B1B687A69FB
:1016C0009A42A7DB00BF00BF1C37BD4690BD00BFDC
:1016D000080000200C000020140000201000002052
:1016E00054370020DC37002080B586B000AF78602A
:1016F00039607B68002B01DA00237B607B681E4A1F
:1017000082FB03129210DB17D31A7B617B691D2BBE
:1017100001DD1D237B610023FB740023BB740023C8
:101720007B7416497A6913465B0013440B441B789B
:10173000FB7412497A6913465B0013440B4401336E
:101740001B78BB740D497A6913465B0013440B4444
:1017500002331B787B747A7CB97CFB7C1846FFF7DC
:10176000CFFE0346BB8106493B68BA8921F81320A6
:1017700000BF1837BD4680BD676666665888050895
:101780008C250020B0B5A0B002AFF860B9607A60D7
:10179000404B5B69002B79D0BB68002B01D108233B
:1017A00000E00423BB66BB6EFA6802FB03F37B66B2
:1017B0007B6E03FB03F33B6691227B6E92FBF3F39C
:1017C000FB6500237B6714E07B6F5B007A68134442
:1017D000B3F90030304A82FB03129210DB17D31AA0
:1017E0001BB2FB64796FF86CFFF77EFF7B6F0133F0
:1017F0007B677A6F3B6E9A42E6DB07F1140318466B
:101800001DF0E2FD0023BB820023BB8600233B6763
:1018100037E00023FB662DE03B6F7A6E02FB03F39B
:10182000FA6E1344BB657B6E5A1EFB6ED21AFB6DBB
:1018300002FB03F37B653B6FFA6D02FB03F33B6531
:10184000164ABB6D32F813303B83124B58697B6DDF
:1018500019B23B6D1CB2FB6D1DB2FB6D1BB207F1E3
:101860001402019200932B46224646F013F8FB6EB9
:101870000133FB66FA6E7B6E9A42CDDB3B6F013320
:101880003B673A6F7B6E9A42C3DB00E000BF78375C
:10189000BD46B0BD48F50120676666668C25002010
:1018A00080B584B000AF78607B681B016433BB6097
:1018B000B8681F4B40F204420021FFF715FC0A20D4
:1018C00004F01EF9BB68043318461A4B4FF48062CB
:1018D0000421FFF709FC164B93F802341A46164B05
:1018E0001A60134B93F803341A46144B1A60002302
:1018F000FB6014E00E4AFB6813441B781BB21B020A
:101900001AB20C49FB680B441B781BB2134319B283
:101910000B4AFB6822F81310FB680133FB60FB687D
:10192000B3F5806FE6DB00BF00BF1037BD4680BD5A
:10193000800D0020881100209C2D0020982D002073
:10194000A82D002080B584B000AF786039607B6836
:101950001B016433BB600023FB6019E01A4AFB687B
:1019600032F913309BB21B0A9BB2D9B2174AFB68FB
:1019700013440A461A70144AFB6832F91320FB68B4
:1019800003F20443D1B2114AD154FB680133FB6026
:10199000FA683B689A42E1DB0D4B1B68DAB20B4BED
:1019A00083F802240B4B1B68DAB2084B83F803243C
:1019B000B868064B40F604020021FFF759FC00BF4F
:1019C0001037BD4680BD00BFDC3700207C050020FD
:1019D0008C2D00200400002090B58BB002AFF86081
:1019E000B9607A60BB68B3F90030FB83BB68B3F9B8
:1019F0000230BB83BB68B3F904309AB2BB68B3F959
:101A000000309BB2D31A9BB201337B83BB68B3F91E
:101A100006309AB2BB68B3F902309BB2D31A9BB2BC
:101A200001333B837B687B613C8B7A8BB98BF88B72
:101A30007B690093234601F038FA00BF2437BD4686
:101A400090BD000080B584B002AF0023FB7104F0AC
:101A500015F800F0CBF800F0FFFA00F0DDFA00F026
:101A60005BF900F02BF900F03BFA00F08BF900F085
:101A700085FA00F0BFF9032004F037F901F078F996
:101A8000002001F001FA0DF017F8A02300224149CF
:101A9000414839F015FB414839F0D0FA3F4BA022BC
:101AA0001A803E4B80225A803C4B3D4A5A613B4B48
:101AB000394ADA60394839F01FFB51F097FFFFF7D8
:101AC000C7FAFFF7E7FA0346364A136000F0CEFB89
:101AD000354B5B69002B08D0334B586904230093C6
:101AE00069239122314945F085FE2F4B9B69002BDC
:101AF00005D02D4B9B692E49184649F04FFA2A4BC9
:101B0000DB69002B05D0284BDB692A49184649F0D0
:101B100045FA294B012200210020FFF7E5FA264B68
:101B20001B781A46254B1A60254B01221A600220A9
:101B300051F03AFF3EF056FE224B019301230093F1
:101B400000234FF480622049204808F053FF0346E9
:101B5000FB711F4B019302230093002382221D4936
:101B60001D4808F047FF0346FB711C4B01930323FC
:101B7000009300234FF4806219491A4808F03AFF95
:101B80000346FB71184802F0F3FD09F01DF900BF90
:101B9000FDE700BF14360020F8350020A8350020EE
:101BA000D91900087805002048F50120EC3F0020F5
:101BB00018000020240000208A150020942D002009
:101BC000902D0020E03F00202881050841230008D7
:101BD000E83F00203081050835240008E43F00205C
:101BE00038810508D12300088C15002080B594B0F9
:101BF00000AF07F1200330220021184652F06DFF9C
:101C000007F10C0300221A605A609A60DA601A61C8
:101C10000023BB60274B1B6C264A43F080531364A0
:101C2000244B1B6C03F08053BB60BB6800237B60BC
:101C3000214B1B68204A43F4404313601E4B1B6832
:101C400003F440437B607B6802233B620123FB6219
:101C500010233B630223BB630023FB6308233B6425
:101C600064237B640223BB640423FB6407F1200329
:101C7000184605F069FF0346002B01D000F08CFEEA
:101C80000F23FB6002233B6100237B614FF48053F1
:101C9000BB610023FB6107F10C030321184606F02A
:101CA000CBF90346002B01D000F076FE00BF503781
:101CB000BD4680BD003802400070004080B500AFD6
:101CC000124B134A1A60114B124A5A600F4B0022F2
:101CD0009A600E4B0022DA600C4B4FF480421A617E
:101CE0000A4B00225A61094B00229A61074B0022DD
:101CF000DA61064B00221A62044804F09BFD034699
:101D0000002B01D000F048FE00BF80BD3C03002046
:101D100000580040801A060080B500AF174B184AE3
:101D20001A60164B4FF482725A60144B00229A606C
:101D3000124B0022DA60114B00221A610F4B002275
:101D40005A610E4B4FF400729A610C4B2022DA61FB
:101D50000A4B00221A62094B00225A62074B0022EA
:101D60009A62064B0A22DA62044806F075FB0346C3
:101D7000002B01D000F010FE00BF80BD90030020BA
:101D80000030014080B500AF184B194A1A60174B5C
:101D90004FF482725A60154B4FF400429A60134B15
:101DA0000022DA60114B00221A61104B00225A61A6
:101DB0000E4B4FF400729A610C4B0022DA610B4B10
:101DC00000221A62094B00225A62084B00229A62D2
:101DD000064B0A22DA62054806F03EFB0346002B5A
:101DE00001D000F0D9FD00BF80BD00BFE803002096
:101DF0000034014080B58EB000AF07F12803002207
:101E00001A605A609A60DA6007F1200300221A60B3
:101E10005A603B1D00221A605A609A60DA601A61AB
:101E20005A619A612D4B4FF080421A602B4B002271
:101E30005A602A4B00229A60284B4FF0FF32DA603A
:101E4000264B00221A61254B00229A61234807F095
:101E500031FB0346002B01D000F09EFD4FF4805370
:101E6000BB6207F1280319461C4807F0E1FD034651
:101E7000002B01D000F090FD184807F0CDFB034681
:101E8000002B01D000F088FD00233B6200237B6221
:101E900007F120031946114808F066F90346002BA4
:101EA00001D000F079FD60237B600023BB6000233C
:101EB000FB6000237B613B1D00221946074807F0A9
:101EC000F5FC0346002B01D000F066FD034801F04D
:101ED000F5F900BF3837BD4680BD00BFA004002023
:101EE00080B586B000AF07F1080300221A605A607F
:101EF0009A60DA603B4600221A605A601D4B1E4A07
:101F00001A601C4B41F287325A601A4B00229A60C9
:101F1000184B6322DA60174B00221A61154B00221E
:101F20009A61144807F0C6FA0346002B01D000F06E
:101F300033FD4FF48053BB6007F1080319460D4889
:101F400007F076FD0346002B01D000F025FD0023AD
:101F50003B6000237B603B461946064808F004F9C5
:101F60000346002B01D000F017FD00BF1837BD4617
:101F700080BD00BFE80400200004004080B586B0AA
:101F800000AF07F1080300221A605A609A60DA6015
:101F90003B4600221A605A601D4B1E4A1A601C4BB9
:101FA00031225A601A4B00229A60194B46F677127A
:101FB000DA60174B00221A61154B00229A6114480F
:101FC00007F078FA0346002B01D000F0E5FC4FF44F
:101FD0008053BB6007F1080319460D4807F028FD40
:101FE0000346002B01D000F0D7FC00233B60002308
:101FF0007B603B461946064808F0B6F80346002BBE
:1020000001D000F0C9FC00BF1837BD4680BD00BF3D
:10201000300500200008004080B582B000AF0023EA
:102020007B600C4B1B6B0B4A43F480031363094B1F
:102030001B6B03F480037B607B6800220621392040
:1020400003F05EFE392003F077FE00BF0837BD467F
:1020500080BD00BF0038024080B58AB000AF07F1F4
:10206000140300221A605A609A60DA601A61002331
:102070003B617A4B1B6B794A43F004031363774B44
:102080001B6B03F004033B613B690023FB60734B54
:102090001B6B724A43F080031363704B1B6B03F09E
:1020A0008003FB60FB680023BB606C4B1B6B6B4ABF
:1020B00043F001031363694B1B6B03F00103BB6027
:1020C000BB6800237B60654B1B6B644A43F00203D3
:1020D0001363624B1B6B03F002037B607B6800227F
:1020E0004FF400515E4804F059FB002240F2871182
:1020F0005C4804F053FB00224FF4B8515A4804F0F6
:102100004DFB4FF400537B610123BB610023FB6156
:1021100000233B6207F114031946514804F0BAF951
:102120000D237B614FF40413BB610223FB6107F1B4
:10213000140319464C4804F0ADF910237B614FF4A9
:102140008813BB610223FB6107F11403194646485B
:1021500004F0A0F901237B610123BB610123FB6132
:1021600003233B6207F1140319463E4804F092F939
:102170004FF4C3737B610123BB610023FB61002328
:102180003B6207F114031946364804F083F94FF413
:10219000A0637B610123BB610223FB6100233B62DF
:1021A00007F114031946304804F074F94FF4007332
:1021B0007B610123BB610023FB6102233B6207F1CA
:1021C00014031946284804F065F94FF480537B61E5
:1021D0000123BB610223FB6103233B6207F114036C
:1021E0001946214804F056F940237B614FF404134B
:1021F000BB610023FB6107F114031946194804F081
:1022000049F900220721062003F07AFD062003F099
:1022100093FD00220821082003F072FD082003F03E
:102220008BFD00220821092003F06AFD092003F03C
:1022300083FD002208210A2003F062FD0A2003F03A
:102240007BFD00220821172003F05AFD172003F020
:1022500073FD00BF2837BD4680BD00BF0038024077
:1022600000080240000402400000024080B500AFB8
:1022700000224FF480712D4804F090FA642003F09E
:102280003FFC01224FF48071284804F087FA0122B4
:102290008021264804F082FA642003F031FC0022F9
:1022A0008021224804F07AFA214B52221A802149D7
:1022B0001F4801F0A7FD03461A461F4B1A701C4821
:1022C00001F0EAFD03461A461B4B1A70012118481B
:1022D00002F0CCFF03461A46174B1A70174B1B68C7
:1022E000002B10D14021124802F0CBFE03461A46C3
:1022F000114B1A700F210E4802F097FF03461A4641
:102300000D4B1A700FE01021094802F0BAFE034687
:102310001A46094B1A703C21054802F086FF034615
:102320001A46054B1A7000BF80BD00BF0004024072
:102330008C15002089150020881500208C2D002088
:1023400080B500AF3EF04EFA51F05AFB174B1B78A8
:10235000DBB2002B25D0154B00221A70144B1B78D2
:10236000DBB2002B08D0134B1B68134A1168134AC9
:102370001846FFF707FA14E0114B1B68012B08D031
:102380000F4B1B680F4A11680F4A1846FFF7FAF9FE
:1023900007E00B4B1B680B4A11680C4A1846FFF705
:1023A000F1F9322008F086FCCCE700BFDC3F0020CA
:1023B000DE3F0020982D00209C2D0020A82D00201D
:1023C000040000208C2D0020DC3700200024002099
:1023D00080B500AF4FF0FF320121002009F076FAFE
:1023E0000D490E4802F00EFC4FF400510C4804F069
:1023F000EEF90C4B1B68012B06D00B48FFF7CEF80B
:10240000FFF7B0F8FFF7F6F8084B00221A70084BF8
:1024100001221A70DEE700BF3C2000208C1500204E
:10242000000802400400002000240020DE3F0020BD
:10243000DC3F002080B582B000AF4FF0FF320121B9
:10244000002009F043FA994B1B68002B6FD1984B81
:102450001B68002B4AD1974802F004FB964B1B687F
:10246000012B0DD1944B02221A60944B944A92E8AE
:10247000030018600433198002330A0C1A701EE03E
:102480008D4B1B68022B0DD18B4B04221A608B4B9A
:102490008C4A92E8030018600433198002330A0C56
:1024A0001A700CE0844B01221A60844B864A92E831
:1024B000030018600433198002330A0C1A70834B2E
:1024C0001B687D4A126802FB03F3814A1360814B4B
:1024D0001B68794A126802FB03F37F4A13607F4B43
:1024E00001221A70734802F043F919E07C4B1A6814
:1024F0007C4B1B689A4205DA794B1B680133784A9A
:10250000136002E0764B00221A60754B1B68184678
:10251000FFF7C6F9744B01221A70744B01221A702E
:10252000172003F009FC062003F006FC53E15F4B83
:102530001B68032B66D15E4B1B68002B42D15D48A4
:1025400002F090FA6A4B1B68002B12D1684B0122F3
:102550001A601021574802F094FD5C4B04221A6067
:102560005C4B04221A60634B634A07CA03C31A8098
:1025700011E05F4B00221A6040214E4802F081FDBD
:10258000524B08221A60534B08221A60594B5B4A7F
:1025900007CA03C31A804D4B1B68474A126802FBE7
:1025A00003F34B4A13604B4B1B68434A126802FB10
:1025B00003F3494A1360494B01221A703D4802F067
:1025C000D7F818E0464B1B68002B05DD444B1B6811
:1025D000013B434A136003E0424B1B68404A1360CF
:1025E0003F4B1B681846FFF75BF93F4B01221A70FF
:1025F0003E4B01221A70092003F09EFB172003F0C6
:102600009BFBE8E0294B1B68022B40F0B580284B70
:102610001B68002B25D10A2003F09CFB172003F038
:1026200099FB374B00221A60214B01221A60354B6F
:10263000354A92E80300186004331970334B344A6A
:1026400092E80300186004331980324B324A07CAFB
:1026500003C31A70214B01221A70164802F002FAC5
:1026600086E0134B00221A60254B01221A60204B92
:102670001B68002B05D11F4B204A07CA03C31A80D1
:1026800004E01C4B1C4A07CA03C31A800A4B1B6890
:10269000012B43D1094B0C4A92E803001860043324
:1026A000198002330A0C1A7051E000BF00000020AC
:1026B000A42D00208C1500200400002048000020DC
:1026C0004081050848810508508105080800002060
:1026D000100000200C00002014000020DD3F00202E
:1026E000A02D0020942D0020DE3F0020DC3F0020A4
:1026F0008C2D00203C0000205881050864810508CD
:10270000902D002018000020708105082400002072
:10271000788105083000002080810508304B1B6857
:10272000022B0AD12F4B304A92E803001860043381
:10273000198002330A0C1A7009E02A4B2A4A92E8DF
:10274000030018600433198002330A0C1A70274BF7
:10275000274A07CA03C31A80264B01221A7026484B
:1027600002F006F80A2003F0E7FA172003F0E4FA73
:10277000082003F0E1FA2EE0204B1B68042B2AD13D
:102780001F4B1B68DBB2FB71FB1D012200210020E7
:10279000FEF76EFD1A4B1B684FF480611846FFF779
:1027A000D1F8174B1B68174A1360154B1B68092B90
:1027B00005DC134B1B680133114A136002E0104B18
:1027C00000221A600C4801F0D3FF0A2003F0B4FA8B
:1027D000172003F0B1FA094B64221A602DE600BFFE
:1027E000040000204800002050810508300000202F
:1027F0008C810508DD3F00208C15002000000020A2
:10280000942D0020A02D002080B584B000AF034699
:10281000FB800023FB60FB88402B08D1294B1B6801
:1028200007F10C020021184609F0D2F83AE0FB88C3
:10283000012B09D1062003F08DFA172003F08AFA44
:10284000214B00221A6025E0FB88082B09D10920C2
:1028500003F080FA172003F07DFA1B4B03221A6065
:1028600018E0FB88102B0CD1172003F073FA0A2014
:1028700003F070FA154802F0F5F8134B04221A60C1
:1028800008E0FB88042B05D1082003F063FA0E4B07
:1028900002221A600E4B1B6807F10C020021184639
:1028A00009F096F8FB68002B07D00A4B4FF08052D6
:1028B0001A60BFF34F8FBFF36F8F00BF1037BD4655
:1028C00080BD00BFE43F0020000000208C150020E8
:1028D000E83F002004ED00E080B400AF024B184652
:1028E000BD465DF8047B70479881050880B400AF51
:1028F000024B1846BD465DF8047B70471800002067
:1029000080B400AF024B1846BD465DF8047B7047AB
:102910002400002080B400AF024B1846BD465DF88D
:10292000047B70473C00002080B400AF024B184687
:10293000BD465DF8047B70474800002080B582B03A
:1029400000AF78607B681B68074A934204D07B68BD
:102950001B68064A934202D1054838F035FD00BF96
:102960000837BD4680BD00BF003401400030014043
:10297000A835002080B582B000AF78607B681B6806
:10298000044A934201D103F09BF800BF0837BD46CB
:1029900080BD00BF0048014080B400AF72B600BFE8
:1029A00000BFFDE780B588B002AFF8600B467A60E3
:1029B0007B810023FB757B891B0A9BB2DBB23B75D5
:1029C0007B89DBB27B75FB68198807F114026423ED
:1029D000009302230C4804F071F80346FB75FB6872
:1029E000198807F11002642300930123064804F0BC
:1029F00063F90346FB753A7C7B681A70FB7D1846C9
:102A00001837BD4680BD00BF3C03002080B586B0AE
:102A100002AF78600B467B8013467B700023FB730C
:102A20007B881B0A9BB2DBB23B737B88DBB27B7378
:102A30007B78BB737B68198807F10C0264230093D1
:102A40000323054804F03AF80346FB73FB7B184662
:102A50001037BD4680BD00BF3C03002080B58AB062
:102A600004AFF8607A603B600B467B81FB68198895
:102A70003B689BB27A894FF6FF70029001937B68A6
:102A800000931023044804F049FB0346FB75FB7DCB
:102A900018461837BD4680BD3C03002080B588B07D
:102AA00002AFF8607A603B600B467B817B891B0A32
:102AB0009BB2DBB23B757B89DBB27B75FB68198807
:102AC00007F11402642300930223094803F0F6FF80
:102AD000FB6819883B689BB24FF47A7200927A685F
:102AE000034804F0E9F8FB7D18461837BD4680BD61
:102AF0003C03002080B485B000AF78600B467B803B
:102B00000023FB6021E07A68FB6813441B781A06F7
:102B1000FB68013379680B441B781B041A43FB687C
:102B2000023379680B441B781B021343FA680332A3
:102B300079680A4412781343BB607A68FB681344CF
:102B4000BA681A60FB680433FB607B88FA689A42B3
:102B5000D9D300BF00BF1437BD465DF8047B704772
:102B600080B582B000AF78603960386802F0C8FF85
:102B7000002318460837BD4680BD000080B500AF71
:102B800000220221024803F009FE00BF80BD00BF01
:102B90000004024080B500AF01220221024803F088
:102BA000FDFD00BF80BD00BF0004024080B500AF46
:102BB00000220421064803F0F1FD052002F0A0FFE9
:102BC00001220421024803F0E9FD00BF80BD00BFDF
:102BD0000004024080B582B000AF0346FB710022C2
:102BE0004FF40071064803F0D9FDF91D4FF0FF3393
:102BF0000122044805F0B9FC00BF0837BD4680BD7E
:102C000000000240E803002080B582B000AF786089
:102C1000396001224FF40071074803F0BFFD3B68A3
:102C20009AB24FF0FF337968044805F09EFC00BF6C
:102C30000837BD4680BD00BF00000240E803002009
:102C400080B582B000AF7860396001224FF4007126
:102C5000064803F0A3FD3B689BB21A467968044816
:102C600006F08AF800BF0837BD4680BD000002406C
:102C7000E803002080B584B000AF78607B685A1C00
:102C80007A601B78FB7334E07B685A1C7A601B788F
:102C9000FB72FB7A1846FFF79DFF7B685A1C7A602F
:102CA0001B78BB72BB7A9BB203F08003BB81BB7AFB
:102CB00003F07F03BB72BB7A002B08D0BB7A1946A6
:102CC0007868FFF7A1FFBB7A7A6813447B60BB8901
:102CD000002B0ED07B685A1C7A601B78BB81BB89A5
:102CE000FF2B02D14FF4FA73BB81BB89184602F067
:102CF00007FFFB7B5A1EFA73002BC5D100BF00BF34
:102D00001037BD4680BD90B585B000AF044608467B
:102D100011461A462346FB710346BB710B467B7175
:102D200013463B712A20FFF755FF00233B73FB79C5
:102D30007B730023BB737B79FB7307F10C030421C6
:102D40001846FFF761FF2B20FFF744FFBB797B7329
:102D50003B79FB7307F10C0304211846FFF754FF7E
:102D60002C20FFF737FF00BF1437BD4690BD000091
:102D700080B500AFFFF702FFFFF718FF0648FFF727
:102D800079FF0648FFF776FF0548FFF773FFFFF767
:102D900001FF00BF80BD00BFB4880508F0880508AA
:102DA0000089050890B585B000AF04460846114675
:102DB0001A462346FB800346BB800B467B801346A6
:102DC0003B80FB889F2B57D8BB887F2B54D8FA8831
:102DD0007B881344A02B03DDFB88C3F1A0037B8019
:102DE000BA883B881344802B03DDBB88C3F1800382
:102DF0003B80FFF7C3FEFB88D8B2BB88D9B2FB8803
:102E0000DAB27B88DBB21344DBB2013BDCB2BB88B5
:102E1000DAB23B88DBB21344DBB2013BDBB22246C1
:102E2000FFF771FF3B8C1B0A9BB2DBB23B733B8C01
:102E3000DBB27B7301224FF40071114803F0AEFC4A
:102E40003B88BB8012E07B88FB8009E007F10C0324
:102E5000022219460B4805F08FFFFB88013BFB80DF
:102E6000FB88002BF2D1BB88013BBB80BB88002BC9
:102E7000E9D1FFF78FFE00E000BF1437BD4690BDDB
:102E800000000240E803002080B584B002AF034692
:102E9000FB80FB8800938023A02200210020FFF705
:102EA00081FF00BF0837BD4680BD90B583B000AF3D
:102EB0000446084611461A462346FB800346BB805B
:102EC0000B467B8013463B80FB889F2B2FD8BB880B
:102ED0007F2B2CD8FA887B881344A02B29DCBA8856
:102EE0003B881344802B26DCFFF748FEFB88D8B2D2
:102EF000BB88D9B2FB88DAB27B88DBB21344DBB281
:102F0000013BDCB2BB88DAB23B88DBB21344DBB2F4
:102F1000013BDBB22246FFF7F6FE7B883A8802FBD4
:102F200003F35B001946B869FFF78AFE04E000BFAF
:102F300002E000BF00E000BF0C37BD4690BD0000BE
:102F400080B582B000AF00237B60164B5B6C154AE6
:102F500043F480435364134B5B6C03F480437B6006
:102F60007B6800233B600F4B1B6C0E4A43F0805381
:102F700013640C4B1B6C03F080533B603B680022D6
:102F800007216FF0010002F0BBFE002205210520A1
:102F900002F0B6FE052002F0CFFE00BF0837BD46A6
:102FA00080BD00BF0038024080B58AB000AF7860B5
:102FB00007F1140300221A605A609A60DA601A61FD
:102FC0007B681B68214A93423CD100233B61204B24
:102FD0001B6B1F4A43F0020313631D4B1B6B03F073
:102FE00002033B613B694FF480637B611223BB6149
:102FF0000023FB6103233B6204237B6207F114037C
:103000001946144803F046FA08237B611223BB617A
:103010000123FB6103233B6209237B6207F1140355
:1030200019460C4803F036FA0023FB60084B1B6C72
:10303000074A43F480031364054B1B6C03F48003BD
:10304000FB60FB6800BF2837BD4680BD00580040CC
:10305000003802400004024080B58CB000AF7860B8
:1030600007F11C0300221A605A609A60DA601A6144
:103070007B681B685D4A93422CD10023BB615C4B8B
:103080005B6C5B4A43F480535364594B5B6C03F4B1
:103090008053BB61BB6900237B61554B1B6B544A5A
:1030A00043F001031363524B1B6B03F001037B617D
:1030B0007B69E023FB6102233B6200237B620323E5
:1030C000BB620523FB6207F11C031946494803F064
:1030D000E1F987E07B681B68474A934240F08280B1
:1030E00000233B61424B5B6C414A43F40053536401
:1030F0003F4B5B6C03F400533B613B690023FB6077
:103100003B4B1B6B3A4A43F001031363384B1B6B79
:1031100003F00103FB60FB680023BB60344B1B6BB7
:10312000334A43F002031363314B1B6B03F002037A
:10313000BB60BB680223FB6102233B6200237B620E
:103140000323BB620523FB6207F11C0319462948D0
:1031500003F0A0F94FF40053FB6102233B6200230C
:103160007B620323BB620623FB6207F11C03194643
:10317000224803F08FF9224B224A1A60204B4FF06D
:1031800000625A601E4B40229A601D4B0022DA609A
:103190001B4B4FF480621A61194B00225A61184B85
:1031A00000229A61164B0022DA61154B4FF440322F
:1031B0001A62134B00225A62114802F0D9FD0346ED
:1031C000002B01D0FFF7E8FB7B680D4A9A640C4A9C
:1031D0007B68936300220621542002F091FD542065
:1031E00002F0AAFD00BF3037BD4680BD003001406F
:1031F0000038024000000240003401400004024058
:10320000400400202864024080B586B000AF78609A
:103210007B681B68B3F1804F0ED100237B61244B88
:103220001B6C234A43F001031364214B1B6C03F016
:1032300001037B617B6936E07B681B681D4A934212
:1032400016D100233B611A4B1B6C194A43F0020351
:103250001364174B1B6C03F002033B613B690022B4
:1032600008211D2002F04CFD1D2002F065FD1AE032
:103270007B681B68104A934215D10023FB600C4BFE
:103280001B6C0B4A43F004031364094B1B6C03F0E3
:103290000403FB60FB68002206211E2002F030FDC3
:1032A0001E2002F049FD00BF1837BD4680BD00BF9B
:1032B00000380240000400400008004080B588B09B
:1032C00000AF786007F10C0300221A605A609A6020
:1032D000DA601A617B681B68B3F1804F1ED100234E
:1032E000BB60104B1B6B0F4A43F0010313630D4B84
:1032F0001B6B03F00103BB60BB684FF40043FB6032
:1033000002233B6100237B610023BB610123FB613E
:1033100007F10C031946044803F0BCF800BF20373E
:10332000BD4680BD003802400000024080B58CB030
:1033300000AF78600023BB6200237B620023BB6088
:103340002E4B5B6C2D4A43F4802353642B4B5B6CF8
:1033500003F48023BB60BB6807F10C0207F1100384
:103360001146184605F046F805F030F8B862BB6A19
:10337000234AA2FB03239B0C013B7B62214B224A85
:103380001A60204B40F2E732DA601E4A7B6A5360D3
:103390001C4B00221A611B4B00229A60194B002221
:1033A0009A61184806F086F8034687F82F3097F898
:1033B0002F30002B1BD1134806F0CCF8034687F8BA
:1033C0002F3097F82F30002B11D11A2002F0B4FCC7
:1033D0007B680F2B08D8002279681A2002F090FC35
:1033E0000A4A7B68136002E0012387F82F3097F8C0
:1033F0002F3018463037BD4680BD00BF0038024030
:1034000083DE1B43E0B60020004801405800002046
:1034100080B400AF00BFFDE780B400AF00BFFDE7A0
:1034200080B400AF00BFFDE780B400AF00BFFDE790
:1034300080B400AF00BFFDE780B400AF00BFBD4661
:103440005DF8047B704780B400AF00BFBD465DF8F7
:10345000047B704780B500AF012003F0D3F900BFB3
:1034600080BD80B500AF042003F0CCF900BF80BD63
:1034700080B500AF082003F0C5F900BF80BD80B55E
:1034800000AF102003F0BEF900BF80BD80B500AFD3
:10349000402003F0B7F900BF80BD000080B500AF49
:1034A000024806F012F900BF80BD00BFE0B6002060
:1034B00080B500AF024806F008F900BF80BD00BF2C
:1034C000E804002080B500AF024806F0FEF800BF17
:1034D00080BD00BF3005002080B500AF024802F07B
:1034E0006FFD00BF80BD00BF4004002080B500AF6D
:1034F000024805F0F3FC00BF80BD00BFE8030020D8
:1035000080B400AF01231846BD465DF8047B7047C8
:1035100080B582B000AF7860396051F041FB03465E
:1035200016221A604FF0FF3318460837BD4680BD9B
:1035300080B582B000AF78604FF0FF317868FFF758
:10354000E7FF00BFFDE780B586B000AFF860B96067
:103550007A6000237B610AE0AFF300800146BB681C
:103560005A1CBA60CAB21A707B6901337B617A69EE
:103570007B689A42F0DB7B6818461837BD4680BDF1
:1035800080B586B000AFF860B9607A6000237B61D7
:1035900009E0BB685A1CBA601B781846AFF300807C
:1035A0007B6901337B617A697B689A42F1DB7B68D6
:1035B00018461837BD4680BD80B483B000AF786030
:1035C0004FF0FF3318460C37BD465DF8047B70475B
:1035D00080B483B000AF786039603B684FF400522C
:1035E0005A60002318460C37BD465DF8047B7047CF
:1035F00080B483B000AF7860012318460C37BD4615
:103600005DF8047B704780B485B000AFF860B960A6
:103610007A60002318461437BD465DF8047B704776
:1036200080B586B000AF7860144A154BD31A7B6121
:103630007B693B61134B1B68002B02D1114B124A73
:103640001A60104B1A687B6813443A699A4207D291
:1036500051F0A6FA03460C221A604FF0FF3309E03E
:10366000084B1B68FB60074B1A687B681344054ACC
:103670001360FB6818461837BD4680BD0000022065
:103680000004000028B70020C8F6012080B400AF75
:10369000064BD3F88830054A43F47003C2F88830EB
:1036A00000BFBD465DF8047B704700BF00ED00E041
:1036B00080B584B000AF7860084611461A460346CC
:1036C000FB700B46BB7013463B800023FB7300234B
:1036D000BB7378687B6803F5A062FB783988FFF7D5
:1036E000DDF903461A46FB7B1343FB737B680A2113
:1036F0001846FFF735FA03461A46FB7B1343FB7364
:10370000BB7BC72B04D9FB7B43F00103FB731AE09F
:10371000FB78032B09D97B6893F802357E2B04D9FB
:10372000FB7B43F04203FB730DE0BB7B0133BB73B8
:10373000BB787A68134493F800253B7E1340DBB2D4
:103740003A7F9A42C5D1FB7B18461037BD4680BDF3
:1037500080B584B000AF78600023FB730023BB8189
:103760007B6807F10B0206211846FFF71BF9034699
:103770001A46FB7B1343FB73FB7A5BB2002B10DA18
:103780007B6807F10A0207211846FFF70BF9034689
:103790001A46FB7B1343FB73BA7AFB7B1343FB7321
:1037A00012E07B6801211846FFF7DAF9BB89013383
:1037B000BB81FB7A03F00103002B04D1BB89B3F575
:1037C000FA7FCDD300E000BFFB7B18461037BD4623
:1037D00080BD000080B5EAB002AF07F5D073A3F555
:1037E000CE7318600A4607F5D073A3F29D131A70C2
:1037F000002387F89B3107F5D073A3F5C873D94A26
:1038000092E8030083E8030007F5D073A3F5CC73B7
:10381000D54A92E8030083E8030007F5D073A3F5C7
:10382000CE731B6803F5A06007F5D073A3F5CE73C4
:103830001B6810334FF4F472194651F0E6F907F59E
:10384000D073A3F29D131B78102B40F0228107F553
:10385000D073A3F5CE731B6803F5A26207F5D0738E
:10386000A3F5C87303CB1060516007F5D073A3F5BF
:10387000CE731B6803F5A0634FF4F4711846FFF78D
:1038800039F907F5D073A3F5CE731B6803F23C51E9
:1038900007F198034FF48072184651F0B6F907F516
:1038A000D073A3F5CE731B6803F5C86107F1180345
:1038B0008022184651F0A9F9002387F89E31ACE028
:1038C000002387F89F319CE097F99F2197F99E315B
:1038D000DB0013445A0007F5D073A3F5847353F843
:1038E000222097F99F1197F99E31DB000B445B0072
:1038F000591C07F5D073A3F5847353F821301A448B
:1039000097F99F1197F99E31DB000B44043359005E
:1039100007F5D073A3F5847353F821301A4497F94F
:103920009F1197F99E31DB000B445B0003F1090105
:1039300007F5D073A3F5847353F82130134497F936
:103940009F1197F99E2192000A44990807F5D073B8
:10395000A3F5847343F8221097F99F2197F99E31BC
:10396000DB0013445A0007F5D073A3F5C47333F991
:103970001230194697F99F2197F99E31DB001344C5
:103980005B005A1C07F5D073A3F5C47333F91230EA
:103990000B4497F99F1197F99E21D2000A440432F3
:1039A000510007F5D072A2F5C47232F91120134408
:1039B00097F99F1197F99E21D2000A44520002F113
:1039C000090107F5D072A2F5C47232F9112013442F
:1039D000002B00DA03339B10194697F99F2197F9C2
:1039E0009E319B001A4409B207F5D073A3F5C47346
:1039F00023F8121097F99F31DBB20133DBB287F85D
:103A00009F3197F99F31032B7FF75EAF97F99E3176
:103A1000DBB20133DBB287F89E3197F99E31032B7D
:103A20007FF74EAF07F118032033602200211846BC
:103A300051F053F807F198034033C0220021184693
:103A400051F04BF807F5D073A3F5CE731B6803F262
:103A50003C5307F198014FF48072184651F0D5F8A5
:103A600007F5D073A3F5CE731B6803F5C86307F1A0
:103A700018018022184651F0C8F807F5D073A3F555
:103A8000CE731B6803F5A0634FF4F4711846FFF77B
:103A900031F80023A7F89C311BE0B7F89C3103F103
:103AA0000802B7F89C3107F5D071A1F5CE7109680D
:103AB0000A4492F8001507F5D072A2F5CE7212688A
:103AC00013440A4683F80025B7F89C310133A7F860
:103AD0009C31B7F89C31B3F5F27FDED307F5D07394
:103AE000A3F5CE731B6803F5DC6207F5D073A3F56D
:103AF000CC7303CB1060516007F5D073A3F5CE7380
:103B0000186807F5D073A3F5CE731B6803F5A062A0
:103B10004FF4F47342F61861FEF7A0FF03461A460D
:103B200097F89B31134387F89B3107F5D073A3F5C2
:103B3000CE7003230193FF2300934FF430530122EF
:103B400004210068FFF7B4FD03461A4697F89B313D
:103B5000134387F89B3197F89B31184607F5D077C8
:103B6000BD4680BDA8810508B081050880B5CAB0F2
:103B700002AF07F59073A3F58E7318600A4607F538
:103B80009073A3F21D131A70002387F81D319A4A0F
:103B900007F58A7392E8030083E80300974A07F564
:103BA000867392E8030083E80300954BC7F8083159
:103BB00007F59073A3F58E731B6803F5A06007F5F6
:103BC0009073A3F58E731B6803F5FC734FF4427278
:103BD000194651F01AF807F59073A3F21D131B78DC
:103BE000102B40F0D28007F59073A3F58E731B68FD
:103BF00003F5A1631A4607F58A7303CB1060516081
:103C000007F59073A3F58E731B6803F5A4631A463A
:103C100007F5867303CB1060516007F59073A3F529
:103C20008E731B6803F5A0634FF442711846FEF7CC
:103C300061FF07F59073A3F58E731B6803F234518F
:103C400007F108034FF48072184650F0DEFF00239E
:103C500087F81E315DE0002387F81F314EE097F9A9
:103C60001F2197F91E31DB0013445A0007F59073AA
:103C7000A3F58C7353F8222097F91F1197F91E3181
:103C8000DB000B445B00591C07F59073A3F58C73A4
:103C900053F821301A4497F91F1197F91E31DB00B0
:103CA0000B440433590007F59073A3F58C7353F854
:103CB00021301A4497F91F1197F91E31DB000B448C
:103CC0005B0003F1090107F59073A3F58C7353F8BA
:103CD0002130134497F91F1197F91E2192000A44CD
:103CE000990807F59073A3F58C7343F8221097F9A0
:103CF0001F31DBB20133DBB287F81F3197F91F3177
:103D0000032BACDD97F91E31DBB20133DBB287F850
:103D10001E3197F91E31032B9DDD07F10803403357
:103D2000C0220021184650F0D8FE07F59073A3F585
:103D30008E731B6803F2345307F108014FF480724D
:103D4000184650F062FF07F59073A3F58E731B6859
:103D500003F5A0634FF442711846FEF7CBFE07F55A
:103D60009073A3F58E731B6803F23463D7F80821B0
:103D70001A6007F59073A3F58E731B6803F5AF63A4
:103D800004220021184650F0A8FE07F59073A3F511
:103D90008E73186807F59073A3F58E731B6803F58F
:103DA000A0624FF4427342F6F841FEF757FE034615
:103DB0001A4697F81D31134387F81D3107F59073A4
:103DC000A3F58E7003230193FF2300934FF4305328
:103DD000012204210068FFF76BFC03461A4697F89E
:103DE0001D31134387F81D3197F81D31184607F52B
:103DF0009077BD4680BD00BFB8810508C081050829
:103E0000A0FC010080B584B000AF78603960002369
:103E1000FB737B68002247F6FF711846FEF7F6FD3C
:103E200003461A46FB7B1343FB737B6807F10E02C4
:103E300000211846FEF7B6FD03461A46FB7B1343E6
:103E4000FB737B6807F10D0201211846FEF7AAFDFE
:103E500003461A46FB7B1343FB737B68022247F63B
:103E6000FF711846FEF7D2FD03461A46FB7B13434B
:103E7000FB73BB7BF02B06D17B7B022B03D13B6812
:103E800001221A7002E03B6800221A70FB7B184680
:103E90001037BD4680BD000080B58AB004AF7860A1
:103EA0000023FB754FF001133B610123FB607B682E
:103EB000804ADA607B68804A9A607B68002283F8D7
:103EC000AC2A7B68002247F6FF711846FEF79EFD7C
:103ED00003461A46FB7D1343FB757B6804220921C8
:103EE0001846FEF793FD03461A46FB7D1343FB7508
:103EF0007B6840220F211846FEF788FD03461A46CC
:103F0000FB7D1343FB757B6803220A211846FEF7ED
:103F10007DFD03461A46FB7D1343FB757B6807F165
:103F2000160247F6FF711846FEF73CFD03461A4697
:103F3000FB7D1343FB757B6801220C211846FEF7BD
:103F400065FD03461A46FB7D1343FB757B68002223
:103F500040F201111846FEF759FD03461A46FB7D53
:103F60001343FB757B6800224FF481711846FEF7FE
:103F70004DFD03461A46FB7D1343FB757B6801220A
:103F80004FF485711846FEF741FD03461A46FB7D46
:103F90001343FB757B68012244F202011846FEF7C9
:103FA00035FD03461A46FB7D1343FB757B680022F3
:103FB00044F202011846FEF729FD03461A46FB7D2E
:103FC0001343FB757B6803224FF485711846FEF797
:103FD0001DFD03461A46FB7D1343FB757B680122DA
:103FE00040F203111846FEF711FD03461A46FB7D09
:103FF0001343FB757B6800220C211846FEF706FD73
:1040000003461A46FB7D1343FB757B6843220F2151
:104010001846FEF7FBFC03461A46FB7D1343FB756F
:104020007B6801211846FEF79BFD03461A46FB7D7F
:104030001343FB757B6840220F211846FEF7E6FC10
:1040400003461A46FB7D1343FB757B6801220A2158
:104050001846FEF7DBFC03461A46FB7D1343FB754F
:104060007B6864211846FEF77BFD03461A46FB7DFC
:104070001343FB757B68002247F6FF711846FEF775
:10408000C5FC03461A46FB7D1343FB7501230193D0
:10409000FF2300930623002201217868FFF708FB25
:1040A00003461A46FB7D1343FB75FB7D002B40F056
:1040B000548303E010DD060844D906087B6801221A
:1040C0000E211846FEF7A2FC03461A46FB7D134359
:1040D000FB757B68022247F6FF711846FEF796FCD7
:1040E00003461A46FB7D1343FB757B680D220321B3
:1040F0001846FEF78BFC03461A46FB7D1343FB75FF
:104100007B68012247F6FF711846FEF77FFC0346E5
:104110001A46FB7D1343FB75102301931023009374
:104120002123002201217868FFF7C2FA03461A46CC
:10413000FB7D1343FB757B68002247F6FF71184631
:10414000FEF764FC03461A46FB7D1343FB757B6850
:1041500007F1160247F6FF711846FEF723FC0346E7
:104160001A46FB7D1343FB757B6801220C21184620
:10417000FEF74CFC03461A46FB7D1343FB757B6838
:10418000002247F6FF711846FEF740FC03461A4628
:10419000FB7D1343FB757B68002240F2011118463A
:1041A000FEF734FC03461A46FB7D1343FB757B6820
:1041B00000224FF481711846FEF728FC03461A4688
:1041C000FB7D1343FB757B6801224FF48571184614
:1041D000FEF71CFC03461A46FB7D1343FB757B6808
:1041E000012244F202011846FEF710FC03461A466B
:1041F000FB7D1343FB757B68002244F202011846E5
:10420000FEF704FC03461A46FB7D1343FB757B68EF
:1042100003224FF485711846FEF7F8FB03461A4651
:10422000FB7D1343FB757B68012240F203111846A6
:10423000FEF7ECFB03461A46FB7D1343FB757B68D8
:10424000002244F20F011846FEF7E0FB03461A462F
:10425000FB7D1343FB757B68432240F21A2118460D
:10426000FEF7D4FB03461A46FB7D1343FB757B68C0
:10427000032240F21A211846FEF7C8FB03461A46ED
:10428000FB7D1343FB757B68012240F21A2118461F
:10429000FEF7BCFB03461A46FB7D1343FB757B68A8
:1042A000002240F21A211846FEF7B0FB03461A46D8
:1042B000FB7D1343FB757B68002240F219211846F1
:1042C000FEF7A4FB03461A46FB7D1343FB757B6890
:1042D000002240F21B211846FEF798FB03461A46BF
:1042E000FB7D1343FB757B68002247F6FF71184680
:1042F000FEF78CFB03461A46FB7D1343FB757B6878
:1043000007F1160247F6FF711846FEF74BFB03460E
:104310001A46FB7D1343FB757B6800220C2118466F
:10432000FEF774FB03461A46FB7D1343FB757B685F
:10433000012247F6FF711846FEF768FB03461A464E
:10434000FB7D1343FB757B68072220211846FEF78F
:104350005DFB03461A46FB7D1343FB757B68062213
:1043600020211846FEF752FB03461A46FB7D1343F5
:10437000FB757B68092247F6FF711846FEF746FB7E
:1043800003461A46FB7D1343FB7578684FF40043E0
:10439000E14A0021FEF762FB03461A46FB7D134308
:1043A000FB757B680A2247F6FF711846FEF72EFB65
:1043B00003461A46FB7D1343FB7578684FF40043B0
:1043C000D64A0021FEF74AFB03461A46FB7D1343FB
:1043D000FB757B680B2247F6FF711846FEF716FB4C
:1043E00003461A46FB7D1343FB7578684FF4A043E0
:1043F000CB4A0021FEF732FB03461A46FB7D1343EE
:10440000FB757B68012247F6FF711846FEF7FEFA3E
:1044100003461A46FB7D1343FB757B68022247F671
:10442000FF711846FEF7F2FA03461A46FB7D134366
:10443000FB757B680D2203211846FEF7E7FA034659
:104440001A46FB7D1343FB757B68012247F6FF711B
:104450001846FEF7DBFA03461A46FB7D1343FB754D
:104460001023019310230093212300220121786857
:10447000FFF71EF903461A46FB7D1343FB75FB7DD0
:10448000002B40F06C817B68002247F6FF711846D4
:10449000FEF7BCFA03461A46FB7D1343FB757B68A7
:1044A00007F1160247F6FF711846FEF77BFA03463E
:1044B0001A46FB7D1343FB757B6801220C211846CD
:1044C000FEF7A4FA03461A46FB7D1343FB757B688F
:1044D000002247F6FF711846FEF798FA03461A467F
:1044E000FB7D1343FB757B6800224FF48A711846ED
:1044F000FEF78CFA03461A46FB7D1343FB757B6877
:10450000002240F215111846FEF780FA03461A46BB
:10451000FB7D1343FB757B6842224FF48B71184679
:10452000FEF774FA03461A46FB7D1343FB757B685E
:10453000002240F217111846FEF768FA03461A46A1
:10454000FB7D1343FB757B6800220B211846FEF7A9
:104550005DFA03461A46FB7D1343FB757B6807F142
:10456000160247F6FF711846FEF71CFA03461A4674
:10457000FB7D1343FB757B6800220C211846FEF778
:1045800045FA03461A46FB7D1343FB757B680122FF
:104590000B211846FEF73AFA03461A46FB7D1343F1
:1045A000FB757868FFF7D4F803461A46FB7D134382
:1045B000FB75FB7D002B40F0D4807B68022247F620
:1045C000FF711846FEF722FA03461A46FB7D134395
:1045D000FB7578682823534A42F6D871FEF73EFAF5
:1045E00003461A46FB7D1343FB7502230193FF2309
:1045F00000934FF43053002204217868FFF758F8F5
:1046000003461A46FB7D1343FB7578687B6803F508
:10461000A0624FF4F67342F60441FEF73FFA0346F8
:104620001A46FB7D1343FB757B6803F110007B6822
:1046300003F5A0634FF4F472194650F0E6FA102126
:104640007868FFF7C7F803461A46FB7D1343FB75EE
:104650007B6803F5FC73344A184611464FF44273E5
:104660001A4650F0D2FA10217868FFF77FFA034615
:104670001A46FB7D1343FB7578687B689A684FF494
:10468000737342F63441FEF7E9F903461A46FB7D9F
:104690001343FB7503230193FF2300934FF430531F
:1046A000012204217868FFF703F803461A46FB7DD0
:1046B0001343FB7507F1100104234DF6803278682F
:1046C00000F0B6FE03461A46FB7D1343FB7507F167
:1046D0000C0104234DF66412786800F0A9FE03462D
:1046E0001A46FB7D1343FB750123BB757B6803F5FD
:1046F000A061262302930123019307F1160300937F
:1047000028234EF20812786800F030FF03461A465C
:10471000FB7D13430AE000BF4489050844090608ED
:104720004489060818E0060810DD0608FB757B685A
:1047300003F5A061252302930123019307F11603DA
:10474000009328234EF20812786800F00FFF03460A
:104750001A46FB7D1343FB7504E000BF02E000BF77
:1047600000E000BFFB7D18461837BD4680BD00BF86
:10477000B0B59CB002AF7860002387F867300023A3
:104780003B6500237B654FF44073FB6407F15B03DB
:104790001946786800F050FC03461A4697F86730CF
:1047A000134387F867307B6800225A607B68FF22DA
:1047B0009A70AA4B07F13C040FCB84E80F00A84B7A
:1047C00007F10C041D460FCD0FC40FCD0FC495E8A3
:1047D0000F0084E80F00FB6B0833FB63FB6B1033A7
:1047E000FB63FB6B2033FB63FB6B4033FB63FB6BB7
:1047F0008033FB63FB6B03F58073FB63FB6B03F59B
:104800000073FB63FB6B03F58063FB63FB6B03F5DA
:104810000063FB6300233B6673E03B6E9B006833E1
:104820003B4453F85C3C002B67D03B6E5B099B001C
:1048300068333B4453F82C2C3B6E03F01F0322FAE1
:1048400003F303F00103002B57D007F10C023B6E7A
:104850009B001344FB65FB6D1B7803F00F03DBB279
:10486000002B3AD0FB6D1B78C3F30303DBB20C2B98
:1048700033D8FB6D5B8845F2CF42934210D9FB6D74
:104880005B8845F68F0293420AD897F85B30C3F3F2
:104890000B0399B2FA6D138861F30F13138009E0CB
:1048A00097F85B30C3F30B0399B2FA6D138861F389
:1048B0000F1313807B685B68FA6D1278C2F30302F2
:1048C000D2B21146FA6D1288C2F30B1292B201FBFA
:1048D00002F21A447B685A6009E07B685B68FA6DF3
:1048E0001288C2F30B1292B21A447B685A607B683A
:1048F0005B681A1D7B685A6000E000BF3B6E0133A5
:104900003B663B6E0B2B88D97B685B6803F1180212
:104910007B685A6007F10C0130234DF680127868ED
:1049200000F086FD03461A4697F86730134387F870
:1049300067307B685B683B653B6E01337B6507F1E5
:10494000500108234DF66812786800F071FD0346A7
:104950001A4697F86730134387F8673007F13C0130
:1049600010234DF67012786800F062FD03461A4677
:1049700097F86730134387F867307B68002247F663
:10498000FF711846FEF742F803461A4697F867305B
:10499000134387F867307B68052209211846FEF724
:1049A00035F803461A4697F86730134387F867309F
:1049B0007B68022247F6FF711846FEF727F8034688
:1049C0001A4697F86730134387F86730786807F11D
:1049D0004C02042342F6FC71FEF740F803461A46E7
:1049E00097F86730134387F8673003230193FF2359
:1049F00000934FF43053012204217868FEF758FEEB
:104A000003461A4697F86730134387F867307B6888
:104A100003F5A0610C2345F24042786800F07EFC6B
:104A200003461A4697F86730134387F867307B6868
:104A300003F5A1631B889BB2A7F85830B7F858302C
:104A40001A467B685B689A4202D0FF2387F867307A
:104A500097F8673018466837BD46B0BDC88105086D
:104A6000D881050880B586B000AF78600023FB745C
:104A70000023FB750023BB820023FB60786807F1ED
:104A80000C02042342F6FC71FEF708F803461A46AE
:104A9000FB7D1343FB75FB6840F2FF4293424DD010
:104AA0007B6893F8AC3A002B48D17B68002247F62C
:104AB000FF711846FDF7AAFF03461A46FB7D134314
:104AC000FB757B68162215211846FDF79FFF0346EC
:104AD0001A46FB7D1343FB757B680122142118469F
:104AE000FDF794FF03461A46FB7D1343FB7521E057
:104AF0007B6807F1130206211846FDF753FF0346B2
:104B00001A46FB7D1343FB757B680A211846FEF7A6
:104B100027F803461A46FB7D1343FB75BB8A013316
:104B2000BB82BB8AB3F5FA7F04D9FA7CFB7D1343C1
:104B3000FB7503E0FB7C5BB2002BD9DA7B6807F1E5
:104B4000130206211846FDF72DFF03461A46FB7D8A
:104B50001343FB75FB7C5BB2002B15DA7B6807F116
:104B6000130207211846FDF71DFF03461A46FB7D79
:104B70001343FB75FB7C842B06D0FB7C852B03D079
:104B8000FA7CFB7D1343FB757B68002247F6FF71BF
:104B90001846FDF73BFF03461A46FB7D1343FB75A2
:104BA0007B68002214211846FDF730FF03461A46A1
:104BB000FB7D1343FB757B68002215211846FDF72A
:104BC00025FF03461A46FB7D1343FB757B680422D1
:104BD00009211846FDF71AFF03461A46FB7D1343C9
:104BE000FB757B68022247F6FF711846FDF70EFF42
:104BF00003461A46FB7D1343FB75FB7D18461837A9
:104C0000BD4680BD80B588B000AF786039600023B4
:104C1000FB7778687B6803F5A0627B685B6800219E
:104C2000FDF73CFF03461A46FB7F1343FB777B6887
:104C300093F800257B689A707B6803F5A0627B6817
:104C40005B689BB219461046FDF754FF1023BB6109
:104C50000EE1BB6903F5A0637A681344BB60BB68CF
:104C60001B78C3F30303DBB2012B15D9BB681B7898
:104C7000C3F30303DBB20C2B0ED8BB681B78C3F362
:104C80000303DBB21A46BB681B88C3F30B139BB24A
:104C900002FB03F33B6105E0BB681B88C3F30B1306
:104CA0009BB23B61BB685B884EF28402934200F08A
:104CB000BB804EF28402934200F3D2804EF2440253
:104CC000934200F0A3804EF24402934200F3C88066
:104CD0004DF64472934200F08B804DF6447293423D
:104CE00000F3BE804DF6C462934273D04DF6C462A9
:104CF000934200F3B5804DF6C43293425CD04DF63A
:104D0000C432934200F3AC804DF68432934245D0D6
:104D10004DF68432934200F3A3804DF6580293423D
:104D200000F090804DF65802934200F3998045F2CE
:104D3000D052934224D045F2D052934200F3908057
:104D400045F2B442934204D045F2D04293420AD095
:104D500086E0BB690C337A68134493F800355AB285
:104D60003B681A707DE03B68181DBB69043303F58E
:104D7000A0637A6813443A6919464FF046FF70E021
:104D80003B6803F5A270BB69043303F5A0637A683E
:104D900013443A6919464FF038FF62E03B6803F567
:104DA0008270BB69043303F5A0637A6813443A69DF
:104DB00019464FF02AFF54E03B6803F51170BB69B8
:104DC000043303F5A0637A6813443A6919464FF037
:104DD0001CFF46E03B6803F55170BB69043303F5E3
:104DE000A0637A6813443A6919464FF00EFF38E021
:104DF0003B6803F57170BB69043303F5A0637A68FF
:104E000013443A6919464FF000FF2AE03B6803F269
:104E10004440BB69043303F5A0637A6813443A69DC
:104E200019464FF0F2FE1CE03B6803F28440BB6978
:104E3000043303F5A0637A6813443A6919464FF0C6
:104E4000E4FE0EE03B6803F2C440BB69043303F5A3
:104E5000A0637A6813443A6919464FF0D6FE00E021
:104E600000BFBA693B691344BB61BB690433BB61D2
:104E70007B685B68BA699A42FFF4EBAE0023BB61C2
:104E80000DE03A68BB699B0013445B68DA0A396835
:104E9000BB699B000B445A60BB690133BB61BB69B2
:104EA0003F2BEED90023BB6156E03A68BB6903F59E
:104EB000F0735B001344B3F90430002B00DA0333C2
:104EC0009B1019B23A68BB6903F5F0735B00134499
:104ED0000A469A803A68BB6903F5F0735B00134495
:104EE000B3F90430002B07DA3A68BB6903F5F073B5
:104EF0005B00134400229A803A68BB69134403F2B2
:104F000044431B785B08D9B23A68BB69134403F287
:104F100044430A461A703A68BB6903F5D0735B00D4
:104F200013449B88DB0999B23A68BB6903F5D073D7
:104F30005B0013440A469A803A68BB6990339B0031
:104F400013445B68DA0A3968BB6990339B000B44F1
:104F50005A60BB690133BB61BB693F2BA5D90023F4
:104F6000BB611BE03A68BB69134403F582731B788D
:104F7000002B10D100237B610AE0BA697B691344DE
:104F80003A681344FF2283F884247B6901337B61F0
:104F90007B69002BF1D0BB690133BB61BB693F2B3F
:104FA000E0D90023BB6114E03A68BB6903F599734B
:104FB0009B0013449B681F4AA2FB0323DA0B39684A
:104FC000BB6903F599739B000B449A60BB6901337D
:104FD000BB61BB691F2BE7D97B6893F808351B02BF
:104FE000FB817B6893F809351A46FB891343FB81E3
:104FF0007B685B68043B7A68134493F800351B02B6
:10500000BB817B685B68033B7A68134493F8003587
:105010001A46BB891343BB81FA89BB899A4203D0E4
:10502000FB7F43F00203FB77FB7F18462037BD462A
:1050300080BD00BF0180008080B584B000AF786083
:1050400039600023FB737B6803F5A061082345F2F8
:105050005042786800F062F903461A46FB7B13431E
:10506000FB737B6893F800257B6893F8013512FB8E
:1050700003F3DAB23B681A70FB7B18461037BD4663
:1050800080BD80B584B000AF78600B46FB70002314
:10509000FB73FB78102B02D0402B55D0A9E07B6826
:1050A00003F5A06110234AF63852786800F036F90B
:1050B00003461A46FB7B1343FB737B68402283F84D
:1050C00004257B68402283F806257B68042283F848
:1050D00009257B6803F5A06110234AF638527868E9
:1050E00000F0A6F903461A46FB7B1343FB737B686B
:1050F00003F5A061082345F25042786800F00EF9EC
:1051000003461A46FB7B1343FB737B68042283F838
:1051100000257B68042283F801257B68082283F838
:1051200004257B68082283F805257B6803F5A061C8
:10513000082345F25042786800F07AF903461A468F
:10514000FB7B1343FB7357E07B6803F5A0611023DF
:105150004AF63852786800F0E1F803461A46FB7BBD
:105160001343FB737B68102283F804257B681022AD
:1051700083F806257B68012283F809257B6803F5FF
:10518000A06110234AF63852786800F051F90346BE
:105190001A46FB7B1343FB737B6803F5A06108236E
:1051A00045F25042786800F0B9F803461A46FB7B96
:1051B0001343FB737B68082283F800257B68082271
:1051C00083F801257B68042283F804257B68042288
:1051D00083F805257B6803F5A061082345F250425A
:1051E000786800F025F903461A46FB7B1343FB73EE
:1051F00002E07F23FB7300BFFB7819467868FEF757
:10520000E9FA03461A46FB7B1343FB73FB78194606
:105210007868FEF7ABFC03461A46FB7B1343FB732F
:10522000FB7B18461037BD4680BD80B588B004AF03
:1052300078600B46FB700023FB737B6803F5A0616D
:105240000123029301230193FB1C0093042345F2E5
:105250005842786800F08AF903461A46FB7B1343EC
:10526000FB73FB7B18461037BD4680BD80B584B00C
:1052700000AF78600B46FB700023FB730023BB601C
:105280007B6803F5A06108234AF63052786800F085
:1052900045F803461A46FB7B1343FB73FB78012B4F
:1052A00002D0032B0BD015E07B68012283F8012587
:1052B0007B68032283F803250023BB600DE07B6835
:1052C000032283F801257B68022283F8032501234A
:1052D000BB6002E07F23FB7300BF7B6803F5A06126
:1052E00008234AF63052786800F0A2F803461A46BE
:1052F000FB7B1343FB7307F1080104234DF6641293
:10530000786800F095F803461A46FB7B1343FB735D
:10531000FB7B18461037BD4680BD000080B58CB0C1
:1053200002AFF860B9607A607B80002387F825308F
:105330007B880C333B623D4A07F1140307CA83E8BC
:1053400007007B88B3F5B46F03D9FF2387F82530B6
:1053500065E07B681B0ADBB23B757B68DBB27B7563
:105360007B881B11DBB2BB757B88DBB21B01DBB218
:10537000FB75F86807F114020C2342F6F471FDF78F
:105380006DFB03461A4697F82530134387F82530FE
:1053900003230193FF2300934FF430530122042190
:1053A000F868FEF785F903461A4697F82530134347
:1053B00087F82530F868FB6803F5A0623B6A42F67F
:1053C0000441FDF76BFB03461A4697F8253013435B
:1053D00087F82530FB6803F5A0627B880C339BB20D
:1053E00019461046FDF786FB0023FB8411E0B7F950
:1053F00026301A1DB7F92630B9680B44F9680A44FB
:1054000092F800251A70B7F926309BB201339BB28F
:10541000FB84B7F90230B7F926209A42E7DB97F808
:10542000253018462837BD4680BD00BF08820508D4
:1054300080B58CB002AFF860B9607A607B800023E1
:1054400087F827300023FB6100233B7500237B7521
:105450000023BB750F23FB7505233B7601237B7669
:105460007B8808331B12DBB2BB767B88DBB2083348
:10547000DBB2FB767B88C3F53F5334337B847B8878
:10548000B3F5B46F03D9FF2387F8273068E07B6852
:105490001B0ADBB23B777B68DBB27B777B881B1117
:1054A000DBB2BB777B88DBB21B01DBB2FB777B888F
:1054B0001946B868FDF71EFB7B88013B9BB2BB8495
:1054C00012E0B7F92430BA681A44B7F9243004332B
:1054D0001178FA6813440A4683F80025B7F9243096
:1054E0009BB2013B9BB2BB84B7F92430002BE8DAB6
:1054F000FB6803F5A063FA691A607B88043303F53F
:10550000A063FA6813441A4607F1140303CB106032
:105510005160F868FB6803F5A0627B880C33798CD6
:10552000FDF79CFA03461A4697F82730134387F88D
:10553000273003230193FF2300934FF430530122BC
:105540000421F868FEF7B4F803461A4697F82730A6
:10555000134387F827307B881946B868FDF7CAFAE5
:1055600097F8273018462837BD4680BD80B586B0ED
:1055700000AFF860B9607A607B800023FB757B88A0
:105580007A68B968F868FFF7C9FE03461A46FB7DDA
:105590001343FB753B8DBA681344BA8C396A1846BD
:1055A0004FF033FB7B887A68B968F868FFF740FFF3
:1055B00003461A46FB7D1343FB75FB7D18461837DF
:1055C000BD4680BDDFF834D0FEF760F80C480D49C9
:1055D0000D4A002302E0D458C4500433C4188C424E
:1055E000F9D30A4A0A4C002301E013600432A242B4
:1055F000FBD34FF0DBFAFCF725FA704700000220DE
:105600000000002020030020AC77070820030020C2
:10561000C4F60120FEE72DE9B00FC1B000AFC7F816
:10562000CC00C7F8C810C7F8C4204FF000024FF0F4
:105630000003C7E93E23D7F8CC305B68C7F8F430E5
:10564000D7F8CC305B88C7F8F030D7F8C8301B15D6
:10565000C7F8EC30D7F8C4301B15C7F8E830D7F8D6
:10566000EC30002B13DBD7F8CC305B885A1ED7F810
:10567000EC3093420BDAD7F8E830002B07DBD7F891
:10568000CC301B885A1ED7F8E830934201DB002348
:10569000EDE1D7F8C830C3F31303C7F8E430D7F807
:1056A000E820D7F8F03003FB02F2D7F8EC301344CF
:1056B0005A00D7F8F43013441B88A7F8E230D7F823
:1056C000E820D7F8F03003FB02F2D7F8EC301344AF
:1056D00001335A00D7F8F43013441B88A7F8E030A0
:1056E000D7F8C430C3F31303C7F8DC30D7F8E83079
:1056F0005A1CD7F8F03003FB02F2D7F8EC30134411
:105700005A00D7F8F43013441B88A7F8DA30D7F8DA
:10571000E8305A1CD7F8F03003FB02F2D7F8EC302F
:10572000134401335A00D7F8F43013441B88A7F808
:10573000D830B7F9E230DA17C7F8B830C7F8BC206C
:10574000D7F8E430C3F57F2303F6FF73DA17C7F801
:10575000A830C7F8AC20D7E92E010B46D7F8A8200F
:1057600002FB03F2D7F8AC30C7E92E01D7F8B81026
:1057700001FB03F31344D7F8B820D7F8A810A2FB15
:1057800001452B441D464FF000024FF00003220953
:1057900042EA05722B111346C7F8D430D7F8D4303B
:1057A000DA17BB67FA67D7F8DC30C3F57F2303F657
:1057B000FF73DA17C7F8B030C7F8B420D7E91E0175
:1057C0000B46D7E92C45224602FB03F2C7E92C45DC
:1057D000D7F8B43004460D46214601FB03F31344C9
:1057E0002246D7F8B010A2FB01AB5B449B46C7E949
:1057F0003EABC7E93EABB7F9E030DA173B677A67F3
:10580000D7F8DC30C3F57F2303F6FF73DA17BB66E6
:10581000FA66D7E91C452B46D7E91AAB524602FB7C
:1058200003F25B46214601FB03F313442246514633
:10583000A2FB01894B4499464FF000024FF0000350
:105840004FEA181242EA09724FEA29131346C7F8C1
:10585000D430D7F8D430DA173B667A66D7F8E4301C
:10586000DA17BB65FA65D7E918452B46D7E91689DB
:10587000424602FB03F24B46214601FB03F313446D
:1058800022464146A2FB0121C7F8A410C7F8A02078
:10589000D7F8A4201344C7F8A430D7E93E23D7E9AA
:1058A0002845214651183961294643EB01017961A8
:1058B000D7E90434C7E93E34B7F9DA30DA173B6583
:1058C0007A65D7F8E430C3F57F2303F6FF73DA1760
:1058D000BB64FA64D7E914452B46D7E912894246DE
:1058E00002FB03F24B46214601FB03F3134422461D
:1058F0004146A2FB0121C7F89C10C7F89820D7F8B1
:105900009C201344C7F89C304FF000024FF0000376
:10591000D7E9264521460A09294642EA0172294665
:105920000B111346C7F8D430D7F8D430DA173B64DC
:105930007A64D7F8DC30DA17BB63FA63D7E910452D
:105940002B46D7E90E89424602FB03F24B4621461D
:1059500001FB03F3134422464146A2FB0121C7F891
:105960009410C7F89020D7F894201344C7F89430C7
:10597000D7E93E23D7E9244521465118B960294685
:1059800043EB0101F960D7E90234C7E93E34B7F9C6
:10599000D830DA173B637A63D7F8E430DA17BB62A2
:1059A000FA62D7E90C452B46D7E90A89424602FB41
:1059B00003F24B46214601FB03F3134422464146C2
:1059C000A2FB0121C7F88C10C7F88820D7F88C20DB
:1059D0001344C7F88C304FF000024FF00003D7E9B2
:1059E000224521460A09294642EA017229460B113D
:1059F0001346C7F8D430D7F8D430DA173B627A624E
:105A0000D7F8DC30DA17BB61FA61D7E908452B46D5
:105A1000D7E90689424602FB03F24B46214601FBC9
:105A200003F3134422464146A2FB0121C7F8841028
:105A3000C7F88020D7F884201344C7F88430D7E90A
:105A40003E23D7E92045214651183960294643EBCA
:105A500001017960D7E90034C7E93E34D7E93E0156
:105A60004FF000024FF000030A11CB1713B2184693
:105A700007F58277BD46BDE8B00F704780B500AF2F
:105A80000E4B1B680D4A43F4007313600B4B1B68ED
:105A90000A4A43F480631360084B1B68074A43F4C7
:105AA00080731360032000F020F90720FDF73EFC0F
:105AB000FDF746FA0023184680BD00BF003C0240B7
:105AC00080B400AF064B1B781A46064B1B68134484
:105AD000044A136000BFBD465DF8047B704700BFF9
