:020000040800F2
:10000000000002205D4E0008DD2B0008E12B0008F7
:10001000E52B0008E92B0008ED2B0008000000008C
:100020000000000000000000000000000DAA000811
:10003000F12B00080000000055AA000899AB000849
:10004000AD4E0008AD4E0008AD4E0008AD4E0008A4
:10005000AD4E0008F52B0008F92B0008AD4E000846
:10006000012C0008092C0008112C0008AD4E0008D6
:10007000AD4E0008192C0008AD4E0008AD4E00082A
:10008000AD4E0008AD4E0008AD4E00080000000067
:10009000000000000000000000000000252C000807
:1000A000AD4E0008AD4E00082D2C0008AD4E0008E6
:1000B000AD4E0008AD4E0008AD4E0008AD4E000834
:1000C000AD4E0008392C0008AD4E0008AD4E0008BA
:1000D000AD4E0008AD4E0008AD4E00080000000017
:1000E000AD4E0008AD4E0008AD4E00080000000007
:1000F000000000000000000000000000AD4E0008FD
:1001000000000000AD4E0008AD4E0008AD4E0008E6
:1001100000000000000000000000000000000000DF
:10012000AD4E0008452C0008AD4E0008AD4E00084D
:10013000AD4E0008000000000000000000000000BC
:10014000000000000000000000000000AD4E0008AC
:10015000AD4E0008AD4E0008AD4E0008AD4E000893
:10016000AD4E0008AD4E0008000000000000000089
:10017000000000000000000000000000000000007F
:1001800000000000AD4E000800000000000000006C
:08019000512C0008AD4E0008DF
:1001A00010B5054C237833B9044B13B10448AFF3B1
:1001B00000800123237010BD3003002000000000E8
:1001C0000CFD030808B5034B1BB103490348AFF30B
:1001D000008008BD00000000340300200CFD03086F
:1001E00010F8012B11F8013B012A28BF9A42F7D0E1
:1001F000D01A70470000000000000000000000005E
:1002000001F0FF01102A2BDB10F0070F08D010F8C7
:10021000013B013A8B422DD010F0070F42B3F6D1CB
:10022000F0B441EA012141EA014122F007047FF0E4
:1002300000070023F0E80256083C85EA010586EA3B
:10024000010685FA47F5A3FA87F586FA47F6A5FA77
:1002500087F68EB9EED1F0BC01F0FF0102F0070283
:1002600032B110F8013B013A83EA010313B1F8D12E
:100270000020704701387047002D06BF354603380F
:10028000073815F0010F07D1013015F4807F02BF48
:10029000013015F4C03F0130F0BC0138704700BF99
:1002A000034613F8012B002AFBD1181A01387047B6
:1002B00081F0004102E000BF83F0004330B54FEA17
:1002C00041044FEA430594EA050F08BF90EA020F84
:1002D0001FBF54EA000C55EA020C7FEA645C7FEA17
:1002E000655C00F0E2804FEA5454D4EB5555B8BF3A
:1002F0006D420CDD2C4480EA020281EA030382EAAB
:10030000000083EA010180EA020281EA0303362D3C
:1003100088BF30BD11F0004F4FEA01314FF4801C0F
:100320004CEA113102D0404261EB410113F0004F21
:100330004FEA03334CEA133302D0524263EB4303D8
:1003400094EA050F00F0A780A4F10104D5F1200E76
:100350000DDB02FA0EFC22FA05F2801841F10001D1
:1003600003FA0EF2801843FA05F359410EE0A5F1A5
:1003700020050EF1200E012A03FA0EFC28BF4CF0D6
:10038000020C43FA05F3C01851EBE37101F000458C
:1003900007D54FF0000EDCF1000C7EEB00006EEB99
:1003A0000101B1F5801F1BD3B1F5001F0CD3490823
:1003B0005FEA30004FEA3C0C04F101044FEA44527A
:1003C00012F5800F80F09A80BCF1004F08BF5FEA01
:1003D000500C50F1000041EB045141EA050130BDE1
:1003E0005FEA4C0C404141EB0101013C28BFB1F5F3
:1003F000801FE9D291F0000F04BF01460020B1FA3E
:1004000081F308BF2033A3F10B03B3F120020CDA10
:100410000C3208DD02F1140CC2F10C0201FA0CF0EE
:1004200021FA02F10CE002F11402D8BFC2F1200C53
:1004300001FA02F120FA0CFCDCBF41EA0C01904009
:10044000E41AA2BF01EB0451294330BD6FEA040452
:100450001F3C1CDA0C340EDC04F11404C4F120023D
:1004600020FA04F001FA02F340EA030021FA04F34F
:1004700045EA030130BDC4F10C04C4F1200220FAA6
:1004800002F001FA04F340EA0300294630BD21FAE4
:1004900004F0294630BD94F0000F83F4801306BFAA
:1004A00081F480110134013D4EE77FEA645C18BF9E
:1004B0007FEA655C29D094EA050F08BF90EA020F35
:1004C00005D054EA000C04BF1946104630BD91EA2D
:1004D000030F1EBF0021002030BD5FEA545C05D130
:1004E0004000494128BF41F0004130BD14F580046F
:1004F0003CBF01F5801130BD01F0004545F0FE41E3
:1005000041F470014FF0000030BD7FEA645C1ABF17
:10051000194610467FEA655C1CBF0B46024650EA4E
:10052000013406BF52EA033591EA030F41F400217A
:1005300030BD00BF90F0000F04BF0021704730B500
:100540004FF4806404F132044FF000054FF00001D5
:1005500050E700BF90F0000F04BF0021704730B596
:100560004FF4806404F1320410F0004548BF40426B
:100570004FF000013EE700BF42004FEAE2014FEAC0
:1005800031014FEA02701FBF12F07F4393F07F4F9B
:1005900081F06051704732F07F4208BF704793F09E
:1005A0007F4F04BF41F40021704730B54FF46074B1
:1005B00001F0004521F000411CE700BF50EA0102B4
:1005C00008BF704730B54FF000050AE050EA01025D
:1005D00008BF704730B511F0004502D5404261EBCD
:1005E00041014FF4806404F132045FEA915C3FF40E
:1005F000D8AE4FF003025FEADC0C18BF03325FEAAB
:10060000DC0C18BF033202EBDC02C2F1200300FA5B
:1006100003FC20FA02F001FA03FE40EA0E0021FA80
:1006200002F11444BDE600BF70B54FF0FF0C4CF46E
:10063000E06C1CEA11541DBF1CEA135594EA0C0F20
:1006400095EA0C0F00F0DEF82C4481EA030621EA5B
:100650004C5123EA4C5350EA013518BF52EA033596
:1006600041F4801143F4801338D0A0FB02CE4FF048
:100670000005E1FB02E506F00042E0FB03E54FF078
:100680000006E1FB03569CF0000F18BF4EF0010E70
:10069000A4F1FF04B6F5007F64F5407404D25FEA6C
:1006A0004E0E6D4146EB060642EAC62141EA55511F
:1006B0004FEAC52040EA5E504FEACE2EB4F1FD0C61
:1006C00088BFBCF5E06F1ED8BEF1004F08BF5FEADF
:1006D000500E50F1000041EB045170BD06F0004691
:1006E00046EA010140EA020081EA0301B4EB5C043E
:1006F000C2BFD4EB0C0541EA045170BD41F4801136
:100700004FF0000E013C00F3AB8014F1360FDEBF5A
:10071000002001F0004170BDC4F10004203C35DA36
:100720000C341BDC04F11404C4F1200500FA05F3B9
:1007300020FA04F001FA05F240EA020001F000425A
:1007400021F0004110EBD37021FA04F642EB0601D0
:100750005EEA430E08BF20EAD37070BDC4F10C04FA
:10076000C4F1200500FA04F320FA05F001FA04F2BE
:1007700040EA020001F0004110EBD37041F10001AA
:100780005EEA430E08BF20EAD37070BDC4F12005B5
:1007900000FA05F24EEA020E20FA04F301FA05F21D
:1007A00043EA020321FA04F001F0004121FA04F2C5
:1007B00020EA020000EBD3705EEA430E08BF20EA95
:1007C000D37070BD94F0000F0FD101F000464000CF
:1007D00041EB010111F4801F08BF013CF7D041EA51
:1007E000060195F0000F18BF704703F00046520055
:1007F00043EB030313F4801F08BF013DF7D043EA26
:100800000603704794EA0C0F0CEA135518BF95EADB
:100810000C0F0CD050EA410618BF52EA4306D1D162
:1008200081EA030101F000414FF0000070BD50EA81
:10083000410606BF1046194652EA430619D094EA0B
:100840000C0F02D150EA013613D195EA0C0F05D1F5
:1008500052EA03361CBF104619460AD181EA030149
:1008600001F0004141F0FE4141F470014FF0000001
:1008700070BD41F0FE4141F4780170BD70B54FF09C
:10088000FF0C4CF4E06C1CEA11541DBF1CEA13551C
:1008900094EA0C0F95EA0C0F00F0A7F8A4EB0504FE
:1008A00081EA030E52EA03354FEA013100F08880F5
:1008B0004FEA03334FF0805545EA131343EA1263BE
:1008C0004FEA022245EA111545EA10654FEA002673
:1008D0000EF000419D4208BF964244F1FD0404F52C
:1008E000407402D25B084FEA3202B61A65EB030588
:1008F0005B084FEA32024FF480104FF4002CB6EB45
:10090000020E75EB030E22BFB61A754640EA0C00C4
:100910005B084FEA3202B6EB020E75EB030E22BF04
:10092000B61A754640EA5C005B084FEA3202B6EB45
:10093000020E75EB030E22BFB61A754640EA9C0004
:100940005B084FEA3202B6EB020E75EB030E22BFD4
:10095000B61A754640EADC0055EA060E18D04FEA92
:10096000051545EA16754FEA06164FEAC30343EA32
:1009700052734FEAC2025FEA1C1CC0D111F4801FFF
:100980000BD141EA00014FF000004FF0004CB6E7F8
:1009900011F4801F04BF01430020B4F1FD0C88BF97
:1009A000BCF5E06F3FF6AFAEB5EB030C04BFB6EBA2
:1009B000020C5FEA500C50F1000041EB045170BD95
:1009C0000EF0004E4EEA113114EB5C04C2BFD4EBC2
:1009D0000C0541EA045170BD41F480114FF0000E46
:1009E000013C90E645EA060E8DE60CEA135594EAC2
:1009F0000C0F08BF95EA0C0F3FF43BAF94EA0C0FC5
:100A00000AD150EA01347FF434AF95EA0C0F7FF439
:100A100025AF104619462CE795EA0C0F06D152EA8D
:100A200003353FF4FDAE1046194622E750EA410671
:100A300018BF52EA43067FF4C5AE50EA41047FF482
:100A40000DAF52EA43057FF4EBAE12E74FF0FF3CE7
:100A500006E000BF4FF0010C02E000BF4FF0010CB8
:100A60004DF804CD4FEA410C7FEA6C5C4FEA430C31
:100A700018BF7FEA6C5C1BD001B050EA410C0CBF80
:100A800052EA430C91EA030F02BF90EA020F0020E2
:100A9000704710F1000F91EA030F58BF994208BF49
:100AA00090422CBFD8176FEAE37040F00100704706
:100AB0004FEA410C7FEA6C5C02D150EA013C07D15D
:100AC0004FEA430C7FEA6C5CD6D152EA033CD3D0A8
:100AD0005DF8040B704700BF8446104662468C46A2
:100AE0001946634600E000BF01B5FFF7B7FF0028D5
:100AF00048BF10F1000F01BD4DF808EDFFF7F4FFFE
:100B00000CBF012000205DF808FB00BF4DF808ED88
:100B1000FFF7EAFF34BF012000205DF808FB00BFAB
:100B20004DF808EDFFF7E0FF94BF012000205DF8CD
:100B300008FB00BF4DF808EDFFF7CEFF94BF012082
:100B400000205DF808FB00BF4DF808EDFFF7C4FF7B
:100B500034BF012000205DF808FB00BF4FEA410CC4
:100B60007FEA6C5C02D150EA013C0AD14FEA430CA7
:100B70007FEA6C5C02D152EA033C02D14FF00000E4
:100B800070474FF0010070474FEA410212F5001222
:100B900015D211D56FF47873B3EB625212D94FEAC4
:100BA000C12343F0004343EA505311F0004F23FAAE
:100BB00002F018BF404270474FF00000704750EA03
:100BC000013005D111F0004008BF6FF000407047C0
:100BD0004FF00000704700BF4A0011D212F500121A
:100BE00011D20DD56FF47873B3EB62520ED44FEA85
:100BF000C12343F0004343EA505323FA02F0704705
:100C00004FF00000704750EA013002D14FF0FF3042
:100C100070474FF0000070474FEA4102B2F1E043E5
:100C200024BFB3F5001CDCF1FE5C0DD901F0004CD3
:100C30004FEAC0024CEA5070B2F1004F40EB830023
:100C400008BF20F00100704711F0804F21D113F14F
:100C50003872BCBF01F00040704741F480114FEA88
:100C60005252C2F11802C2F1200C10FA0CF320FA11
:100C700002F018BF40F001004FEAC1234FEAD3232E
:100C800003FA0CFC40EA0C0023FA02F34FEA430398
:100C9000CCE77FEA625307D150EA01331EBF4FF021
:100CA000FE4040F44000704701F0004040F0FE403C
:100CB00040F40000704700BF53B94AB9002908BF8B
:100CC00000281CBF4FF0FF314FF0FF3000F0BEB9DD
:100CD000ADF1080C6DE904CE00F03CF8DDF804E05D
:100CE000DDE9022304B0704738B500220023044632
:100CF0000D46FFF70BFF28B920462946BDE83840CE
:100D000000F00AB8204605F1004100F005F8404225
:100D100061EB410138BD00BFD0B50C4B0022064647
:100D20000F46FFF781FCFFF757FF0446FFF702FC71
:100D3000074B0022FFF778FC02460B463046394647
:100D4000FFF7BAFAFFF748FF2146D0BD0000F03D9B
:100D50000000F0412DE9F047089D0F4604468C46FF
:100D6000002B48D18A42164661D9B2FA82F34BB1C0
:100D7000C3F1200201FA03FC20FA02F29E4042EA8B
:100D80000C0C9C404FEA164EB7B2BCFBFEF1220C95
:100D90000EFB11CC42EA0C4201FB07F0904209D94C
:100DA000B21801F1FF3C80F0EE80904240F2EB80FF
:100DB00002393244121AA4B2B2FBFEF00EFB10222A
:100DC00044EA024400FB07F7A74209D9341900F1AD
:100DD000FF3280F0DA80A74240F2D78034440238F4
:100DE00040EA0140E41B00211DB1DC400023C5E9BD
:100DF0000043BDE8F0878B4206D90DB1C5E900017B
:100E000000210846BDE8F087B3FA83F1002948D1F4
:100E1000BB4202D3824200F20781841A67EB0302CD
:100E200001209446002DE4D0C5E9004CE1E7002AFA
:100E300000F09280B2FA82F3002B40F0A8808A1A68
:100E40004FEA164E1FFA86FC0121200CB2FBFEF77A
:100E50000EFB172240EA02420CFB07F0904207D932
:100E6000B21807F1FF3802D2904200F2E280474602
:100E7000121AA4B2B2FBFEF00EFB102244EA0244A6
:100E80000CFB00FCA44507D9341900F1FF3202D253
:100E9000A44500F2CB801046A4EB0C0440EA0740C6
:100EA000A2E7C1F120068B4022FA06FC4CEA030CB3
:100EB00007FA01F420FA06F3F7404FEA1C492343EE
:100EC00000FA01F81FFA8CFEB7FBF9F01C0C09FBC5
:100ED000107744EA074400FB0EF7A74202FA01F23A
:100EE0000AD91CEB040400F1FF3A80F09B80A74272
:100EF00040F2988002386444E41B9FB2B4FBF9F3DB
:100F000009FB134447EA044403FB0EFEA64509D936
:100F10001CEB040403F1FF3780F08280A6457FD9E3
:100F2000023B644443EA0040A4EB0E04A0FB02E74A
:100F3000BC427346B94663D360D05DB1B8EB0302DF
:100F400064EB090404FA06F622FA01F31E43CC40CE
:100F5000C5E9006400214CE76208480842EAC17113
:100F60000B0C43EA00438AB242EA0342B3FBF6F1B8
:100F7000E407B4463746B6461F23B0FBF6F0D21B53
:100F800041EA004161E7614614E7104628E7C3F1F2
:100F9000200120FA01F29E4027FA01F19F403A43D6
:100FA0004FEA164E1FFA86FCB1FBFEF70EFB171038
:100FB000110C41EA004107FB0CF8884504FA03F4E0
:100FC0003AD9711807F1FF3001D288451FD8A1EB3B
:100FD0000801B1FBFEF808FB0CF70EFB181192B2EA
:100FE00042EA0142BA422FD2B21808F1FF31C6D20A
:100FF000BA42C4D2A8F102013244C0E7F0459CD203
:10100000BEEB020367EB0C070138B94695E7A6EB88
:1010100008084144B81EB1FBFEF808FB0CF7DCE7FA
:101020003B467FE7504667E70846FBE63444023814
:1010300032E7023F32441BE7A1EB08013846B1FB1F
:10104000FEF808FB0CF7C8E7414698E7704700BF79
:1010500008B501F033FBBDE80840002001F05ABBA1
:1010600008B500F0A9F8BDE8084000F0C5B800BF19
:1010700030B51F4D87B02B460446812200216430D5
:1010800000F0E6F82B78012B28D818BF102527D0C0
:101090001849052000F0F8FA0821174B17481B687B
:1010A000009301601648174A016023460A2103A8ED
:1010B0003BF05EFA03A9022000F0E6FA124A0C495E
:1010C00002EB450C487811F8023F43EA002322F86E
:1010D000023B9445F6D1284607B030BD4025D7E7FE
:1010E0000A49052000F0D0FA10250421D5E700BFF9
:1010F00034040020C8000408600300201000002011
:101100000C000020D40004086C030020BC0004087C
:10111000F8B5224B1D686DBB214E0746214802F0F1
:1011200067FE012F3068204B20491F7094BF1024A8
:10113000402400F1640094BF2222822201EB440487
:1011400031F902CFCCF3072E8C4283F801E003F88B
:1011500002CFF5D1144B002100F0AAF83368144AED
:1011600010481360092BD8BF5D1C3560BDE8F840FE
:1011700002F0BCBC0E4C2068FFF77AFF2368013BED
:10118000002B236003DB0B4B01221A70F8BD044BCC
:101190001B682360074B01221A70F8BD5003002022
:1011A000600300207CB5002034040020EEB3002052
:1011B00054030020DEAF002000B583B049F666136B
:1011C0000B48ADF804300022012104F003FB642336
:1011D00001A90222074806F03BFF012211460448FC
:1011E00004F0F8FA642008F0FBFE03B000BD00BF75
:1011F00000040240C8AE002000B583B09F2312480F
:101200008DF803300022012104F0E4FA0DF103010E
:10121000642301220D4806F01BFF642301A9032269
:101220000A4807F083F901221146074804F0D2FA70
:101230009DF805309DF804209DF806001B0243EA46
:101240000243184303B000BD00040240C8AE0020B2
:1012500030B583B001EB002C0B21C0F30F209CFABA
:101260009CFC15468DF8001000228DF8010001212C
:101270000D48ADF802C01C468DF8042004F0AAFA0F
:10128000694664230522094806F0E2FE6423AAB2F7
:101290002146064807F04AF901220348114604F0A6
:1012A00099FA03B030BD00BF00040240C8AE002070
:1012B0002DE9F04F9146C9B0013A0A44C0F30F1826
:1012C0000646039300EB1220130AC8F1010202EB59
:1012D000101292B2002A00F0DF804244CDE90136BC
:1012E0001FFA82FA05AC0DF113074FF0000B0E4602
:1012F00006236B4823700022012104F06BFA64235B
:1013000001222146674806F0A3FE012211466448E7
:10131000454604F05FFA2D03202323702B0C2D0A81
:101320005F4863700022012184F803B0A57004F0C7
:1013300051FA6423042221465A4806F089FE01220C
:101340001146574804F046FA4FF4E17003F04AFEA4
:101350004FF0040352483B700022012104F03AFA96
:101360006423012239464F4806F072FE08F1010855
:1013700001224B481FFA88F8114604F02BFAD04599
:10138000B6D13146019B029E751CEB184FF0000A46
:101390000293D046A34667E0C1F5807301939A4655
:1013A0004FF006033E483B700022012104F012FA80
:1013B0006423012239463B4806F04AFE01221146C9
:1013C000374804F007FA02238BF80030039B1FFA1A
:1013D0008AF403EB0801330C76BAABF80260261DE1
:1013E000A246224606A88BF80130B6B2002C45D0A2
:1013F0003BF00BFAC82E4FF0000241D928480121DA
:1014000004F0E8F964231A465946264806F020FEFF
:10141000A4F1600292B264231EA9224806F018FECD
:10142000012211461E4804F0D5F9052003F0DAFD2B
:1014300004231B483B700022012104F0CBF96423F4
:1014400001223946174806F003FE012211461448CE
:1014500004F0C0F9029B9D422E46A9EB0A09D04434
:101460004FF0000115D0013501EB0903FF2B01EB13
:10147000062691D8CDF80490CA4691E7BDF804A09D
:1014800007480022012104F0A5F964233246594699
:10149000C3E749B0BDE8F08F05AC0DF1130773E762
:1014A00000040240C8AE00200449054A054B086804
:1014B0001168054A188059805A6070470C00002056
:1014C00010000020B814002038140020184A194BCE
:1014D00030B41B68146803FB04F4D4B1631E062BFC
:1014E00019D9154DAA1E9042034614D04FEA540C48
:1014F00000EB8C0C2A4653F8041B42F8041B63458E
:10150000F9D1E20724F0010303D530F9132025F8BF
:10151000132030BC704700EB4404074A831E023C92
:1015200033F9021F22F8021B9C42F9D130BC7047EC
:10153000100000200C000020381400202DE9F04F8E
:10154000DFF8B4A0274ADAF800301068013B4FEA10
:101550000358254B1968002983B03FDD234E244FE3
:101560003368421E15054FF0000901954D464FEABC
:10157000055909F50029019A00FB09F999FBF1F9D0
:10158000A9F5002929EAE9799145A8BF9146002BE0
:1015900024DD0024DAF800201648210501F5002199
:1015A00002FB01F191FBF3F1A1F5002121EAE171C8
:1015B0004145A8BF41464A4605FB034B03F078FC72
:1015C000336827F81B000134A342E3DC064A1168A4
:1015D00001358D4202DA034A1068C8E703B0BDE85E
:1015E000F08F00BF0C000020040000200800002045
:1015F000380C0020B814002010000020002825DB43
:10160000B0F5967F1DDA144AC31782FB0020C3EBA6
:10161000A003124A03EB4303D01812F803C0427828
:10162000807853094FEADC0CC008C2F3820243EA17
:10163000CC0343EA002343EA4233094A22F811303B
:1016400070470022104694461346F0E700221046E9
:101650004FF0060C1346EAE7676666662007040843
:10166000C014002000B583B00092CB888A88088817
:101670004988013301325B1A121A9BB292B201F00F
:101680007DF803B000BD00BF0138052816D8DFE89B
:1016900000F006090C0F120309483BF0AEB80948E8
:1016A0003BF0ABB808483BF0A8B808483BF0A5B8F9
:1016B00007483BF0A2B807483BF09FB8704700BF0F
:1016C0005000002044000020380000202C000020A2
:1016D00014000020200000202DE9F04FDFF8CC801E
:1016E000D8F8143095B0002B5AD00029174614BFF3
:1016F0000422082200FB02FA0AFB0AF9B9F1000FE2
:101700004FF0910696FBFAF610DD274D023F0024BC
:1017100037F9020F85FB0023C017C0EBA300214659
:1017200000B20134FFF76AFFA145F1D106A816F017
:101730009DF900218A45ADF81810ADF838102FDD5D
:101740000AF1FF330FFA86F90593DFF864B04B46D0
:10175000D1469A4601FB06F52DB2CDE90351554617
:10176000DDF814A001FB09F700243A1906AB3BF899
:101770001220ADF81C20CDE90053AAEB040106FBB2
:1017800001F1D8F81400039A09B22B46013432F063
:10179000B5FCA145E9DC049901318945AA46D9DCAB
:1017A00015B0BDE8F08F00BF6766666640D60120C1
:1017B000C014002010B5194C82B00BF023F9184961
:1017C0004FF44863002220462AF01EFF15482AF0F5
:1017D000F7FE1448144BA02180220180428043610F
:1017E000C460124C2AF01EFF39F0C4FE606930B1AB
:1017F000042300930E496923912232F061FCA06911
:1018000010B10C4935F0B2F9E06928B10A4902B0CB
:10181000BDE8104035F0AAB902B010BD04AD0020FB
:1018200004940020B49300206516000840D60120DF
:10183000C01C002044000020380000202DE9F8439F
:101840001F4E089D884691461F4604462EF0A6FA74
:1018500039F0A4FE307808B1012D0DD00DB1BDE8EE
:10186000F883012039F06CFE2EF098FA2EF096FAEB
:10187000BDE8F84339F092BE022039F061FE2EF047
:101880008DFA104B002232701B7843B1012C0FD01F
:10189000494620460C4ABDE8F843FFF71DBF012C1E
:1018A000F6D149462046094ABDE8F843FFF714BF80
:1018B00039464046064ABDE8F843FFF70DBF00BF72
:1018C0004E0300204C030020380C0020F0B3002011
:1018D0006C03002010B50C4688B1254B254A1868CA
:1018E00012689042B4BF013000201860FFF7C0FBBF
:1018F0002149224A01230B702046137010BD204855
:1019000002F076FA012C28D0022C1CD01D4A1E4B66
:1019100092E803000A0C0124186099809A711B4A0E
:101920001B4B12681B681B491B4804FB02F204FB9B
:1019300003F30A60194A036001211148117002F093
:10194000D5F8204610BD164A0F4B92E803000A0C4A
:101950000424186099809A71E1E7124A0A4B92E8D0
:1019600003000A0C0224186099809A71D7E700BF1F
:1019700054030020600300204C0300204E0300208D
:101980007CB50020F00004081400002010000020A6
:101990000C00002008000020040000204D0300205F
:1019A000E8000408E0000408F8B50C4688B1224BB2
:1019B00018680028D6BF214A00F1FF30106818606F
:1019C000FFF756FB1E491F4A01230B702046137078
:1019D000F8BD05461C48164602F00AFA1A48DCB162
:1019E000402102F0E7FB194819491A4A1A4F082307
:1019F00003600B6007CA03C72C463A801749184892
:101A000003FB06F6174B0E60066001210E481970A5
:101A100002F06CF82046F8BD102102F0CBFB124A10
:101A20000D4B0A4D07CA03C31A80094A0423012437
:101A30002B601360E2E700BF540300206003002026
:101A40004C0300204E0300207CB500201000002035
:101A50000C000020C800040820000020080000201E
:101A6000040000204D030020BC00040838B51446D3
:101A7000F9B9172003F022FB2A4B2B4D93E80700FE
:101A800003C52A492A7007C9294B03C3012C1A70C0
:101A900046D0022C0CBF274A274A284B92E8030065
:101AA0000A0C1860264899809A7102F0A1F9012069
:101AB00038BD244A1C4D034607CA03C522492A8063
:101AC00007C91B4D03C52A800BB3204A204B07CA08
:101AD00003C3012C1A8021D0022C0CBF154A164AD0
:101AE000164B1C4C92E803000A0C9A711A4A1860B3
:101AF000998007CA194B03C3012111481A8021702C
:101B000001F0F4FF172003F0CBFA002038BD144A8F
:101B10000F4B07CA03C3012C1A80DDD1114ADFE73E
:101B2000104ABAE7F8000408440000200401040841
:101B300038000020E0000408E80004081400002039
:101B40007CB50020100104081C010408BC00040836
:101B5000200000204D030020280104082C00002054
:101B6000C8000408F0000408004870475000002036
:101B700000487047440000200048704738000020AB
:101B800000487047200000200048704714000020E3
:101B900080B5DFF844800C4F0C4D0D4C0126FFF74B
:101BA0005FFA03463868C8F8003001F0BDF8034614
:101BB00008482B6001F09AFF0020266008F080F9A9
:101BC000642008F00DFAEAE76803002030AD002039
:101BD000640300207CB50020340C00202DE98048EF
:101BE000274EDFF8C090DFF8C0A0264C264DDFF866
:101BF000BCB0DFF8BC80254F83B00BE0002300931E
:101C00002268D8F8003039682868FFF717FE4220AC
:101C100008F0E6F93368012BF0D1D9F80030012B38
:101C2000ECD19AF80030012B02D02368002BEED0C3
:101C3000174800234FF400518AF8003003F0CEFD1E
:101C4000286801280AD0DBF80030ABB91148FFF74B
:101C50003DFCFFF729FCFFF771FC28680E490123C2
:101C6000002200930A700D4A39681370D8F80030CA
:101C70002268FFF7E3FDCAE70948FFF727FCE8E71A
:101C80006403002068030020000000205C030020A3
:101C900000080240F0B300204C0300204E03002057
:101CA0006C030020B4000020DEAF002050030020B1
:101CB0005803002010B5002394B0CDE90B33CDE9D3
:101CC0000933CDE90333CDE90533204901930D9361
:101CD0000793086C1E4A40F080500864096C01F0BC
:101CE0008051019101990293116841F440411160C2
:101CF00012680F9302F44042102301210292CDE9B1
:101D00000B1308226423CDE9102302980224022237
:101D1000042308A808940E94CDE9122305F0F0FCE2
:101D200008B172B6FEE70F210346CDE903144FF464
:101D3000805203A80321CDE90532079305F0FAFE8E
:101D400008B172B6FEE714B010BD00BF0038024003
:101D5000007000402DE98048002497B003F016F988
:101D6000FFF7A8FFCDE90E44CDE91044B94D049426
:101D700012942B6BB84843F004032B632B6B03F0D6
:101D800004030493049B05942B6B43F080032B63A3
:101D90002B6B03F080030593059B06942B6B43F09C
:101DA00001032B632B6B03F001030693069B07943F
:101DB0002B6B43F002032B632B6B03F002032246D1
:101DC00007934FF40051079B03F004FD2246A348FC
:101DD00040F287110EAE03F0FDFC2246A0484FF4FE
:101DE000B851012703F0F6FC4FF400539A483146EE
:101DF000CDE90E37CDE9104403F030FB1D224FF43E
:101E00000413974810973146CDE90E234FF0030A8B
:101E100003F024FB91483146CDE90E77CDE9107AE5
:101E200003F01CFB4FF483738C48119431464FF040
:101E30000209CDE90F740E9303F010FB4FF4A06379
:101E400087480E9331461194CDF840904FF40078B6
:101E50000F9703F003FB8248CDF844903146CDE95B
:101E60000F74CDF8388003F0F9FACDE90F797C488A
:101E7000CDF844A031464FF48059CDF8389003F0A6
:101E8000EDFA40224FF40413744810943146CDE922
:101E90000E2303F0E3FA802370480E933146CDE918
:101EA000104A0F9703F0DAFA22460C21062003F0BD
:101EB000BDF8062003F0F4F822460D21082003F0B7
:101EC000B5F8082003F0ECF822460B21092003F0B6
:101ED000ADF8092003F0E4F80A212246084603F091
:101EE000A5F80A2003F0DCF822460821172003F0A9
:101EF0009DF8172003F0D4F802942B6B43F4800371
:101F00002B632B6B03F480030293029B03942B6BD4
:101F100043F400132B632B6B03F4001322460621BA
:101F200003930D20039B03F081F80D2003F0B8F814
:101F300022460921392003F079F8392003F0B0F85E
:101F4000484BC3E90244C3E90444C3E909441C62A1
:101F50000A241A46C3F81880DC62434B4FF482759A
:101F6000C2E9003510462023D36106F00FF808B10E
:101F700072B6FEE703463D483D4FC0E90233C0E973
:101F80000533C0E907333B4BC0E900734FF480438E
:101F9000036103F0EBFD08B172B6FEE7364F0E9019
:101FA000CDE90A00C6E90100F060B8603861B861A7
:101FB000324841F28733C7E9000363233846FB60A8
:101FC00006F042FD08B172B6FEE731463846CDF85C
:101FD000389006F053FF08B172B6FEE738460AA9FA
:101FE0004FF0000A4FF0000BCDE90AAB07F094F870
:101FF000034608B172B6FEE72148C0E90333C0E9E1
:102000000733C0E9093343611E4B03604FF40043BB
:102010004560C0F81880C462836005F0B7FF08B15E
:1020200072B6FEE7184C194A0E903123C6E901003A
:10203000CDE90A00C4E90023F060A0602061A0613E
:1020400046F677132046E36006F0FEFC00B372B656
:10205000FEE700BF003802400008024000040240D2
:1020600000000240C8AE00200030014080AF0020D8
:1020700000580040801A06007CAD0020000400409B
:1020800070AE00200034014034AD00200008004054
:1020900031462046CDF8389006F0F0FE08B172B611
:1020A000FEE720460AA9CDE90AAB07F035F803465A
:1020B00008B172B6FEE739480E93CDE90A33CDE98F
:1020C0000C33C6E90133C6E90333C6E90533C0E979
:1020D00001334FF0804208930361836109934FF00D
:1020E000FF3308AC0260C36006F0AEFC08B172B604
:1020F000FEE74FF4805329480A930AA906F0BEFE72
:1021000008B172B6FEE7254806F04CFD08B172B67C
:10211000FEE70022002321482146CDE9082306F0EE
:10212000FBFF024608B172B6FEE760241B4810921E
:1021300000253146CDE90E45129206F0ADFD04466C
:1021400008B172B6FEE7154800F0CEFCFEF780FF3E
:10215000FFF730FB124A134913480123CDE900323F
:1021600023464FF4007207F023FE104A104911482D
:102170000223CDE9003223464FF4007207F018FE27
:102180000D4A0E490E480323CDE9003223464FF491
:10219000007207F00DFE07F057FFFEE7C4AD002008
:1021A00028AD002034010408911B000824AD002054
:1021B0003C010408DD1B000820AD00204801040894
:1021C0007D230008402808B520D0314B002201387B
:1021D0001A600F2816D8DFE800F008151527151526
:1021E00015381515151515151549062002F066FF49
:1021F000172002F063FF27490620FFF745FA264B18
:1022000000221A60254B01221A6008BD244B1B785E
:10221000002BFAD1234B1B68012BF6D1BDE80840F7
:102220002149224801F078BE082002F047FF17201C
:1022300002F044FF1E490620FFF726FA164B022241
:102240001A60164B01221A60DFE7092002F036FF00
:10225000172002F033FF17490620FFF715FA0E4B3F
:1022600003221A600D4B01221A60CEE70A2002F009
:1022700025FF172002F022FF0F490620FFF704FA7E
:10228000054B04221A60054B01221A60BDE700BF0E
:10229000B400002054010408B80000202CAD002038
:1022A000DFAF002030AD00202CB000207CB5002036
:1022B0008C0104086C0104088001040870B5284CE6
:1022C0002368042B14D8DFE803F040130333250000
:1022D000244B254D254A296812681868FFF7C6FB6C
:1022E000234B28601868FEF7C3FE224B01221A70A8
:1022F0000A2002F0D5FE092002F0D2FE062002F0EC
:10230000CFFE082002F0CCFE1B4A0121642311609D
:10231000236070BD134B154A18681168FEF7F8FE6C
:10232000114B1B68002BE3D1172002F0B9FEDFE749
:102330000E4B0C4D0C4E1A6829683068FFF734FBC1
:1023400033682860002BD3D1EEE7084D064E29688C
:102350003068FFF7BFFA33682860002BC8D1E3E785
:10236000B800002068030020500300200000002077
:1023700054030020DEAF0020B400002008B5064C56
:1023800000252368012B02D1FFF798FF2560372035
:1023900007F026FEF5E700BF2CAD0020054A0368D4
:1023A000934204D0A2F58062934200D07047024865
:1023B0002AF010BA00340140B493002008B5026836
:1023C000054B9A4200D008BD01202AF047FABDE82B
:1023D000084002F0F5BD00BF0048014072B6FEE7BC
:1023E00070B584B064260446009649BA1546ADF827
:1023F0000C1003AA01880848022303F081FC2188FD
:1024000005480096012302AA03F0E8FD9DF8083074
:102410002B7004B070BD00BF80AF002000B585B048
:102420008C46642301888DF80E209CFA9CFC009356
:1024300003AA03230348ADF80CC003F061FC05B008
:1024400000BD00BF80AF002000B5B0F800C085B06F
:102450004FF6FF709BB2CDE9002302900A4610238D
:102460006146024804F0F0F805B000BD80AF0020DE
:1024700070B584B01D464BBAADF80C300E4B064615
:10248000008818800D4B1A600D4B1D6064231446A4
:102490000146009303AA02230A4803F031FC4FF4DB
:1024A0007A733188074800932246ABB203F096FD59
:1024B000002004B070BD00BFDCAF0020D8AF00200A
:1024C000D4AF002080AF002070B584B01D464BBA59
:1024D000ADF80C300E4B0646008818800D4B1A6084
:1024E0000D4B1D60642314460146009303AA02238A
:1024F0000A4803F005FCABB222463188074803F0D6
:10250000FDFF074B012200201A7004B070BD00BF10
:10251000DCAF0020D8AF0020D4AF002080AF002077
:10252000DFAF0020B9B100B54A1E22F00302031D3F
:102530001A44437890F800E090F803C081781B04B7
:1025400043EA0E6343EA0C0343EA012340F8043BE9
:102550008242EED100BD704708B5084607F040FD45
:10256000002008BDF0B5064683B016F8013BBBB3AA
:102570005D1EEDB20EE03B06264607D516F8010BB0
:10258000FF2808BF4FF4FA7002F02CFD013DEDB2B8
:10259000FF2D25D03446134814F8023B8DF8073040
:1025A00000224FF4007103F015F90F484FF0FF338C
:1025B00001220DF1070105F04BFD777817F07F063A
:1025C000D9D0084801224FF4007103F003F92146E5
:1025D00005484FF0FF33324605F03AFD3444CAE770
:1025E00003B0F0BD0000024070AE0020F0B583B033
:1025F0004FF02A0C07460E4614462E488DF804C0AC
:1026000000224FF400711D4603F0E4F84FF0FF3351
:1026100001A90122284805F01BFD8DF80740254837
:102620008DF80570002401224FF400718DF80440EC
:102630008DF8064003F0CEF804220DEB02014FF0B6
:10264000FF331D4805F004FD2B23224619488DF861
:1026500003304FF4007103F0BDF84FF0FF330DF17C
:1026600003010122144805F0F3FC12488DF80560BF
:1026700001224FF400718DF8075003F0ABF801A967
:102680004FF0FF3304220C4805F0E2FC2C232246D5
:1026900008488DF803304FF4007103F09BF84FF0B9
:1026A000FF3301220DF10301034805F0D1FC03B013
:1026B000F0BD00BF0000024070AE002008B5114818
:1026C0000022022103F086F8002204210D4803F0C5
:1026D00081F8052002F086FC01220421094803F05C
:1026E00079F80948FFF73EFF0848FFF73BFF084825
:1026F000FFF738FFBDE8084002480122022103F03D
:1027000069B800BF00040240B8070408A80704081D
:102710007C07040830B5002283B004460221144827
:1027200003F058F8002108467F239F22FFF75EFF41
:1027300064BA1048ADF8044001224FF4007103F070
:1027400049F88025A024013C0B48022201A9A4B22B
:1027500006F004F8002CF6D1013DADB2002DF1D108
:1027600003480122022103F035F803B030BD00BF59
:10277000000402400000024070AE00202DE9F0414C
:102780009F28069E0BD87F290D4608D81F46831820
:10279000A02B0446904602DCCB19802B01DDBDE85E
:1027A000F08110480022022103F014F8E0B2E9B2EF
:1027B0007B1E08F1FF320B440244DBB2D2B2FFF7BA
:1027C00015FF094801224FF4007103F003F807FBDD
:1027D00008F35A0031460548BDE8F04192B205F0D1
:1027E000BDBF00BF000402400000024070AE0020E8
:1027F00010B582B0134B00240094596C41F4804111
:102800005964586C00F48040009000980194186C52
:1028100040F0805018641B6C03F0805322460193F3
:102820000E216FF00100019B02F000FC052108461B
:10283000224602F0FBFB052002B0BDE8104002F08A
:102840002FBC00BF00380240F0B5314B026889B0A0
:1028500000249A42CDE90244CDE90444069401D013
:1028600009B0F0BD2B4F00943B6B43F002033B6378
:102870003B6B03F0020300934FF48062009B122332
:10288000CDE902230326042302A905462248CDE907
:10289000056302F0E3FD0923082206931223CDE924
:1028A00002231D480596012302A9049302F0D6FDD8
:1028B00001943B6C194E1A4AB46043F480033B64A4
:1028C0003B6C326003F4800301934FF48063C6E9EC
:1028D00003434FF060624FF400333046C6E90544CD
:1028E000C6E9074301997260746202F0F9FB58B9B6
:1028F000AE63002205212120B56302F097FB212061
:1029000002F0CEFB09B0F0BDFFF768FDF0E700BFB5
:1029100000580040003802400004024020AF002070
:102920004060024070B50368484A8CB0002493426E
:10293000CDE90644CDE908440A9404D0444A9342C0
:1029400024D00CB070BD434B01945A6C424842F401
:1029500080525A645A6C02F480520192019A029495
:102960001A6B42F001021A631B6B03F0010302931E
:102970000322052306A9E0240225CDE90645CDE979
:102980000923029C02F06AFD0CB070BD314B039428
:102990005A6C42F400525A645A6C02F40052039288
:1029A000039A04941A6B42F001021A631A6B02F044
:1029B00001020492049A05941A6B42F002021A630F
:1029C0001B6B03F00203059302220223CDE90623C9
:1029D0000326052306A905461F48059ACDE9096384
:1029E00002F03CFD4FF40053069302231B4807936B
:1029F00006A90623CDE908460A93194E02F02EFDDA
:102A0000184A74624FF00063C6E900234FF48063F4
:102A10004022336130464FF44033C6E90224C6E910
:102A20000544C6E9074302F05BFB58B900220721C1
:102A3000AE645420B56302F0F9FA542002F030FB82
:102A40000CB070BDFFF7CAFCF0E700BF00300140DA
:102A500000340140003802400000024000040240FF
:102A60000CAE0020286402400368B3F1804F84B0AC
:102A700015D0194A934204D0184A93421ED004B08C
:102A80007047174B002202921A6C42F002021A643D
:102A90001B6C03F002030293029B04B0704703F522
:102AA0000E33002201921A6C42F001021A641B6C70
:102AB00003F001030193019B04B07047084B00220F
:102AC00003921A6C42F004021A641B6C03F00403B4
:102AD0000393039B04B070470004004000080040CB
:102AE000003802400000000000B5026889B00023F1
:102AF000B2F1804FCDE90233CDE90433069301D022
:102B000009B000BD02F50E320193136B0C4843F07F
:102B100001031363136B9FED087B03F00103019323
:102B200002A901238DED027B019A069302F096FC27
:102B300009B000BDAFF3008000800000020000007B
:102B40000000024030B589B000241F4B02945A6C3B
:102B500042F480225A645B6C03F4802301A902933F
:102B6000054603A8029B05F0A3F805F091F8174964
:102B7000174A0A6040F2E732CA60164A0C61A2FBAB
:102B800000239B0C013B0846C1E901348C6105F030
:102B90005BFF044610B1204609B030BD0B4805F07C
:102BA000CDFF04460028F6D11A2002F079FA0F2D45
:102BB00001D90124EFE7224629461A2002F036FA0D
:102BC000054B1D60E7E700BF00380240E0AF002082
:102BD0000048014083DE1B43C4000020FEE700BF25
:102BE000FEE700BFFEE700BFFEE700BFFEE700BF55
:102BF000704700BF704700BF012002F0F9BD00BF61
:102C0000042002F0F5BD00BF082002F0F1BD00BFB6
:102C1000102002F0EDBD00BF014802F043BB00BF31
:102C200020AF0020402002F0E3BD00BF014806F0C5
:102C3000D7B900BFE0AF0020014804F081B800BF61
:102C400080AF0020014802F02DBB00BF0CAE002079
:102C5000014805F035BE00BF70AE0020012070476E
:102C600008B539F09DFD162303604FF0FF3008BD15
:102C700008B539F095FD16230360FEE770B5161E02
:102C800007DD0C468D19AFF3008004F8010BA54257
:102C9000F9D1304670BD00BF70B5161E07DD0C4679
:102CA0008D1914F8010BAFF30080A542F9D130461D
:102CB00070BD00BF4FF0FF30704700BF4FF40053AE
:102CC0004B600020704700BF012070470020704714
:102CD0000C490D4A0B6810B50C4C121B2BB1184453
:102CE000904207D80860184610BD094B0B60184485
:102CF0009042F7D939F054FD0C2303604FF0FF33B5
:102D0000184610BD28B0002000000220000400007A
:102D1000B8D70120034AD2F8883043F47003C2F8D0
:102D20008830704700ED00E038B500224FF4807124
:102D300005462148214C02F04DFD012280211E480C
:102D400002F048FD642007F04BF91B480022802167
:102D500002F040FD012218484FF4807102F03AFD64
:102D6000174818495223038000F08CFE034614488C
:102D7000237001F0B7FC01212070114801F0EEFA38
:102D8000207065B940210E4801F014FA0F21034666
:102D90000B48237001F07AFA2070012038BD102111
:102DA000074801F007FA3C2103460548237001F06B
:102DB0006DFA2070012038BD000402402DC00020B3
:102DC0007CB500202CC000202DE9F0479A4B04462A
:102DD000884693E80300994BC4B0CDE9000193E81D
:102DE000030002AD04F5A06685E803004FF44272CB
:102DF00004F5FC71304639F008FDB8F1100F32D0FF
:102E00004FF44273324642F6F8412046FFF71CFB6E
:102E1000C92780464FF0000903E094F80135032BE1
:102E20001BD0042332464FF430512046FFF720FBDD
:102E30000A2105462046FFF78FFB013F054349EA7B
:102E4000050517F0FF075FFA85F900F0ED8094F8AB
:102E500002357E2BE1D949F0420948EA0900C0B2A7
:102E600044B0BDE8F0876F4603CFC4F80805C4F846
:102E70000C1503CD04F23457C4F82005C4F824150A
:102E800030464FF44271FFF74DFB4FF480723946E4
:102E9000284639F0BAFCD5E9002302EB030CD5E94A
:102EA00002131944D5E904321A44D5E9060300EBAC
:102EB000030ED5E9100300EB0308D5E9120300EB7C
:102EC00003092B6AA86A9C442B6B02EB030AAB6EC6
:102ED000AA6B724403EB090E6B6A9C44EB6A0844CC
:102EE000184480086860686B296E82444FEA9A0033
:102EF000A860E86B02449208EA606A6E414411449B
:102F0000EA6E0EEB02039B086B61D5E914324FEABF
:102F10009C0C89081344C5F800C029612A6F03EB93
:102F20000209D5E9162302EB030CD5E92013194455
:102F3000D5E922231A44D5E9240300EB030ED5E991
:102F4000260300EB0308D5E930300344A86F84441E
:102F5000D5F8A0000844D5F8A8101144D5F8B02041
:102F60009644D5F8B8209044D5F8E0201A446B6F09
:102F700099444FEA9903AB61EB6F9C444FEA9C0381
:102F8000EB61D5F8A4301844D5F8AC301944D5F825
:102F9000B4309E444FEA9E03AB62D5F8BC309844EF
:102FA0004FEA9803EB62D5F8E4301A4480088908A8
:102FB0009208286269622A63D5E932329918D5E904
:102FC00034321A44D5E936300344D5F8E8000144D8
:102FD000D5F8F0000244D5F8F8000344D5F8EC0029
:102FE000014489086963D5F8F4100A449208AA6379
:102FF000D5F8FC2013449B08C022002114A8EB63E1
:1030000039F06BFB4FF480722946384639F0FDFBEE
:103010004FF442713046FFF785FA094AC4F8342666
:103020000023C4F87835EBE649F0010948EA0900C5
:10303000C0B244B0BDE8F087A401040828FD03082D
:10304000A0FC01002DE9F047564F064655BA8846C8
:1030500097E8070084B001AC84E807004FF0010C4A
:103060000C23224642F6F4713046ADF804508DF838
:1030700006C0FFF7E9F9C92581464FF0000A06F5B9
:10308000A06703E096F80135032B1AD004233A46D3
:103090004FF430513046FFF7EBF90A210446304631
:1030A000FFF75AFA013D04434AEA040415F0FF050C
:1030B0005FFA84FA73D096F802357E2BE2D94AF093
:1030C000420A1C233A4642F604413046FFF7D0F943
:1030D00040EA0A0049EA00091C213846FFF722FAB3
:1030E000A8F205539B1B022B5FFA89F913D9D6F876
:1030F0000435C8F80030D6F80835C8F80430D6F8DA
:103100000C35C8F80830D6F81035C8F80C304846E9
:1031100004B0BDE8F08796F8043588F8003096F8DA
:10312000053588F8013096F8063588F8023096F8AB
:10313000073588F8033096F8083588F8043096F893
:10314000093588F8053096F80A3588F8063096F87B
:103150000B3588F8073096F80C3588F8083096F863
:103160000D3588F8093096F80E3588F80A3096F84B
:103170000F3588F80B3096F8103588F80C3096F833
:10318000113588F80D3096F8123588F80E3096F81B
:10319000133588F80F30484604B0BDE8F0874AF090
:1031A000010A8EE730FD03082DE9F047424F06463D
:1031B00055BA894697E8070084B001AC84E8070057
:1031C0004FF0800C0C23224642F6F4713046ADF8E5
:1031D00004508DF807C0FFF737F9C92580464FF036
:1031E000000A06F5A06703E096F80135032B1AD014
:1031F00004233A464FF430513046FFF739F90A219B
:1032000004463046FFF7A8F9013D04434AEA0404A6
:1032100015F0FF055FFA84FA4BD096F802357E2B45
:10322000E2D94AF0420A14233A4642F604413046B3
:10323000FFF71EF940EA0A0048EA00081421384660
:10324000FFF770F9A9F205539B1B022B5FFA88F870
:103250000BD9D6F80435C9F80030D6F80835C9F8C6
:103260000430404604B0BDE8F08796F8043589F88C
:10327000003096F8053589F8013096F8063589F85A
:10328000023096F8073589F8033096F8083589F842
:10329000043096F8093589F8053096F80A3589F82A
:1032A000063096F80B3589F80730404604B0BDE883
:1032B000F0874AF0010AB6E730FD03082DE9F04730
:1032C000884682B0064652BA402300240421404674
:1032D0000194ADF804208DF80730FFF723F998F832
:1032E000031086F8071598F8021086F8061598F866
:1032F0000110254B86F8051598F80010C6F80C3516
:103300004FF07062019B86F8041506F5A067C6F8B9
:103310000825C6F800353A46102342F6F0713046CB
:10332000FFF792F8A2468146C92503E096F80135D9
:10333000032B1AD004233A464FF430513046FFF79E
:1033400097F80A2104463046FFF706F9013D044389
:103350004AEA040415F0FF055FFA84FA11D096F8E2
:1033600002357E2BE2D94AF0420A40460421FFF79B
:10337000D9F849EA0A095FFA89F9484602B0BDE876
:10338000F0874AF0010AF0E70501000C2DE9F0474B
:10339000884682B0054652BA802300240821404660
:1033A0000194ADF804208DF80730FFF7BBF898F8CA
:1033B000071085F80B1598F8061085F80A1598F887
:1033C000051085F8091598F8041085F8081598F87F
:1033D000031085F8071598F8021085F8061598F877
:1033E0000110254B85F8051598F80010C5F8103523
:1033F0004FF07062019B85F8041505F5A067C5F8CC
:103400000C25C5F800353A46142342F6EC712846DF
:10341000FFF71AF8A2468146C92603E095F8013560
:10342000032B1AD004233A464FF430512846FFF7B5
:103430001FF80A2104462846FFF78EF8013E044390
:103440004AEA040416F0FF065FFA84FA11D095F8F0
:1034500002357E2BE2D94AF0420A40460821FFF7A6
:1034600061F849EA0A095FFA89F9484602B0BDE8FD
:10347000F0874AF0010AF0E7050100102DE9F04756
:103480000F4682B0054652BA012300241021384667
:103490000194ADF804208DF80630FFF743F8F97B6E
:1034A00085F81315B97B85F81215797B85F8111508
:1034B000397B85F81015F97A85F80F15B97A85F8F2
:1034C0000E15797A85F80D15397A85F80C15F97984
:1034D00085F80B15B97985F80A15797985F80915F4
:1034E000397985F80815F97885F80715B97885F8D8
:1034F0000615797885F805153978234B85F8041574
:103500004FF070620199C5F8001505F5A068C5F87F
:103510001425C5F8183542461C2342F6E4712846A6
:10352000FEF792FFA2468146C92603E095F80135D1
:10353000032B1AD0042342464FF430512846FEF79D
:1035400097FF0A2104462846FFF706F8013E044388
:103550004AEA040416F0FF065FFA84FA11D095F8DF
:1035600002357E2BE2D94AF0420A38461021FEF796
:10357000D9FF49EA0A095FFA89F9484602B0BDE86D
:10358000F0874AF0010AF0E7050100182DE9F04F35
:103590002E4B04460F4693E80300EDB0083308AE07
:1035A00086E8030093E803000DF1280804F5A06500
:1035B00088E803004FF4F47204F11001284639F052
:1035C00024F9102F44D04FF4F27204F5A16128467B
:1035D00039F06AF8B8E803004FF4F473C4F8E00671
:1035E000C4F8E4162A4642F618612046FEF72CFF7E
:1035F0004FF0C9080746002603E094F80135032B75
:103600001DD004232A464FF430512046FEF730FFE8
:103610000A2181462046FEF79FFF08F1FF3849EA5C
:10362000000946EA090918F0FF085FFA89F600F078
:10363000218294F802357E2BDFD946F0420647EA14
:103640000600C0B26DB0BDE8F08F00BF3CFD0308BE
:1036500003CEC4F81005C4F8141528464FF4F471CD
:103660002CAEFEF75FFF04F23C5319464FF4807214
:1036700030460CAF019339F0C8F804F5C863194619
:1036800080223846029339F0C0F8D6E9003213445C
:10369000326AB7F90000B7F908E01344726A1344BC
:1036A0009B083360B7F902301844B7F9103018445A
:1036B000B7F91230C018D6E902321344B26A134483
:1036C000F26A13444FEA9303B7F906207360B7F91F
:1036D00004301344B7F914201344B7F9162048BF37
:1036E00003309B18D6E904120A44316B0A44716B0B
:1036F0000A444FEA9202B260B7F90A209644B7F939
:1037000018209644B7F91A2048BF03331EEB020E67
:10371000D6E906210A44B16B1144F26B0A444FEA20
:103720009202F260B7F90C20B7F90E100A44B7F90B
:103730001C1040F38F000A444FF0000CB7F91E1024
:1037400043F38F03E34660F30F0C63F31F4C48BF52
:103750000EF1030E531848BF03334EF38F0E6EF372
:103760000F0B9B1063F31F4BD6E910321344326EDC
:10377000B7F92000B7F928E01344726E13449B0890
:103780003361B7F922301844B7F930301844B7F92B
:103790003230C018D6E912321344B26E1A44F36EB6
:1037A00013444FEA9303B7F926207361B7F9243025
:1037B0001344B7F934201344B7F9362048BF033017
:1037C0009B18D6E914210A44316F1144726F0A44E0
:1037D0004FEA9202B261B7F92A209644B7F938202D
:1037E0009644B7F93A2048BF03331EEB020ED6E9E0
:1037F00016210A44B16FB7F93EA01144F26F0A4492
:103800004FEA9202B7F92E10F261B7F92C200A4460
:10381000B7F93C100A4448BF0EF1030E002112EB29
:103820000A0248BF033240F38F004EF38F0E8946E1
:1038300043F38F0360F30F016EF30F09921063F3EC
:103840001F4162F31F49D6E920321344D6F8A02065
:1038500007911A44D6F8A43013449B08B7F94220C4
:103860003362B7F940301344B7F950201344B7F925
:1038700052209B1848BF033343F38F031946D6E900
:1038800022321344D6F8A8201A44D6F8AC30134498
:103890009B08B7F946207362B7F944301344B7F96F
:1038A00054201344B7F956209B1848BF033343F301
:1038B0008F030393D6E924321344D6F8B0201A4478
:1038C000D6F8B43013449B08B362B7F94830B7F95F
:1038D0004A201A44B7F958301344B7F95A209B18B4
:1038E00048BF033343F38F0AD6E926321344D6F890
:1038F000B8201A44D6F8BC3013449B08B7F94C20C2
:10390000F362B7F94E301344B7F95C201344B7F9AA
:103910005E2000209B1848BF033386466AF30F0ED3
:103920009B1063F31F4ED6E930321344D6F8E020E3
:103930001A44D6F8E43013449B08B7F96220336385
:10394000B7F960301A44B7F970301344B7F97220F0
:103950009B1848BF033343F38F0361F30F000399B0
:103960000393D6E932321344D6F8E8201A44D6F845
:10397000EC3013449B08B7F966207363B7F96430E1
:103980001A44B7F974301344B7F97620C7F800C069
:103990009B1848BF033343F38F030493D6E93432B3
:1039A0001344D6F8F020CDF834B01A44D6F8F430E9
:1039B000CDF83C9013449B08B7F96A20B363B7F97C
:1039C00068301A44B7F978301344B7F97A209B1855
:1039D00048BF033361F31F4043F38F01D6E936320A
:1039E0001344D6F8F82005911A44D6F8FC30B7F9FC
:1039F0007E10069113449B08B7F96C20F363B7F966
:103A00006E30039910901344B7F97C2013440022C0
:103A1000924661F30F02049961F31F42059961F325
:103A20000F0A06995B1848BF03339B1007990E9144
:103A300063F31F4ACDF844E00021129214A86022DB
:103A4000CDF84CA038F049FEC02200213CA838F047
:103A500044FE314601984FF4807238F0D6FE394664
:103A60000298802238F0D1FE4FF4F4712846FEF718
:103A700059FDA8E546F0010647EA0600C0B26DB060
:103A8000BDE8F08F70B5002282B00D4647F6FF7199
:103A90000646FEF7C3FC00210DF10602044630463F
:103AA000FEF79EFC012104430DF107023046FEF7AC
:103AB00097FCE4B204430222304647F6FF71FEF75A
:103AC000ADFC9DF80630E4B22043F02BC0B203D029
:103AD00000232B7002B070BD9DF80730A3F10203E4
:103AE000B3FA83F35B092B7002B070BD2DE9F04F80
:103AF0000446A1B000F5A0694FF44073002545F2DB
:103B0000504249460A93CDE90B55FFF74DFB94F817
:103B1000012594F800A5B24B08901AFB02FAFF2287
:103B200003F1100CA2700FCB0DF1400888E80F00D4
:103B3000BCE80F0014AF0FC7BCE80F0065600FC7EB
:103B40009CE80F0040F6FF7E5FFA8AFB87E80F00D3
:103B5000DA4613AECDF840E00BE00C2919D86AF331
:103B60000F1211FB0B3332800433636001350C2DCF
:103B700012D056F8043F2EFA05F2002BF6D0D307E8
:103B8000F4D53278636812F00F0F02F00F0132881B
:103B9000E3D103EB1213E7E7636818336360302166
:103BA00014A8FEF7BFFC04F2045A14AF56463D4673
:103BB0000FCDF36020AB9D4206F1100607F1100710
:103BC00046F8100C46F80C1C46F8082CEFD1854B33
:103BD000C4F80035844BC4F838354FF07063C4F82E
:103BE00034354A463C2342F6C4712046FEF72CFC8D
:103BF000C9250990002703E094F80135032B19D05B
:103C000004234A464FF430512046FEF731FC0A2186
:103C100006462046FEF7A0FC013D06433E4315F054
:103C2000FF05F7B200F0D18094F802357E2BE3D97E
:103C300047F0420714A83021FEF774FC0D230C93C3
:103C40004DF6681263680B930BA92046FFF79EFBA5
:103C5000414602904DF670122046FFF70FFC0022FD
:103C6000039047F6FF712046FEF7D8FB052204902B
:103C700009212046FEF7D2FB0222059047F6FF718C
:103C80002046FEF7CBFB042306900AAA42F6FC71FD
:103C90002046FEF7D9FBC9250790002603E094F8DB
:103CA0000135032B1CD004234A464FF430512046E3
:103CB000FEF7DEFB0A2180462046FEF74DFC013D63
:103CC00048EA000846EA080815F0FF055FFA88F69A
:103CD00000F0828094F802357E2BE0D946F042064F
:103CE000424A07CA0DAD85E8070044F2540E4FF072
:103CF000C00C2A460C2342F6F4712046ADF834E09D
:103D00008DF837C0FEF7A0FB4FF0C90883460025A9
:103D1000019603E094F80135032B54D004234A465E
:103D20004FF430512046FEF7A3FB0A2106462046F9
:103D3000FEF712FC08F1FF3846EA00032B4318F0A7
:103D4000FF08DDB244D094F802357E2BE2D9019E03
:103D500045F0420518234A4642F604412046FEF744
:103D600087FB182180464846FEF7DCFB0C225146B3
:103D7000484638F099FCB4F8082563689A421ED189
:103D8000DDE9083213431F43029B039A3B431A4366
:103D90001346049A1A431346059A1A431346069A81
:103DA0001A431346079A1A4316434BEA060B45EA91
:103DB0000B0548EA0500C0B221B0BDE8F08FFF2036
:103DC00021B0BDE8F08F019EC4E747F0010731E75D
:103DD000019E45F00105BDE746F0010680E700BF02
:103DE0004CFD0308D98003000501003830FD0308AD
:103DF0002DE9F04182B0002104230DEB03028DF880
:103E00000310019142F6FC710546FEF731FB019A61
:103E100040F2FF439A42044602D095F8AC2AA2B37E
:103E20000DF103073A4606212846FEF7D9FA9DF917
:103E300003300443002BE4B25DDB002247F6FF7140
:103E40002846FEF7EBFA0022044314212846FEF729
:103E5000E5FAE4B20022044315212846FEF7DEFA13
:103E6000E4B20422044309212846FEF7D7FAE4B25B
:103E70000222044347F6FF712846FEF7CFFAE4B268
:103E80002043C0B202B0BDE8F08147F6FF7128467A
:103E9000FEF7C4FA1622152106462846FEF7BEFA9A
:103EA0000122064314212846FEF7B8FA3443E4B24F
:103EB000044340F2F518E4B20DF103079DF9033015
:103EC000002B3A464FF006012846ABDBFEF788FA96
:103ED0000A2106462846FEF73FFB08F1FF38064355
:103EE00026431FFA88F8F4B2B8F1000FE6D19DF826
:103EF00003301C4396E73A4607212846FEF770FA3E
:103F00009DF8032002F17C030443DBB2E4B2012BF1
:103F100088BF144391E700BF10B4064B064C1960EC
:103F2000206043685DF8044B00F5A0620021FEF7B5
:103F3000CBBA00BF30C0002034C00020984B1A78A4
:103F4000012A00D070472DE9F047964C20680022E6
:103F50001A7090F800358370818800F5A060FEF734
:103F6000E1FAD4F80090904BD9F804C01C68BCF179
:103F7000100F5ED910234DF6C4364EF244074EF2B0
:103F800084081DE045F2D0518A4200F0D88000F24A
:103F90009F8045F2B4418A4200F0BE8045F2D04194
:103FA0008A4209D103F2045309EB03012A46201D7A
:103FB00038F02BFCD9F804C005EB0A039C4538D92E
:103FC00003F5A06209EB020E19F8021039F802207D
:103FD00001F00F0101F10E00C2F30B1A00F00F0007
:103FE000BEF802200A28554698BF11FB0AF5B242D6
:103FF00003F1040A00F09780C4D9BA4200F0B780F8
:104000007BD84DF6C4618A4200F0A5804DF644711C
:104010008A42D1D103F2045309EB03012A4604F585
:10402000717038F0F2FBD9F804C005EB0A039C4527
:10403000C6D804F58071234653F8042FD20A99425A
:104040001A60F9D104F2C23004F2423304F2434E52
:1040500004F5107C054630F9021FCE1C4FF000021B
:1040600003DB0A1EB8BF0332921002801EF8012F34
:1040700052088EF8002033F8021F5CF8042FC9099B
:10408000D20A9D421980CCF80020E4D104F2031337
:1040900004F24311FF2001E08B4207D013F8012FF7
:1040A000002AF9D18B4283F88003F7D13F4904F20B
:1040B000CC4204F24C5452F8043FA1FB0303DB0B47
:1040C00094421360F7D13A4B01221A70BDE8F08791
:1040D0004DF658018A4256D04DF684318A427FF41B
:1040E0006BAF03F2045309EB03012A4604F5827017
:1040F00038F08BFBD9F804C05EE742457FF45CAF33
:1041000003F2045309EB03012A4604F2844038F019
:104110007CFBD9F804C04FE74B4493F80C3523706F
:10412000D9F804C048E703F2045309EB03012A4617
:1041300004F5117038F069FBD9F804C03CE703F2CC
:10414000045309EB03012A4604F5A27038F05DFB25
:10415000D9F804C030E703F2045309EB03012A46FF
:1041600004F5517038F051FBD9F804C024E703F28C
:10417000045309EB03012A4604F2444038F045FB9E
:10418000D9F804C018E703F2045309EB03012A46E7
:1041900004F2C44038F039FBD9F804C00CE700BF82
:1041A000DFAF002034C0002030C00020018000803C
:1041B000DEAF00201029F8B50E46054640D0402954
:1041C0003CD100F5A0674AF638523946FEF73AFF6F
:1041D000102385F8043585F80635012385F809355F
:1041E0004AF63852044639462846FFF747F945F261
:1041F0005042044339462846FEF7D6FFE4B240F663
:104200000803A5F80035044340F20443A5F804353B
:1042100045F2504239462846FFF7B8F8E4B2044365
:10422000E4B231462846FFF7B1F931460443284647
:10423000FEF7CAFDE4B22043C0B2F8BD7F24F0E728
:1042400000F5A0674AF638523946FEF7FBFE4023D8
:1042500085F8043585F80635042385F809354AF6CE
:104260003852044639462846FFF708F945F25042CD
:10427000044339462846FEF797FFE4B240F2044370
:10428000A5F80035044340F60803BFE72DE9F047E1
:10429000314B0646894693E8070084B001AB83E8BA
:1042A000070045F6540040211A46ADF804008DF889
:1042B00007100C2342F6F4713046FEF7C5F806F5F8
:1042C000A0678046C9254FF0000A03E096F8013543
:1042D000032B1AD004233A464FF430513046FEF7F0
:1042E000C7F80A2104463046FEF736F9013D04437B
:1042F0004AEA040415F0FF055FFA84FA28D096F81C
:1043000002357E2BE2D94AF0420A3A46102342F6A1
:1043100004413046FEF7ACF840EA0A0048EA0008DB
:1043200010213846FEF7FEF8D6F80435C6F80035F9
:1043300045F2584286F8019539463046FEF7BEFFF1
:104340005FFA88F840EA0800C0B204B0BDE8F08720
:104350004AF0010AD9E700BF30FD03082DE9F04714
:1043600000F5A06782B00C4600254AF63052394667
:1043700006460195FEF718FF012C804660D0032CFD
:104380005BD10223012586F8014586F803350195A6
:1043900008213846FEF7C6F80822394606F20450CE
:1043A00038F082F9294A2A4BC6F800254FF070618F
:1043B000C6F80C15C6F810353A46142342F6EC71CF
:1043C0003046FEF741F8C92581464FF0000A03E068
:1043D00096F80135032B1AD004233A464FF4305196
:1043E0003046FEF745F80A2104463046FEF7B4F899
:1043F000013D04434AEA040415F0FF055FFA84FA1C
:1044000020D096F802357E2BE2D94AF0420A38468F
:104410000821FEF787F84DF6641201A93046FEF731
:104420004DFF48EA09085FFA88F84AEA080A4AEAAA
:104430000000C0B202B0BDE8F0874FF07F08A7E7E8
:104440000323A0E74AF0010AE1E700BFAD30008096
:1044500005010010B3F5B46F2DE9F84F04D94FF002
:10446000FF0B5846BDE8F88F9846DDB20024130ACA
:1044700063F3070462F30F2489464FEA281363F3BA
:10448000174406462B014146484663F31F64FEF776
:1044900049F808F1FF324FF6FF7392B29A420AD000
:1044A000531C02F205524B44324413F8011D02F82A
:1044B000011D4B45F9D108F20450331808F10802E8
:1044C000C6F800451212C8F53F514FF070643450E1
:1044D00008359A71343140F2051206F5A06ADD7193
:1044E0009A8089B208F10C0352463046FDF7ACFFC2
:1044F000C9258346002703E096F80135032B18D021
:10450000042352464FF430513046FDF7B1FF0A21E3
:1045100004463046FEF720F8013D04433C4315F0C5
:10452000FF05E7B210D096F802357E2BE4D947F0AC
:1045300042074BEA070B484641465FFA8BFBFDF703
:10454000F1FF5846BDE8F88F47F00107F1E700BFDB
:104550002DE9F04F9246624A89B00546894607CA5E
:104560001F46BDF84C300193B7F5B46F05AB83E837
:104570000700BDF850B011D9FF24019A129909EB38
:104580000B0038F042F93B46524649462846FFF7B1
:1045900061FF2043C0B209B0BDE8F08F1A464FEA70
:1045A0001A21002361F307036AF30F23391161F322
:1045B0001743390161F31F63059342F6F4710C232D
:1045C0002846FDF741FFC9260390002405F5A068A1
:1045D000029703E095F80135032B6CD00423424683
:1045E0004FF430512846FDF743FF0A21074628467D
:1045F000FDF7B2FF013E47EA0003234316F0FF0632
:10460000DCB269D095F802357E2BE3D9029F44F0E5
:10461000420407F10C063346424642F6044128465E
:10462000FDF726FFB1B202904046FDF77BFF0FFA7F
:1046300087FC002F38D07B1E052B3ED9A9F20552EE
:10464000521B022A4B4638D9B80809EB800005F204
:10465000045252F8041B43F8041B8342F9D127F09B
:104660000303B9079AB21BB21ED0043305FA83F3D1
:1046700093F8003509F80230531C19B261459BB21A
:1046800012DA511D15FA81F191F8001509F803109D
:10469000931C18B2844599B206DD931D9BB22B443E
:1046A00093F8003509F80130029B23431C46039B15
:1046B0002343DCB261E7029FABE707F2035015FA30
:1046C00080F005F2035309F1FF3213F8011F02F8DD
:1046D000011F8342F9D1E7E7029F44F0010498E704
:1046E00030FD03082DE9F04788B0824B8249836092
:1046F0004FF000094FF001120126C160069247F603
:10470000FF714A4680F8AC9A04460796FDF786FE8C
:104710000422054609212046FDF780FE402205437C
:104720000F212046FDF77AFEEDB2054303220A2150
:104730002046FDF773FEEDB205430DF1150247F675
:10474000FF712046FDF74CFEEDB2324605430C21C9
:104750002046FDF763FEEDB205434A4640F20111E3
:104760002046FDF75BFEEDB205434A464FF48171EA
:104770002046FDF753FEEDB2324605434FF48571F6
:104780002046FDF74BFEEDB23246054344F20201EE
:104790002046FDF743FEEDB205434A4644F20201CE
:1047A0002046FDF73BFEEDB2054303224FF4857131
:1047B0002046FDF733FEEDB23246054340F20311C9
:1047C0002046FDF72BFEEDB205434A460C2120465C
:1047D000FDF724FEEDB2432205430F212046FDF7ED
:1047E0001DFEEDB2314605432046FDF7B5FEEDB2A4
:1047F000054340220F212046FDF710FEEDB2324660
:1048000005430A212046FDF709FEEDB20543642168
:104810002046FDF7A1FEEDB205434A4647F6FF717B
:104820002046FDF7FBFDEDB205435FFA85F8C9268A
:1048300004F5A06701233A4606212046FDF718FE3D
:104840000A2105462046FDF787FE013E054349EA59
:10485000050516F0FF065FFA85F900F0198294F855
:1048600000A5BAF1010FE5D158EA090540F00C8224
:1048700052460E212046FDF7D1FD0222804647F622
:10488000FF712046FDF7CAFD0D2248EA000803210A
:104890002046FDF7C3FD5FFA88F848EA0008524653
:1048A00047F6FF712046FDF7B9FD5FFA88F848EA40
:1048B00000085FFA88F8AA464FF0C90901233A4672
:1048C00021212046FDF7D4FD0A2106462046FDF7AA
:1048D00043FE09F1FF3906434AEA060619F0FF09CB
:1048E0005FFA86FA00F0B18294F80035DA06E5D571
:1048F00004E000BF3C0B040834080408002247F61B
:10490000FF712046FDF78AFD48EA0A0848EA0008D8
:104910000DF1150247F6FF712046FDF761FD5FFAC4
:1049200088F6064301220C212046FDF777FDF6B2FA
:104930000643002247F6FF712046FDF76FFDF6B2F1
:104940000643002240F201112046FDF767FDF6B252
:10495000064300224FF481712046FDF75FFDF6B259
:10496000064301224FF485712046FDF757FDF6B24C
:104970000643012244F202012046FDF74FFDF6B244
:104980000643002244F202012046FDF747FDF6B23D
:10499000064303224FF485712046FDF73FFDF6B232
:1049A0000643012240F203112046FDF737FDF6B21F
:1049B0000643002244F20F012046FDF72FFDF6B218
:1049C0000643432240F21A212046FDF727FDF6B2A6
:1049D0000643032240F21A212046FDF71FFDF6B2DE
:1049E0000643012240F21A212046FDF717FDF6B2D8
:1049F0000643002240F21A212046FDF70FFDF6B2D1
:104A00000643002240F219212046FDF707FDF6B2C9
:104A10000643002240F21B212046FDF7FFFCF6B2C0
:104A20000643002247F6FF712046FDF7F7FCF6B279
:104A300006430DF1150247F6FF712046FDF7D0FC45
:104A4000F6B2064300220C212046FDF7E7FCF6B241
:104A50000643012247F6FF712046FDF7DFFCF6B260
:104A60000643072220212046FDF7D8FCF6B2064374
:104A7000062220212046FDF7D1FCF6B2064309228A
:104A800047F6FF712046FDF7C9FCF6B24FF400432C
:104A9000B94A064300212046FDF7D6FCF6B206438C
:104AA0000A2247F6FF712046FDF7B8FCF6B24FF434
:104AB0000043B24A064300212046FDF7C5FCF6B28A
:104AC00006430B2247F6FF712046FDF7A7FCF6B21E
:104AD0004FF4A043AA4A064300212046FDF7B4FC48
:104AE000F6B20643012247F6FF712046FDF796FC19
:104AF000F6B246EA0008022247F6FF712046FDF7AB
:104B00008DFC5FFA88F848EA00080D220321204650
:104B1000FDF784FC5FFA88F848EA0008012247F6AE
:104B2000FF712046FDF77AFC5FFA88F848EA000832
:104B30005FFA88F84FF0C90901233A46212120463F
:104B4000FDF796FC0A2106462046FDF705FD09F112
:104B5000FF3906432E4319F0FF09F5B200F06D81CD
:104B600094F80035DB06E7D548EA050818F0FF059C
:104B700040F08A802A4647F6FF712046FDF74EFC3A
:104B80000DF11502064647F6FF712046FDF728FC99
:104B9000012206430C212046FDF740FCF6B20643F5
:104BA0002A4647F6FF712046FDF738FCF6B2064369
:104BB0002A464FF48A712046FDF730FCF6B20643D0
:104BC0002A4640F215112046FDF728FCF6B20643AE
:104BD00042224FF48B712046FDF720FCF6B20643CB
:104BE0002A4640F217112046FDF718FCF6B206439C
:104BF0002A460B212046FDF711FCF6B206430DF1C3
:104C0000150247F6FF712046FDF7EAFBF6B20643B0
:104C10002A460C212046FDF701FCF6B2064301228C
:104C20000B212046FDF7FAFBF6B206435FFA86F841
:104C30004FF4FA7609E0FDF78FFC9DF81630013E3F
:104C400013F0010FB6B21AD1CEB10DF11602062142
:104C50002046FDF7C5FB9DF9162003462B43002A8D
:104C60004FF001012046DDB2E5DA0DF11702072110
:104C7000FDF7B6FB9DF817302B430343DDB248EA3E
:104C8000050818F0FF050BD0284608B0BDE8F087EE
:104C900048EA090747F00105284608B0BDE8F08753
:104CA000022247F6FF712046FDF7B8FB354A06465B
:104CB000282342F6D8712046FDF7C6FB06435FFA6B
:104CC00086F9AA464FF0C90803E094F80035022B94
:104CD0001CD004233A464FF430512046FDF7C8FB60
:104CE0000A2106462046FDF737FC08F1FF38064347
:104CF0004AEA060618F0FF085FFA86FA00F0A88074
:104D000094F802357E2BE0D94AF0420A4FF4F6734C
:104D10003A4642F604412046FDF7AAFB49EA0A0951
:104D200049EA00094FF4F472394604F1100037F0F3
:104D30006CFD10212046FEF729FC5FFA89F64FF43E
:104D400042721149064304F5FC7037F05EFD1021F4
:104D50002046FEF739F8F6B20643A2684FF47373A3
:104D600042F634412046FDF76FFBF6B206435FFA88
:104D700086F94FF0C9080DE0080F0408088F0408F1
:104D8000080F05080C0804088CFD030894F8013589
:104D9000032B1AD004233A464FF430512046FDF736
:104DA00067FB0A2106462046FDF7D6FB08F1FF38CF
:104DB00006432E4318F0FF08F5B24CD094F80235A4
:104DC0007E2BE3D945F04205EDB206A94DF68032BF
:104DD0002046FEF773FA49EA0505EDB207A9054337
:104DE0004DF664122046FEF769FA0DF1150301260F
:104DF0000093EDB2262302933946054301962823FA
:104E00004EF2081220468DF81560FFF7A1FBEDB2B7
:104E100005430DF115032046ECB2252500930295BC
:104E2000019628234EF208123946FFF791FB0443FE
:104E3000E5B2284608B0BDE8F08748EA050545F028
:104E40000105284608B0BDE8F0874AF0010A55E59B
:104E50004AF0010A5AE745F00105B6E7DFF834D019
:104E6000FDF758FF0C480D490D4A002302E0D458C5
:104E7000C4500433C4188C42F9D30A4A0A4C0023A4
:104E800001E013600432A242FBD337F08FFCFCF741
:104E900061FF704700000220000000203003002066
:104EA000D4F6050830030020B8D70120FEE7000043
:104EB0002DE9F0415FEA215E63D443885C1E7445AE
:104EC0005FDD5FEA225C5CD40488013C644558DD08
:104ED00003FB0CFC46686344F444C1F313042A4901
:104EE000734406EB4C0036F91CE0B0F902000D1BD0
:104EF000C2F313028EFB05E8A1EB020C4FEA1E1E63
:104F000006EB430180FB0C0736F91330B1F90210B0
:104F10004EEA087E4FEAEC764FEA28180EFB06F6BA
:104F2000000983FB05350CFB086640EA0770AEFB01
:104F30000CCEA0FB04083F1176441B0981FB041E24
:104F400010EB0C0004FB078443EA05734FEA1111D0
:104F500046EB04062D11A3FB023441EA0E711B1827
:104F60004FEA2E1EA1FB021002FB054444EB06048F
:104F700002FB0E00C91840EB040040F30F10BDE81F
:104F8000F0810020BDE8F081FFFF0F0008B50B4B5A
:104F90001A6842F400721A601A6842F480621A6059
:104FA0001A6842F480721A60032000F02DF8052080
:104FB000FDF7C8FDFDF71CFC002008BD003C0240C9
:104FC000034A044B11681B780B441360704700BF01
:104FD00038C00020C0000020014B1868704700BF97
:104FE00038C0002038B50446FFF7F6FF631C0546BD
:104FF00002D0044B1B781C44FFF7EEFF401BA0427D
:10500000FAD338BDC00000200749CA6803024FF632
:10501000FF0003F4E0630240134343F0BF6343F433
:105020000033CB60704700BF00ED00E01A4BDB6837
:10503000C3F3022300B5C3F1070EBEF1040F03F161
:10504000040C28BF4FF0040EBCF1060F1BD9A3F1CE
:10505000030C4FF0FF3303FA0CF322EA03024FF084
:10506000FF3303FA0EF321EA030303FA0CF31343AD
:105070001B010028DBB209DB00F1604000F5614054
:1050800080F8003300BD00229446E8E7034A00F0B0
:105090000F000244137600BD00ED00E0FCEC00E0E0
:1050A000002807DB044A4109012300F01F00834068
:1050B00042F82130704700BF00E100E000280CDB1F
:1050C0004309064900F01F0020330122824041F8C5
:1050D0002320BFF34F8FBFF36F8F704700E100E0D5
:1050E00038B50446FFF778FF002C6DD02368002206
:1050F000022184F8351084F834201A6822F0010265
:1051000005461A6005E0FFF767FF431B052B37D8FC
:1051100023681A68D107F6D4D4E90120E168024374
:105120000A43D4E90451A0692A430A43E1691D688E
:1051300002430A4331492940256A2A430A43616AE6
:10514000042924D01A605A6922F007021143D8B208
:105150002B4A59611038A2FB0052120929496FF3FA
:105160000903895CE1655F2888BF04333F228A40D8
:10517000A36500209A600123606584F8353038BD4E
:1051800003232022626584F83530184638BDD4E9FF
:105190000B512943114319605969A26A21F0070193
:1051A000114341F00401002DD1D078B1B0F5005F7A
:1051B00016D0022A03D9032AC9D1EA01C7D5402251
:1051C0000123626584F83530012038BD012A03D0FF
:1051D00032F00202BBD1F0E7B5F1C07FB7D1EEE704
:1051E000032AB4D801A050F822F000BFBF51000834
:1051F000BB510008BF510008D95100083F8010F092
:10520000ABAAAAAA085F050870B490F83440856D6F
:10521000012C0AD090F835404FF0010C644580F81D
:1052200034C005D0002380F83430022070BC7047B1
:10523000022680F83560046800264665266826F454
:105240008026266063608368402B0EBFA260A16049
:10525000E260C26D08BFE1603F239340AB6023680A
:10526000026C43F0160323601AB1236843F008036D
:105270002360236843F001030020236070BC704763
:1052800090F83530022B03D080234365012070470E
:105290000268052380F83530136823F001030020ED
:1052A00013607047F0B583B0674A876D16680023B6
:1052B0000193C36D3D6808229A402A42044603D0F8
:1052C00001680868400778D401229A402A4203D036
:1052D0002168496908066AD404229A402A4203D008
:1052E0002168096889075CD410229A402A4203D0B9
:1052F00021680868000741D420229A402A4214D02D
:1053000021680868C00610D5BA6094F83520052ACF
:1053100063D00B6813F4802F0B687ED0190340F123
:105320008980E36B0BB120469847636D23B3636DAF
:10533000DA071AD522684549052384F83530136801
:10534000A1FB061623F00103B60A136002E01368FE
:10535000DB0704D5019B0133B3420193F7D9012246
:10536000002384F8352084F83430E36C23B12046E0
:1053700003B0BDE8F040184703B0F0BDBA600A685A
:1053800012F4802F0A6822D1D20503D40A6822F0D1
:1053900008020A60226C002AAED020469047E36DD6
:1053A000AAE7BA60626D42F0040262659CE7BA60E7
:1053B000626D42F0020262658EE7086820F0040028
:1053C0000860BA60626D42F0010262657CE7110319
:1053D000E0D5A26C002AE0D18EE70A6822F016021E
:1053E0000A604A6922F080024A61226C3AB30A6874
:1053F00022F008020A603F2202FA03F3216DBB602B
:105400000122002384F8352084F834300029B3D0F9
:10541000204603B0BDE8F040084713F4807380D104
:105420000A6822F010020A60012284F8352084F80C
:10543000343076E7636C002B7FF475AF75E7A26CB0
:10544000002AD4D1D7E700BFBC000020B5814E1B95
:1054500090F83500704700BF406D70472DE9F04F60
:10546000A74A0B68904285B04FF000024FF0010B45
:1054700000F0D080DFF898E28A4603E00132102A7B
:1054800000F083800BFA02F101EA03069943F5D19B
:10549000DAF8044004F0030C510003250CF1FF3747
:1054A0008D40012F6FEA050572D9BCF1030F08D0BA
:1054B000C76807EA0508DAF808708F4047EA080766
:1054C000C76007680CFA01F13D40294314F4403FDE
:1054D0000160D3D08B4D00210391696C41F4804170
:1054E0006964696C01F480410391039922F003011E
:1054F00001F1804101F59C3102F003078D68BF0086
:105500004FF00F0C0CFA07FC25EA0C087E4DA84260
:1055100079D07E4DA84200F04E81DFF8F8C1604599
:1055200000F05081DFF8F0C160450CBF4FF0040C73
:105530004FF0070C0CFA07F748EA07058D60DEF814
:105540000810F543E70254BF29403143CEF8081054
:10555000DEF80C10A70254BF29403143CEF80C10DE
:10556000DEF80410A70354BF29403143CEF80410DD
:10557000DEF80010E40302F1010254BF2940314378
:10558000102ACEF800107FF47DAF05B0BDE8F08F93
:10559000876807EA0508DAF80C708F4047EA0807C1
:1055A0008760476827EA0608C4F30017974047EA70
:1055B00008074760C76807EA0508DAF808708F40EF
:1055C00047EA0807BCF1020FC7607FF47AAF4FEAE1
:1055D000D20900EB890902F00708D9F8207000977A
:1055E000DAF810704FEA880807FA08F701970F27D2
:1055F00007FA08F8009F27EA0808019F47EA08070A
:10560000C9F820705DE74FF0010C0CFA07F748EA83
:10561000070593E7DFF8ECA002E00132102AB4D0CE
:105620000BFA02F403EA04079C43F6D14D685400D8
:10563000032606FA04FC05F003096FEA0C0809F1D9
:10564000FF3CBCF1010F69D9B9F1030F0AD0D0F8C2
:105650000CE08E6808EA0E0E06FA04FC4CEA0E0C0A
:10566000C0F80CC0D0F800C009FA04F40CEA080C29
:1056700044EA0C0415F4403F0460CED000240394A7
:10568000DAF8444044F48044CAF84440DAF844402C
:1056900004F480440394039C22F0030404F1804446
:1056A00004F59C3402F0030CD4F808E00F264FEA0E
:1056B0008C0C06FA0CFC2EEA0C0CC4F808C0144C36
:1056C000EE02A4686FEA070C73D404EA0C04104ECF
:1056D000B460F468AE026AD404EA0C040C4EF460C0
:1056E0007468AE0361D404EA0C04094EED037460DF
:1056F000346858D404EA0C04054D2C608DE700BFD3
:10570000000002400038024000040240000802404D
:10571000003C0140000C024000100240D0F808E0BC
:10572000CE6808EA0E0E06FA04FC4CEA0E0CC0F82D
:1057300008C0D0F804E0C5F3001C2EEA070E0CFAEE
:1057400002FC4CEA0E0CC0F804C0D0F80CE08E68E5
:1057500008EA0E0E06FA04FC4CEA0E0CB9F1020F30
:10576000C0F80CC07FF47EAF4FEAD20C4FEA8C0C2D
:105770000CF1804C0CF5003C02F0070EDCF82060C8
:1057800000960E694FEA8E0E06FA0EF601960F2667
:1057900006FA0EFE009E26EA0E0E019E46EA0E0E48
:1057A000CCF820E05EE73C43A6E73C439DE73C4362
:1057B00094E73C438BE74FF0020C0CFA07F748EAFA
:1057C0000705BBE64FF0030C0CFA07F748EA07059C
:1057D000B4E600BF02B9090481617047436901EA78
:1057E000030221EA030141EA02418161704700BFDF
:1057F000044A5169014200D1704708B55061FCF775
:10580000E1FC08BD003C014030B54D1C83B00446AE
:1058100022D1036802E05A69520505D45A699107FA
:10582000F9D5002003B030BD1A6842F400721A6046
:1058300000216FF4806020225861216384F83D20AC
:1058400084F83E10236C43F00403236400230120FA
:1058500084F83C3003B030BD0D460168E5B14869BD
:10586000019280070B46DCD449694A05DCD4FFF776
:10587000B3FB019A2168831A9D42F0D24B699807C5
:10588000EDD400232022236384F83D2084F83E30A9
:10589000236C13432364D9E74A6990070B46C0D4AD
:1058A0004A695205C0D4FFF797FB21684B699D07F1
:1058B000F2D4E6E730B54D1C83B0044622D103682C
:1058C00002E05A69520505D45A691107F9D500203A
:1058D00003B030BD1A6842F400721A6000216FF400
:1058E000806020225861216384F83D2084F83E10B6
:1058F000236C43F0040323640023012084F83C302C
:1059000003B030BD0D460168E5B14869019200075A
:105910000B46DCD449694A05DCD4FFF75DFB019AEC
:105920002168831A9D42F0D24B691807EDD40023F9
:105930002022236384F83D2084F83E30236C1343F7
:105940002364D9E74A6910070B46C0D44A69520557
:10595000C0D4FFF741FB21684B691D07F2D4E6E78D
:105960002DE9F043056883B099460A9C2B68904660
:1059700043F48073621C06460F462B6026D0002C31
:1059800038D06B69DB0700F1A280FFF725FB0B9B8A
:105990003568C31A9C42F4D26B69D807F1D400224F
:1059A0002023326386F83D3086F83E20336C86F83B
:1059B0003C2043F0200333642B68DF0502D54FF40D
:1059C00000733364032003B0BDE8F0836B69D9072B
:1059D00002D46C69E207FCD507F0FE070B9A2F6131
:1059E0004FF0FF313046FFF70FFF78B1012003B0D1
:1059F000BDE8F0836969C94311F0010140D0FFF7A8
:105A0000EBFA35686B69DB07F4D4C8E731680190BD
:105A10004B6901938B690193019B4B691B061BD456
:105A20004B695B05F9D500236FF480602022486143
:105A3000336386F83D2086F83E30336C43F0040330
:105A40003364336C0022042B86F83C20CED10B68E3
:105A500043F400730B60C9E7B9F1010F09D04FEAB5
:105A600018230B614B691A0603D44B695F05DAD41E
:105A7000F8E75FFA88F300200B6103B0BDE8F0831C
:105A800007F0FE070B9A2F613046FFF7BDFE002896
:105A9000ACD1316801904B6901938B690193019BF3
:105AA0004B691D0635D44B695C05BCD4FFF794FAED
:105AB00031684B691F06F3D400232022336386F834
:105AC0003D2086F83E30336C13433364B9E707F06A
:105AD000FE070B9A2F6121463046FFF795FE0028FE
