:020000040800F2
:10000000000002203D3C00080529000807290008DF
:10001000092900080B2900080D290008000000002C
:100020000000000000000000000000000F29000890
:1000300011290008000000001329000815290008F4
:100040008D3C00088D3C00088D3C00088D3C00086C
:100050008D3C000823290008252900088D3C000854
:100060002F29000839290008432900088D3C000881
:100070008D3C00088D3C00088D3C00088D3C00083C
:100080008D3C00088D3C00088D3C000800000000FD
:100090000000000000000000000000004D290008E2
:1000A0008D3C00088D3C00088D3C00088D3C00080C
:1000B0008D3C000859290008692900088D3C00087A
:1000C0008D3C00088D3C00088D3C00088D3C0008EC
:1000D0008D3C00088D3C00088D3C000800000000AD
:1000E0008D3C00088D3C00088D3C0008000000009D
:1000F0000000000000000000000000008D3C00082F
:10010000000000008D3C00088D3C00088D3C00087C
:1001100000000000000000000000000000000000DF
:100120008D3C0008792900088D3C00088D3C0008B2
:100130008D3C0008000000000000000000000000EE
:100140000000000000000000000000008D3C0008DE
:100150008D3C00088D3C00088D3C00088D3C00085B
:100160008D3C00088D3C00080000000000000000ED
:10017000000000000000000000000000000000007F
:10018000000000008D3C000800000000000000009E
:08019000892900088D3C0008DC
:1001A00010B5054C237833B9044B13B10448AFF3B1
:1001B00000800123237010BDC40200200000000055
:1001C0007450030808B5034B1BB103490348AFF350
:1001D000008008BD00000000C80200207450030821
:1001E00010F8012B11F8013B012A28BF9A42F7D0E1
:1001F000D01A70470000000000000000000000005E
:1002000001F0FF01102A2BDB10F0070F08D010F8C7
:10021000013B013A8B422DD010F0070F42B3F6D1CB
:10022000F0B441EA012141EA014122F007047FF0E4
:1002300000070023F0E80256083C85EA010586EA3B
:10024000010685FA47F5A3FA87F586FA47F6A5FA77
:1002500087F68EB9EED1F0BC01F0FF0102F0070283
:1002600032B110F8013B013A83EA010313B1F8D12E
:100270000020704701387047002D06BF354603380F
:10028000073815F0010F07D1013015F4807F02BF48
:10029000013015F4C03F0130F0BC0138704700BF99
:1002A000034613F8012B002AFBD1181A01387047B6
:1002B00081F0004102E000BF83F0004330B54FEA17
:1002C00041044FEA430594EA050F08BF90EA020F84
:1002D0001FBF54EA000C55EA020C7FEA645C7FEA17
:1002E000655C00F0E2804FEA5454D4EB5555B8BF3A
:1002F0006D420CDD2C4480EA020281EA030382EAAB
:10030000000083EA010180EA020281EA0303362D3C
:1003100088BF30BD11F0004F4FEA01314FF4801C0F
:100320004CEA113102D0404261EB410113F0004F21
:100330004FEA03334CEA133302D0524263EB4303D8
:1003400094EA050F00F0A780A4F10104D5F1200E76
:100350000DDB02FA0EFC22FA05F2801841F10001D1
:1003600003FA0EF2801843FA05F359410EE0A5F1A5
:1003700020050EF1200E012A03FA0EFC28BF4CF0D6
:10038000020C43FA05F3C01851EBE37101F000458C
:1003900007D54FF0000EDCF1000C7EEB00006EEB99
:1003A0000101B1F5801F1BD3B1F5001F0CD3490823
:1003B0005FEA30004FEA3C0C04F101044FEA44527A
:1003C00012F5800F80F09A80BCF1004F08BF5FEA01
:1003D000500C50F1000041EB045141EA050130BDE1
:1003E0005FEA4C0C404141EB0101013C28BFB1F5F3
:1003F000801FE9D291F0000F04BF01460020B1FA3E
:1004000081F308BF2033A3F10B03B3F120020CDA10
:100410000C3208DD02F1140CC2F10C0201FA0CF0EE
:1004200021FA02F10CE002F11402D8BFC2F1200C53
:1004300001FA02F120FA0CFCDCBF41EA0C01904009
:10044000E41AA2BF01EB0451294330BD6FEA040452
:100450001F3C1CDA0C340EDC04F11404C4F120023D
:1004600020FA04F001FA02F340EA030021FA04F34F
:1004700045EA030130BDC4F10C04C4F1200220FAA6
:1004800002F001FA04F340EA0300294630BD21FAE4
:1004900004F0294630BD94F0000F83F4801306BFAA
:1004A00081F480110134013D4EE77FEA645C18BF9E
:1004B0007FEA655C29D094EA050F08BF90EA020F35
:1004C00005D054EA000C04BF1946104630BD91EA2D
:1004D000030F1EBF0021002030BD5FEA545C05D130
:1004E0004000494128BF41F0004130BD14F580046F
:1004F0003CBF01F5801130BD01F0004545F0FE41E3
:1005000041F470014FF0000030BD7FEA645C1ABF17
:10051000194610467FEA655C1CBF0B46024650EA4E
:10052000013406BF52EA033591EA030F41F400217A
:1005300030BD00BF90F0000F04BF0021704730B500
:100540004FF4806404F132044FF000054FF00001D5
:1005500050E700BF90F0000F04BF0021704730B596
:100560004FF4806404F1320410F0004548BF40426B
:100570004FF000013EE700BF42004FEAE2014FEAC0
:1005800031014FEA02701FBF12F07F4393F07F4F9B
:1005900081F06051704732F07F4208BF704793F09E
:1005A0007F4F04BF41F40021704730B54FF46074B1
:1005B00001F0004521F000411CE700BF50EA0102B4
:1005C00008BF704730B54FF000050AE050EA01025D
:1005D00008BF704730B511F0004502D5404261EBCD
:1005E00041014FF4806404F132045FEA915C3FF40E
:1005F000D8AE4FF003025FEADC0C18BF03325FEAAB
:10060000DC0C18BF033202EBDC02C2F1200300FA5B
:1006100003FC20FA02F001FA03FE40EA0E0021FA80
:1006200002F11444BDE600BF70B54FF0FF0C4CF46E
:10063000E06C1CEA11541DBF1CEA135594EA0C0F20
:1006400095EA0C0F00F0DEF82C4481EA030621EA5B
:100650004C5123EA4C5350EA013518BF52EA033596
:1006600041F4801143F4801338D0A0FB02CE4FF048
:100670000005E1FB02E506F00042E0FB03E54FF078
:100680000006E1FB03569CF0000F18BF4EF0010E70
:10069000A4F1FF04B6F5007F64F5407404D25FEA6C
:1006A0004E0E6D4146EB060642EAC62141EA55511F
:1006B0004FEAC52040EA5E504FEACE2EB4F1FD0C61
:1006C00088BFBCF5E06F1ED8BEF1004F08BF5FEADF
:1006D000500E50F1000041EB045170BD06F0004691
:1006E00046EA010140EA020081EA0301B4EB5C043E
:1006F000C2BFD4EB0C0541EA045170BD41F4801136
:100700004FF0000E013C00F3AB8014F1360FDEBF5A
:10071000002001F0004170BDC4F10004203C35DA36
:100720000C341BDC04F11404C4F1200500FA05F3B9
:1007300020FA04F001FA05F240EA020001F000425A
:1007400021F0004110EBD37021FA04F642EB0601D0
:100750005EEA430E08BF20EAD37070BDC4F10C04FA
:10076000C4F1200500FA04F320FA05F001FA04F2BE
:1007700040EA020001F0004110EBD37041F10001AA
:100780005EEA430E08BF20EAD37070BDC4F12005B5
:1007900000FA05F24EEA020E20FA04F301FA05F21D
:1007A00043EA020321FA04F001F0004121FA04F2C5
:1007B00020EA020000EBD3705EEA430E08BF20EA95
:1007C000D37070BD94F0000F0FD101F000464000CF
:1007D00041EB010111F4801F08BF013CF7D041EA51
:1007E000060195F0000F18BF704703F00046520055
:1007F00043EB030313F4801F08BF013DF7D043EA26
:100800000603704794EA0C0F0CEA135518BF95EADB
:100810000C0F0CD050EA410618BF52EA4306D1D162
:1008200081EA030101F000414FF0000070BD50EA81
:10083000410606BF1046194652EA430619D094EA0B
:100840000C0F02D150EA013613D195EA0C0F05D1F5
:1008500052EA03361CBF104619460AD181EA030149
:1008600001F0004141F0FE4141F470014FF0000001
:1008700070BD41F0FE4141F4780170BD70B54FF09C
:10088000FF0C4CF4E06C1CEA11541DBF1CEA13551C
:1008900094EA0C0F95EA0C0F00F0A7F8A4EB0504FE
:1008A00081EA030E52EA03354FEA013100F08880F5
:1008B0004FEA03334FF0805545EA131343EA1263BE
:1008C0004FEA022245EA111545EA10654FEA002673
:1008D0000EF000419D4208BF964244F1FD0404F52C
:1008E000407402D25B084FEA3202B61A65EB030588
:1008F0005B084FEA32024FF480104FF4002CB6EB45
:10090000020E75EB030E22BFB61A754640EA0C00C4
:100910005B084FEA3202B6EB020E75EB030E22BF04
:10092000B61A754640EA5C005B084FEA3202B6EB45
:10093000020E75EB030E22BFB61A754640EA9C0004
:100940005B084FEA3202B6EB020E75EB030E22BFD4
:10095000B61A754640EADC0055EA060E18D04FEA92
:10096000051545EA16754FEA06164FEAC30343EA32
:1009700052734FEAC2025FEA1C1CC0D111F4801FFF
:100980000BD141EA00014FF000004FF0004CB6E7F8
:1009900011F4801F04BF01430020B4F1FD0C88BF97
:1009A000BCF5E06F3FF6AFAEB5EB030C04BFB6EBA2
:1009B000020C5FEA500C50F1000041EB045170BD95
:1009C0000EF0004E4EEA113114EB5C04C2BFD4EBC2
:1009D0000C0541EA045170BD41F480114FF0000E46
:1009E000013C90E645EA060E8DE60CEA135594EAC2
:1009F0000C0F08BF95EA0C0F3FF43BAF94EA0C0FC5
:100A00000AD150EA01347FF434AF95EA0C0F7FF439
:100A100025AF104619462CE795EA0C0F06D152EA8D
:100A200003353FF4FDAE1046194622E750EA410671
:100A300018BF52EA43067FF4C5AE50EA41047FF482
:100A40000DAF52EA43057FF4EBAE12E74FF0FF3CE7
:100A500006E000BF4FF0010C02E000BF4FF0010CB8
:100A60004DF804CD4FEA410C7FEA6C5C4FEA430C31
:100A700018BF7FEA6C5C1BD001B050EA410C0CBF80
:100A800052EA430C91EA030F02BF90EA020F0020E2
:100A9000704710F1000F91EA030F58BF994208BF49
:100AA00090422CBFD8176FEAE37040F00100704706
:100AB0004FEA410C7FEA6C5C02D150EA013C07D15D
:100AC0004FEA430C7FEA6C5CD6D152EA033CD3D0A8
:100AD0005DF8040B704700BF8446104662468C46A2
:100AE0001946634600E000BF01B5FFF7B7FF0028D5
:100AF00048BF10F1000F01BD4DF808EDFFF7F4FFFE
:100B00000CBF012000205DF808FB00BF4DF808ED88
:100B1000FFF7EAFF34BF012000205DF808FB00BFAB
:100B20004DF808EDFFF7E0FF94BF012000205DF8CD
:100B300008FB00BF4DF808EDFFF7CEFF94BF012082
:100B400000205DF808FB00BF4DF808EDFFF7C4FF7B
:100B500034BF012000205DF808FB00BF4FEA410CC4
:100B60007FEA6C5C02D150EA013C0AD14FEA430CA7
:100B70007FEA6C5C02D152EA033C02D14FF00000E4
:100B800070474FF0010070474FEA410212F5001222
:100B900015D211D56FF47873B3EB625212D94FEAC4
:100BA000C12343F0004343EA505311F0004F23FAAE
:100BB00002F018BF404270474FF00000704750EA03
:100BC000013005D111F0004008BF6FF000407047C0
:100BD0004FF00000704700BF4A0011D212F500121A
:100BE00011D20DD56FF47873B3EB62520ED44FEA85
:100BF000C12343F0004343EA505323FA02F0704705
:100C00004FF00000704750EA013002D14FF0FF3042
:100C100070474FF0000070474FEA4102B2F1E043E5
:100C200024BFB3F5001CDCF1FE5C0DD901F0004CD3
:100C30004FEAC0024CEA5070B2F1004F40EB830023
:100C400008BF20F00100704711F0804F21D113F14F
:100C50003872BCBF01F00040704741F480114FEA88
:100C60005252C2F11802C2F1200C10FA0CF320FA11
:100C700002F018BF40F001004FEAC1234FEAD3232E
:100C800003FA0CFC40EA0C0023FA02F34FEA430398
:100C9000CCE77FEA625307D150EA01331EBF4FF021
:100CA000FE4040F44000704701F0004040F0FE403C
:100CB00040F40000704700BF53B94AB9002908BF8B
:100CC00000281CBF4FF0FF314FF0FF3000F0BEB9DD
:100CD000ADF1080C6DE904CE00F03CF8DDF804E05D
:100CE000DDE9022304B0704738B500220023044632
:100CF0000D46FFF70BFF28B920462946BDE83840CE
:100D000000F00AB8204605F1004100F005F8404225
:100D100061EB410138BD00BFD0B50C4B0022064647
:100D20000F46FFF781FCFFF757FF0446FFF702FC71
:100D3000074B0022FFF778FC02460B463046394647
:100D4000FFF7BAFAFFF748FF2146D0BD0000F03D9B
:100D50000000F0412DE9F047089D0F4604468C46FF
:100D6000002B48D18A42164661D9B2FA82F34BB1C0
:100D7000C3F1200201FA03FC20FA02F29E4042EA8B
:100D80000C0C9C404FEA164EB7B2BCFBFEF1220C95
:100D90000EFB11CC42EA0C4201FB07F0904209D94C
:100DA000B21801F1FF3C80F0EE80904240F2EB80FF
:100DB00002393244121AA4B2B2FBFEF00EFB10222A
:100DC00044EA024400FB07F7A74209D9341900F1AD
:100DD000FF3280F0DA80A74240F2D78034440238F4
:100DE00040EA0140E41B00211DB1DC400023C5E9BD
:100DF0000043BDE8F0878B4206D90DB1C5E900017B
:100E000000210846BDE8F087B3FA83F1002948D1F4
:100E1000BB4202D3824200F20781841A67EB0302CD
:100E200001209446002DE4D0C5E9004CE1E7002AFA
:100E300000F09280B2FA82F3002B40F0A8808A1A68
:100E40004FEA164E1FFA86FC0121200CB2FBFEF77A
:100E50000EFB172240EA02420CFB07F0904207D932
:100E6000B21807F1FF3802D2904200F2E280474602
:100E7000121AA4B2B2FBFEF00EFB102244EA0244A6
:100E80000CFB00FCA44507D9341900F1FF3202D253
:100E9000A44500F2CB801046A4EB0C0440EA0740C6
:100EA000A2E7C1F120068B4022FA06FC4CEA030CB3
:100EB00007FA01F420FA06F3F7404FEA1C492343EE
:100EC00000FA01F81FFA8CFEB7FBF9F01C0C09FBC5
:100ED000107744EA074400FB0EF7A74202FA01F23A
:100EE0000AD91CEB040400F1FF3A80F09B80A74272
:100EF00040F2988002386444E41B9FB2B4FBF9F3DB
:100F000009FB134447EA044403FB0EFEA64509D936
:100F10001CEB040403F1FF3780F08280A6457FD9E3
:100F2000023B644443EA0040A4EB0E04A0FB02E74A
:100F3000BC427346B94663D360D05DB1B8EB0302DF
:100F400064EB090404FA06F622FA01F31E43CC40CE
:100F5000C5E9006400214CE76208480842EAC17113
:100F60000B0C43EA00438AB242EA0342B3FBF6F1B8
:100F7000E407B4463746B6461F23B0FBF6F0D21B53
:100F800041EA004161E7614614E7104628E7C3F1F2
:100F9000200120FA01F29E4027FA01F19F403A43D6
:100FA0004FEA164E1FFA86FCB1FBFEF70EFB171038
:100FB000110C41EA004107FB0CF8884504FA03F4E0
:100FC0003AD9711807F1FF3001D288451FD8A1EB3B
:100FD0000801B1FBFEF808FB0CF70EFB181192B2EA
:100FE00042EA0142BA422FD2B21808F1FF31C6D20A
:100FF000BA42C4D2A8F102013244C0E7F0459CD203
:10100000BEEB020367EB0C070138B94695E7A6EB88
:1010100008084144B81EB1FBFEF808FB0CF7DCE7FA
:101020003B467FE7504667E70846FBE63444023814
:1010300032E7023F32441BE7A1EB08013846B1FB1F
:10104000FEF808FB0CF7C8E7414698E7704700BF79
:1010500010B582B066238DF8043099238DF80530E1
:101060000A4C00220121204603F064FA6423022284
:1010700001A9074804F02DFD01221146204603F086
:1010800059FA642002F0E2FE02B010BD00040240F2
:101090008CCD002030B583B09F238DF80730124CE3
:1010A00000220121204603F045FA104D642301225D
:1010B0000DF10701284604F00CFD6423032201A969
:1010C000284604F009FF01221146204603F032FAB7
:1010D0009DF804209DF805301B0243EA02439DF869
:1010E0000600184303B030BD000402408CCD002040
:1010F000F0B583B015461C460B238DF80030C0F3C5
:101100000F238DF801308DF802008DF803100022B6
:101110008DF804200C4E0121304603F00BFA0B4FE2
:10112000642305226946384604F0D3FC6423AAB23E
:101130002146384604F0D0FE01221146304603F025
:10114000F9F903B0F0BD00BF000402408CCD0020CF
:1011500010B582B006238DF807300A4C0022012119
:10116000204603F0E7F9642301220DF10701064848
:1011700004F0AFFC01221146204603F0DBF902B077
:1011800010BD00BF000402408CCD002010B582B01D
:1011900004238DF807300A4C00220121204603F079
:1011A000C9F9642301220DF10701064804F091FCFE
:1011B00001221146204603F0BDF902B010BD00BF68
:1011C000000402408CCD002010B582B00403FFF76C
:1011D000BFFF20238DF80030230C8DF80130240A46
:1011E0008DF8024000228DF803200C4C012120468E
:1011F00003F0A0F9642304226946094804F069FC5D
:1012000001221146204603F095F94FF4E17002F0F7
:101210001DFEFFF7BBFF02B010BD00BF000402407F
:101220008CCD00202DE9F04FC7B083460C46174601
:101230009A46531E0B444FEA1328C0F30F1500EBD8
:101240001322C5F1010303EB12139BB243B12B44EC
:101250009EB228460135ADB2FFF7B6FFB542F8D1D0
:101260000BF10103434401934FF00008DFF8D490E1
:101270001DE000220121484603F05CF96423324658
:1012800003A92F4804F025FC01221146484603F02B
:1012900051F90BF1010BA4B23F1BA044052002F051
:1012A000D5FDFFF773FF0024019B5B4544D004EBA1
:1012B0000B26E319FF2B8CBFC4F580743C46A5B206
:1012C000FFF746FF02228DF80C20320C8DF80D201E
:1012D000320A8DF80E208DF80F602E1DB6B2002D4B
:1012E000C7D008F1FF3353440DF10F02681E0AEB1B
:1012F000080111FA80F013F8011F02F8011F834260
:10130000F9D1C82EB5D900220121484603F012F9BF
:1013100064231A4603A90A4804F0DBFBA5F1600226
:10132000642392B21CA9064804F0D3FB01221146A3
:10133000484603F0FFF8ACE747B0BDE8F08F00BFC8
:101340008CCD00200004024000B583B08C46088894
:101350004988BCF8063001335B1ABCF804C00CF1B4
:10136000010CACEB000C00929BB21FFA8CF201F066
:101370000EF903B000BD0000044B054A12681A8044
:10138000044A12685A80044A5A607047600B002071
:10139000080000200C000020E00A0020094B19681A
:1013A000094B1B6803FB01F151B1831E074A00EB97
:1013B0004100023833F9021F22F8021B8342F9D19F
:1013C000704700BF0C00002008000020E00A002049
:1013D0002DE9F04F83B0284B1B6803F1FF3E274BEC
:1013E0001A68274B1B68002B43DD4FEA0E58013A61
:1013F00015054FF0000A234EDFF87C9001954FEA67
:101400000A5202F500221D49096801FB02F292FB13
:10141000F3F2A2F5002222EAE272019B9342A8BFF6
:1014200013469B463368002B1DDD0024164D0AFB36
:101430000347210501F50021D9F8002002FB01F145
:1014400091FBF3F1A1F5002121EAE1715A464145F2
:10145000A8BF41460D4802F01AFC25F817000134D8
:101460003368A342E3DC0AF1010A054B1B685345CC
:10147000C5DC03B0BDE8F08F0C00002008000020A0
:101480000000002004000020E0020020600B00208B
:10149000002809DBB0F5967F0EDA084B83FB0023AA
:1014A000C017C0EBA30000E00020054B33F810206C
:1014B000044B23F8112070471D20F6E76766666627
:1014C000E8590308E8A300202E4B5B69002B58D095
:1014D0002DE9F04F93B0002914BF0425082500FB27
:1014E00005F505FB05F94FF0910898FBF5F8B9F102
:1014F000000F10DD961E0024234F36F9020F87FBE4
:101500000023C017C0EBA300214600B2FFF7C0FFC5
:101510000134A145F1D104A80FF094FA0023ADF8ED
:101520001030ADF830309D4228DD0023DFF85CB08C
:101530000FFA88F6DFF84CA003FB05F903FB08F768
:101540003FB20024039309EB04033BF81330ADF8DA
:101550001430691E091B08FB01F104AB01930096CE
:1015600033463A4609B2DAF8140028F090FC013408
:10157000A542E8DC039B01339D42DDDC13B0BDE8EE
:10158000F08F7047B892012067666666E8A3002076
:1015900070B50601164D2B4640F20442002106F1BB
:1015A0006400FFF7A5FD0A2002F050FC114C234611
:1015B0004FF48062042106F16800FFF799FD95F869
:1015C00002240D4B1A6095F803240C4B1A606A1E16
:1015D000611E0B4805F2FF3C12F8014F11F8013F64
:1015E00043EA042320F8023F6245F5D170BD00BFF5
:1015F000ECBF0020ECBB0020D4A30020D8A3002027
:10160000CA9B002008B50001643000290DDD0E4B97
:101610000E4A03EB410133F902CBCCF3072E02F85B
:1016200001EB82F803C48B42F5D1084B084A1268DB
:1016300083F80224074A126883F8032440F6040260
:101640000021FFF7EFFD08BDE0020020F4C30020F9
:10165000E4A300204C00002010B594B008AC302268
:101660000021204630F0EBF9002303930493059307
:101670000693079301931E4A116C41F08051116447
:10168000126C02F080520192019A0293194A116879
:1016900041F440411160126802F440420292029A01
:1016A0000222089201210B9110210C910E920F93AE
:1016B000082310936423119312920423139320465A
:1016C00003F098FD80B90F230393022304930023B2
:1016D00005934FF4805206920793032103A803F069
:1016E000D9FF18B914B010BD72B6FEE772B6FEE7A6
:1016F000003802400070004038B5254C00224FF4FD
:101700008071204602F016FF642002F09FFB012248
:101710004FF48071204602F00DFF01228021204607
:1017200002F008FF642002F091FB00228021204695
:1017300002F000FF174C522323801749204601F086
:1017400005FB164D2870204601F046FF2870012148
:10175000204601F0EBFE2870114B1B685BB940215D
:10176000204601F061FE28700F21204602F052FA57
:101770000A4B187038BD074C1021204601F054FE6A
:10178000064B18703C21204602F044FAF0E700BFF7
:101790000004024038B10020E9BB0020EABB002071
:1017A000E4A300202DE9804895B002F023FBFFF769
:1017B00053FF0DAF00240D940E940F9410941194C8
:1017C0000394B94D2B6B43F004032B632B6B03F095
:1017D00004030393039B04942B6B43F080032B635C
:1017E0002B6B03F080030493049B05942B6B43F055
:1017F00001032B632B6B03F001030593059B0694F8
:101800002B6B43F002032B632B6B03F00203069355
:10181000069BA64E22464FF40051304602F08AFE47
:10182000DFF8B8A2224640F28711504602F082FE4D
:10183000DFF8AC9222464FF4B851484602F07AFEE7
:101840004FF400530D934FF00108CDF838800F94FA
:1018500010943946304602F085FD0D230D934FF468
:1018600004130E9302260F963946484602F07AFD7D
:1018700010230D934FF488130E930F963946484664
:1018800002F070FDCDF83480CDF83880CDF83C8082
:101890004FF0030BCDF840B03946504602F062FDE0
:1018A0004FF4C3730D93CDF838800F9410943946DC
:1018B000504602F057FD4FF4A0630D93CDF83880E9
:1018C0000F9610943946484602F04CFD4FF40072D2
:1018D0000D92CDF838800F9410963946484602F0A4
:1018E00041FD4FF480530D93CDF838800F96CDF81D
:1018F00040B03946484602F035FD40230D934FF481
:1019000004130E930F943946504602F02BFD3246D5
:101910003146062002F0C0FA062002F0F3FA324601
:101920003146082002F0B8FA082002F0EBFA3246FD
:101930003146092002F0B0FA092002F0E3FA22460B
:1019400031460A2002F0A8FA0A2002F0DBFA4246E9
:101950003146172002F0A0FA172002F0D3FA0294C1
:101960002B6B43F480032B632B6B03F480030293F4
:10197000029B42464146392002F08EFA392002F09D
:10198000C1FA4B484B4B03604FF482734360846051
:10199000C460046144614FF4007282612023C3611A
:1019A0000462446284620A23C36204F033F80028AC
:1019B00040F04D814048414B0360414B4360002360
:1019C0008360C3604FF48042026143618361C361FD
:1019D000036202F097FF002840F03B8100230D9343
:1019E0000E930F93109309930A933648364A026078
:1019F00041F28732426083606322C2600361836187
:101A000004F0A8FE002840F026814FF480530D9387
:101A10000DA92C4804F09FFF002840F01E810023F0
:101A200009930A9309A9274805F04AF8002840F0CD
:101A300016812648264B03604FF4827343604FF4AF
:101A4000004383600023C360036143614FF400726D
:101A50008261C3610362436283620A23C36203F04B
:101A6000D9FF002840F0FD8000230D930E930F93C3
:101A7000109309930A931748174A02603122426073
:101A8000836046F67712C2600361836104F062FEF0
:101A9000002840F0E8804FF480530D930DA90D48C5
:101AA00004F059FF1EE000BF003802400008024069
:101AB0008CCD002000300140E4CD002000580040D3
:101AC000801A060044CC00200004004034CD0020E1
:101AD00000340140FCCB002000080040000402401C
:101AE00000000240002840F0C080002309930A93C0
:101AF00009A9784804F0E4FF002840F0B8800023EA
:101B000009930A930B930C93079308930D930E93E9
:101B10000F9310931193129313936F484FF08042D9
:101B20000260436083604FF0FF32C26003618361F3
:101B300004F010FE002840F09C804FF4805309937D
:101B400009A9654804F007FF002840F09480624826
:101B500004F02CFE002840F09080002307930893A7
:101B600007A95D4804F0ACFF002840F0888060239E
:101B70000D9300220E920F9211920DA9564804F077
:101B80006FFE00287DD1544800F092FE00F082FCE8
:101B9000002000F0F1FC06F037FA504D4FF4486396
:101BA00000224F49284621F0DDFB4E4C204621F013
:101BB000B1FBA0232380802363804B4B6361E560EE
:101BC000204621F0DDFB2EF0C7FE01202EF0AAFEFC
:101BD00024F01AFCFFF73CFAFFF75CFA434B18605D
:101BE000FFF78AFD642002F031F9414B586930B1AA
:101BF00004230093692391223E4928F029F93C4BA4
:101C0000986910B13C492AF087FC394BD86910B16A
:101C10003A492AF081FC3A4801F04AFB394C234604
:101C2000012200210846FFF763FA2278364B1A603A
:101C3000364B01221A60364804F000FC02202EF0D8
:101C400071FE24F0E1FB334C334D344E26E072B686
:101C5000FEE772B6FEE772B6FEE772B6FEE772B650
:101C6000FEE772B6FEE772B6FEE772B6FEE772B640
:101C7000FEE772B6FEE772B6FEE772B6FEE772B630
:101C8000FEE772B6FEE7306801281BD0244A254BD8
:101C90001968FFF719FC052002F0D8F824F0B4FB0E
:101CA0002EF062FE2378002BF5D0002323702B78D2
:101CB000002BE8D01C4A1D4B19681D4B1868FFF714
:101CC00003FCE8E71B4A174B19680120FFF7FCFBF0
:101CD000E1E700BFFCCB00208CCC0020609B002003
:101CE000608200207C9B002049130008F8CB002074
:101CF000B8920120680B0020400000203400002032
:101D000038B10020E8BB0020DCA30020E0A30020C5
:101D100044CC00205C8200205A8200204C0000202D
:101D2000E0020020E4A30020CC9B0020D4A30020EC
:101D3000D8A30020ACAF002008B50368314A934215
:101D400003D0314A934245D008BD304B1B68042B69
:101D50000AD8DFE803F003091E173800062002F056
:101D6000D1F8172002F0CEF8284B64221A602848D8
:101D700004F09EFB274B1B68012BE5D1264804F09D
:101D80005DFBE1E7092002F0BDF8172002F0BAF888
:101D9000EAE7082002F0B6F8204B1B68012BE3D1DC
:101DA0001F4B204A1A60204B02F58F3202F58072D9
:101DB0001A601E4BA2F53022A2F576721A601C4BF7
:101DC00001221A70D0E70A2002F09CF8172002F0D6
:101DD00099F8C9E74FF40051164802F0B1FB164BD1
:101DE0001B68012B06D1154B00221A70144B0122DF
:101DF0001A70A9E71348FFF7D1FAFFF7BDFAFFF70A
:101E0000E7FAF0E70008004000040040500000201E
:101E1000FCCB0020E0A3002044CC0020CCA3002079
:101E2000400000202A2A4D00340000202800002015
:101E30005B820020000802404C0000205A820020F3
:101E40005C820020ACAF002010B582B004468B4805
:101E500004F02EFB102C15D8D4B1013C0F2C17D850
:101E6000DFE814F01B00160016003C0116001600F7
:101E70001600800016001600160016001600160048
:101E80001600E200402C03D17D497E4801F022F883
:101E90007D4804F0D3FA02B010BD062002F040F8ED
:101EA000172002F03DF8794B00221A60784B1B682E
:101EB000BBB1784B1868784B1B689842B4BF0130AF
:101EC0000020744B1860FFF763FB0123734A137003
:101ED000734A1370172002F015F8062002F012F86A
:101EE000D6E7684800F063FF6E4B1B68012B21D0DA
:101EF000022B2BD06B4B01221A606B4B6B4A92E882
:101F0000030018609980090C9971664B1A68684B38
:101F10001B6802FB03F367490B60674B1B6802FBFE
:101F200003F3664A1360664B01221A70554801F0AC
:101F3000BFF9CFE75B4B02221A605B4B614A92E824
:101F4000030018609980090C9971DEE7554B032254
:101F50001A60554B5C4A92E8030018609980090C9E
:101F60009971D2E7092001F0DBFF172001F0D8FFBB
:101F7000464B03221A60464B1B68BBB1454B1868A1
:101F80000028CEBF00F1FF30434B1868414B18606A
:101F9000FFF7FEFA0123414A1370414A13701720DC
:101FA00001F0B0FF062001F0ADFF71E7354800F009
:101FB000FEFE464B1B682BBB444B01221A601021CE
:101FC000304801F031FA0423394A13603A4A136069
:101FD0003F4A404B07CA03C31A80324B1A68344B3E
:101FE0001B6802FB03F333490B60334B1B6802FB96
:101FF00003F3324A1360324B01221A70214801F078
:1020000057F9CCE7314B00221A6040211D4801F0FE
:102010000BFA0823264A1360274A13602E4A2D4BD9
:1020200007CA03C31A80D8E7172001F079FF0A20F6
:1020300001F076FF134800F0BAFE144B04221A6038
:10204000154C23688DF807300DF10703012200219C
:102050000846FFF7E7F84FF480612068FFF7D2FAEF
:1020600023680C4A1360092BD4BF013300230A4AAA
:102070001360044801F01CF90AE700BF44CC0020BB
:10208000E8AB002038B10020FCCB0020500000203D
:10209000CCA30020D0A30020DCA300205A82002083
:1020A0005C8200204C0000203400002034540308DF
:1020B0000C00002004000020080000200000002088
:1020C0005B820020245403082C540308E4A300205E
:1020D0003C5403084000002048540308082001F045
:1020E0001FFF244B02221A60234B1B68002B2BD0AE
:1020F000214B00221A60214B01221A60204B1B68E1
:10210000002B31D11F4A204B07CA03C31A801F4B33
:102110001B68012B1E4B1F4A92E803001860998030
:10212000090C99711C4A1D4B07CA03C31A801C4B2A
:1021300001221A701B4801F0BBF80A2001F0E2FEF0
:10214000172001F0DFFEA3E60A2001F0E9FE1720C8
:1021500001F0E6FE094B00221A60074B01221A60CB
:10216000104800F024FE93E60F4A074B07CA03C34A
:102170001A80CCE750000020CCA30020E0A3002070
:10218000E4A3002048540308400000204C00002035
:10219000340000203454030854540308280000205D
:1021A0005B82002038B100203C540308004870478F
:1021B0006054030800487047400000200048704702
:1021C00034000020004870471C0000200048704781
:1021D0001000002008B50368054A934204D0A2F518
:1021E0008062934200D008BD024821F0A9F9FAE7C5
:1021F000003401407C9B002072B6FEE7F0B585B04C
:10220000044615460B0A8DF80C308DF80D100A4E59
:1022100064270097022303AA0188304602F034FCA9
:102220000097012302AA2188304602F031FD9DF873
:1022300008302B7005B0F0BDE4CD002000B585B0AE
:102240000B0A8DF80C308DF80D108DF80E200188DA
:1022500064230093032303AA024802F015FC05B08F
:1022600000BD00BFE4CD002000B585B08C460188DC
:102270004FF6FF7002909BB20193009210236246CA
:10228000024802F003FF05B000BD00BFE4CD00200E
:10229000F0B585B0044615461E460B0A8DF80C3085
:1022A0008DF80D1002880D4B1A800D4B1D600D4BE3
:1022B0001E600D4F64230093022303AA0188384651
:1022C00002F0E2FB4FF47A730093B3B22A462188FE
:1022D000384602F0DDFC002005B0F0BD40CE002005
:1022E0003CCE002038CE0020E4CD002099B102463B
:1022F0004B1E23F0030304301844117853781B0459
:1023000043EA0163D1780B43917843EA012342F811
:10231000043B8242F1D1704708B5084601F096FDB2
:10232000002008BD08B500220221024802F002F98F
:1023300008BD00BF0004024008B501220221024886
:1023400002F0F8F808BD00BF0004024010B5074CC9
:1023500000220421204602F0EDF8052001F076FD70
:1023600001220421204602F0E5F810BD00040240DD
:1023700000B583B08DF8070000224FF400710648C5
:1023800002F0D8F84FF0FF3301220DF107010348A6
:1023900003F09FFB03B000BD0000024034CD0020DD
:1023A00038B504460D4601224FF40071054802F08D
:1023B000C1F84FF0FF33AAB22146034803F089FB6E
:1023C00038BD00BF0000024034CD002038B50446BF
:1023D0000D4601224FF40071044802F0ABF8AAB296
:1023E0002146034803F040FE38BD00BF0000024014
:1023F00034CD0020F8B5064616F8013B5C1EE4B269
:102400009BB9F8BD39462846FFF7CAFF3D4415E0A1
:102410002E4616F8010BFF2808BF4FF4FA7001F0A2
:1024200015FD013CE4B2FF2CEBD0354615F8020B4C
:10243000FFF79EFF767816F07F07E3D116F0800F46
:10244000E6D12E46EDE7F0B583B007460D461646B9
:102450001C462A20FFF78CFF00238DF804308DF8EE
:1024600005708DF806308DF8076001AE0421304606
:10247000FFF796FF2B20FFF77BFF8DF805508DF8B7
:10248000074004213046FFF78BFF2C20FFF770FF39
:1024900003B0F0BD08B5FFF745FFFFF757FF06484B
:1024A000FFF7A8FF0548FFF7A5FF0548FFF7A2FFC4
:1024B000FFF742FF08BD00BF605A0308505A0308E7
:1024C000245A03082DE9F04782B0BDF828609F2800
:1024D0004AD804460D46914698467F2944D8831829
:1024E000A02BC4BFC0F1A0091FFA89F901EB0803B2
:1024F000802BC4BFC1F180081FFA88F8FFF712FFD4
:10250000E0B2E9B24B1E4344421E4A44DBB2D2B2AF
:10251000FFF799FF330A8DF804308DF8056001222A
:102520004FF40071124802F005F8B8F1000F19D00D
:10253000CA4601AF0F4E11E0544602252A463946DD
:10254000304603F091FD013CA4B2002CF6D108F115
:10255000FF381FFA88F8B8F1000F03D0B9F1000F67
:10256000EAD1F4E7FFF7E8FE02B0BDE8F08700BF6C
:102570000000024034CD002000B583B000908023DD
:10258000A02200210846FFF79DFF03B000BD9F2851
:1025900020D8F8B504460D4617461E467F2905D8B3
:1025A0008318A02B02DC8B19802B00DDF8BDFFF710
:1025B000B9FEE0B2E9B2731E0B447A1E0244DBB2EC
:1025C000D2B2FFF740FF06FB07F149000698FFF77C
:1025D000FDFEEBE77047000010B582B000240094C8
:1025E000134B5A6C42F480425A645A6C02F4804293
:1025F0000092009A01941A6C42F080521A641B6C8B
:1026000003F080530193019B052001F033FC01226C
:1026100003216FF0010001F03FFC22462146052016
:1026200001F03AFC052001F06DFC02B010BD00BFC6
:10263000003802402DE9F04389B00023039304934E
:1026400005930693079302681E4B9A4202D009B085
:10265000BDE8F083002501951B4C236B43F002037A
:102660002363236B03F002030193019B4FF4806308
:1026700003934FF01209CDF810904FF00308CDF8F6
:1026800018800423079303AF104E3946304601F0FB
:1026900069FE08230393CDF8109001230593CDF82C
:1026A0001880092307933946304601F05BFE0295F6
:1026B000236C43F480032364236C03F480030293AC
:1026C000029BC4E70058004000380240000402406A
:1026D0002DE9F0418AB000230593069307930893F0
:1026E00009930368464A934206D00446454A9342FA
:1026F00025D00AB0BDE8F08100210091424B5A6C10
:1027000042F480525A645A6C02F480520092009A49
:1027100001911A6B42F001021A631B6B03F0010373
:102720000193019BE023059302230693032308935F
:102730000523099305A9354801F014FED9E70025C2
:102740000295314B5A6C42F400525A645A6C02F4AE
:1027500000520292029A03951A6B42F001021A6328
:102760001A6B02F001020392039A04951A6B42F06D
:1027700002021A631B6B03F002030493049B0226FC
:10278000059606964FF00308CDF82080052309939F
:1027900005AF39461D4801F0E5FD4FF400530593A0
:1027A00006960795CDF820800623099339461848E8
:1027B00001F0D8FD1748184B03604FF000634360E9
:1027C00040238360C5604FF4806303614561856188
:1027D000C5614FF440330362456201F0E5FB58B92F
:1027E0000C4BA3649C6301220021542001F054FB94
:1027F000542001F087FB7CE7FFF7FEFCF0E700BF09
:102800000030014000340140003802400000024026
:1028100000040240D4CC00202864024000B585B0FA
:102820000368B3F1804F07D01E4A934211D01E4A6D
:10283000934222D005B000BD002301931B4B1A6CBC
:1028400042F001021A641B6C03F001030193019B27
:10285000F0E700220292154B196C41F00201196455
:102860001B6C03F002030293029B03211D2001F065
:1028700013FB1D2001F046FBDCE7002203920B4B0B
:10288000196C41F0040119641B6C03F004030393F9
:10289000039B01211E2001F0FFFA1E2001F032FBF4
:1028A000C8E700BF000400400008004000380240B4
:1028B00000B587B00023019302930393049305931B
:1028C0000368B3F1804F01D007B000BD002300932F
:1028D0000A4B1A6B42F001021A631B6B03F00103EF
:1028E0000093009B4FF400430193022302930123C2
:1028F000059301A9024801F035FDE5E700380240E3
:1029000000000240FEE7FEE7FEE7FEE7FEE7704755
:102910007047704708B501F087FA012020F058FE93
:1029200008BD704708B5012001F014FE08BD08B5C8
:10293000042001F00FFE08BD08B5082001F00AFED2
:1029400008BD08B5102001F005FE08BD08B54020FF
:1029500001F000FE08BD000008B5024803F0C6FD06
:1029600008BD00BF44CC002008B5024803F0BEFDFE
:1029700008BD00BFFCCB002008B5024801F004FCF4
:1029800008BD00BFD4CC002008B5024803F02CFCE1
:1029900008BD00BF34CD00200120704708B52FF0DE
:1029A000B1F8162303604FF0FF3008BD08B52FF0D3
:1029B000A9F816230360FEE770B5161E07DD0C4666
:1029C0008D19AFF3008004F8010BA542F9D1304610
:1029D00070BD70B5161E07DD0C468D1914F8010B7D
:1029E000AFF30080A542F9D1304670BD4FF0FF3003
:1029F00070474FF400534B60002070470120704730
:102A00000020704708B503460C4A126852B10B4AC1
:102A1000106803440A4A0B49521A934206D8074ADF
:102A2000136008BD054A08491160F0E72FF06AF805
:102A30000C2303604FF0FF30F3E700BF44CE0020CB
:102A4000000002200004000030940120034AD2F864
:102A5000883043F47003C2F88830704700ED00E01E
:102A60002DE9F04F83B081460F4600939DF830B0BA
:102A70009DF834A0C926002400F5A063019300EB63
:102A8000020808E044F001041FE098F800350BEA62
:102A90000303534519D03B46019A00994846FFF776
:102AA000F7FB05460A214846FFF736FC0543254358
:102AB000ECB2013E16F0FF06E4D0032FE5D999F8F9
:102AC00002357E2BE1D944F04204204603B0BDE834
:102AD000F08F00002DE9F04FE9B004460E4606AA3B
:102AE000554B93E8030082E8030004AA083393E8F7
:102AF000030082E8030004F5A0654FF4F47204F1CA
:102B0000100128462FF033F8102E27D004F2FF438F
:102B100004F2E3615A7A03F8012F8B42FAD104AB35
:102B200003CBC4F8E006C4F8E4164FF4F4732A4665
:102B300042F618612046FFF797FB054603230193F1
:102B4000FF2300934FF43053012204212046FFF766
:102B500087FF2843C0B269B0BDE8F08F06AB03CB56
:102B6000C4F81005C4F814154FF4F4712846FFF7A3
:102B7000BDFB04F23C5A28AE4FF4807251463046F9
:102B80002EF0F5FF04F5C86B0DF12009802259469F
:102B900048462EF0ECFFC8460DF1C00E0027039505
:102BA000AEF120024D464146304602941368546807
:102BB0002344146A2344546A23449B0840F8043B8A
:102BC000B1F90030B1F902C09C44B1F9103063444E
:102BD000B1F912C013EB0C0348BF03339B1025F867
:102BE000023B083204317245E0D1029C103608F1F4
:102BF000200809F1080904370EF1400E102FCFD13B
:102C0000039D6022002110A82EF019FFC022002190
:102C100038A82EF014FF4FF4807228A950462EF0E9
:102C2000A6FF802208A958462EF0A1FF4FF4F471A8
:102C30002846FFF75BFB69E790500308F0B5C7B083
:102C400004460E463E4B93E8030046AB03E90300FF
:102C500042AB3C4A92E8030083E8030004F5A06518
:102C60004FF4427204F5FC7128462EF080FF102EBE
:102C700017D04FF442732A4642F6F8412046FFF738
:102C8000F3FA054603230193FF2300934FF43053D7
:102C9000012204212046FFF7E3FE2843C0B247B0DB
:102CA000F0BD44AB03CBC4F80805C4F80C1542AB27
:102CB00003CBC4F82005C4F824154FF4427128460C
:102CC000FFF714FB04F2345602AF4FF48072314622
:102CD00038462EF04CFF38460DF1280C4FF0000E10
:102CE000ACF120020146136857683B44176A3B4425
:102CF000576A3B449B0841F8043B08326245F2D1D5
:102D000010300EF1040E0CF1400CBEF1100FE7D1A3
:102D1000C022002112A82EF092FE4FF4807202A968
:102D200030462EF024FF4FF442712846FFF7DEFABA
:102D3000054BC4F834360023C4F8783599E700BF52
:102D400070540308A0500308A0FC010070B582B0C5
:102D500006460D46002247F6FF71FFF76FFA04465C
:102D60000DF1070200213046FFF748FA0443E4B2B0
:102D70000DF1060201213046FFF740FA0443E4B2A8
:102D8000022247F6FF713046FFF758FA2043C0B2DF
:102D90009DF80730F02B03D000232B7002B070BDDC
:102DA0009DF80630022B14BF00230123F5E72DE91F
:102DB000F04782B0054600238DF8073000930423C6
:102DC0006A4642F6FC71FFF763FA0446009A40F245
:102DD000FF439A4202D095F8AC3A9BB30DF107023B
:102DE00006212846FFF70AFA0443E4B29DF90730AA
:102DF000002B5EDB002247F6FF712846FFF71EFA24
:102E00000443E4B2002214212846FFF717FA0443D2
:102E1000E4B2002215212846FFF710FA0443E4B279
:102E2000042209212846FFF709FA0443E4B20222EA
:102E300047F6FF712846FFF701FA2043C0B202B0FF
:102E4000BDE8F087002247F6FF712846FFF7F6F944
:102E50000646162215212846FFF7F0F906433443AB
:102E6000E4B2012214212846FFF7E8F90443E4B252
:102E700040F2F5170DF1070A4FF006094FF00A0866
:102E80009DF90730002BA9DB524649462846FFF73B
:102E9000B5F9064641462846FFF73EFA0643264363
:102EA000F4B2013FBFB2002FEAD19DF807301C43B6
:102EB00094E70DF1070207212846FFF79FF9044325
:102EC000E4B29DF8072002F17C03DBB2012B88BF3E
:102ED00014438FE72DE9F84F05460C4600F5A0672F
:102EE00043683A460021FFF7D3F9064695F80035C6
:102EF000AB70A9883846FFF7F9F96B68102B40F2E0
:102F00009A8010274DF6C4394EF2440A4EF2840BD3
:102F100039E04DF65802934200F084804DF6843239
:102F200093422BD107F204514246294404F58270A2
:102F30002EF01DFE22E053456BD010D84DF6C46232
:102F400093425DD04DF64472934217D107F204517B
:102F50004246294404F571702EF009FE0EE05B45EF
:102F60000CD107F204514246294404F284402EF069
:102F7000FEFD03E0EB1993F80C352370043747444A
:102F80006B68BB4257D907F5A062A818AB5C03F089
:102F90000F0303F10E0101F00F010A2935F8028039
:102FA000C8F30B1898BF03FB08F843884B451ED0A5
:102FB000C1D845F2D052934210D0AAD845F2B442BB
:102FC0009342D7D045F2D0429342D7D107F2045171
:102FD00042462944201D2EF0CAFDCFE707F20451D6
:102FE0004246294404F5A2702EF0C1FDC6E707F25F
:102FF00004514246294404F511702EF0B8FDBDE796
:1030000007F204514246294404F551702EF0AFFDF9
:10301000B4E707F204514246294404F244402EF03A
:10302000A6FDABE707F204514246294404F2C4402E
:103030002EF09DFDA2E704F58071234653F8042F7E
:10304000D20A1A608B42F9D104F2423E04F24340A4
:1030500004F5107104F2C23C67464FF000080CF111
:10306000020CBCF900301A46002BB8BFDA1C9210D3
:10307000ACF8002013F1030FACBF13B24346ACF819
:10308000003010F8013F5B0803703EF8023FDB0997
:10309000AEF8003051F8043FDB0A0B60BE45DED1CC
:1030A00004F2031304F24311FF2001E08B4206D027
:1030B00013F8012F002AF9D183F88003F6E704F210
:1030C000CC4204F24C540F4952F8043FA1FB0303D5
:1030D000DB0B1360A242F7D195F808056B682B440F
:1030E00093F8FC1495F8092593F8FD3442EA002280
:1030F00043EA01239A421CBF46F00206F6B230466C
:10310000BDE8F88F018000802DE9F04387B00746C5
:103110000C4616461D46294B93E8070006AB03E90B
:103120000700B5F5B46F04D9FF26304607B0BDE8F7
:10313000F083330A8DF80C308DF80D602B118DF86B
:103140000E302B018DF80F300C230DEB030242F6ED
:10315000F4713846FFF788F8064603230193FF23EE
:1031600000934FF43053012204213846FFF778FCD6
:103170000643F6B207F5A06805F10C094B46424636
:1031800042F604413846FFF783F80643F6B21FFAC9
:1031900089F14046FFF7AAF82BB2002BC5DD07F2F4
:1031A0000352611E07F20457013D17FA85F512F824
:1031B000013F01F8013FAA42F9D1B6E7A850030840
:1031C00038B504460D46082345F2504200F5A0618B
:1031D000FFF79AFF94F8003594F8012513FB02F3EA
:1031E0002B7038BD2DE9F04184B0B3F5B46F04D92C
:1031F000FF25284604B0BDE8F08105460E461C4672
:10320000DFB2130A8DF80C308DF80D2023118DF8E4
:103210000E303B018DF80F3021463046FFF766F83F
:10322000621E12B2002A0CDB531C334402F2055C0E
:10323000AC4413F8011D0CF8011D013A12B2002A2A
:10324000F7DA039BC5F8003504F204516B1800222D
:103250006A545A709A700F22DA7005221A714FF070
:10326000010883F8058004F1080212129A710837E8
:10327000DF71C4F53F51343104F10C0305F5A06250
:1032800089B22846FEF7F0FF074603230193FF2388
:1032900000934FF43053424604212846FFF7E0FBE9
:1032A00047EA0005EDB221463046FFF71FF8A0E7D8
:1032B0002DE9F04F99B004460027159716974FF463
:1032C000407314930DF15F01FFF77AFF8146676049
:1032D000FF23A370534D10AE05F124030FCB86E8F6
:1032E0000F0004AE34350FCD0FC60FCD0FC695E8D5
:1032F0000F0086E80F0040F6FF73109303AB3A46C9
:1033000040F6FF7608E00088616801EB1011043197
:10331000616001320C2A1BD0043318461968002959
:10332000F7D026FA02F111F0010FF2D0197811F05E
:103330000F0FE8D001F00F050C2DE4D89DF85F00C9
:10334000198860F30F111980616800FB0511DEE731
:1033500063681833636030234DF6801204A9204659
:10336000FFF740FF8246636815930D2316930823E9
:103370004DF6681215A92046FFF734FF8346102347
:103380004DF6701210A92046FFF72CFF8046002250
:1033900047F6FF712046FEF751FF07460522092137
:1033A0002046FEF74BFF0646022247F6FF712046F5
:1033B000FEF744FF0290042314AA42F6FC71204653
:1033C000FEF752FF039003230193FF2300934FF472
:1033D0003053012204212046FFF742FB05460C230F
:1033E00045F2404204F5A0612046FFF78DFEB4F897
:1033F000082563689A4203D0FF2019B0BDE8F08F1A
:103400004AEA0B0A49EA0A0948EA090847EA0807AA
:103410003E43029B3343039A1A431543284300F06B
:10342000FF00EAE7905003082DE9F04105460E46FB
:10343000102903D0402944D07F2434E000F5A06750
:1034400010234AF638523946FFF75EFE0446402301
:1034500085F8043585F806354FF0040885F80985A8
:1034600010234AF6385239462846FFF7BBFE04437C
:10347000E4B2082345F2504239462846FFF744FE9D
:103480000443E4B285F8008585F80185082385F8B2
:10349000043585F8053545F2504239462846FFF790
:1034A000A1FE0443E4B231462846FFF713FB044370
:1034B000E4B231462846FFF7C1FB2043C0B2BDE865
:1034C000F08100F5A06710234AF638523946FFF71D
:1034D0001BFE0446102385F8043585F806350122C5
:1034E00085F809254AF6385239462846FFF77AFE0C
:1034F0000443E4B2082345F2504239462846FFF718
:1035000003FE0443E4B2082385F8003585F801354D
:10351000042285F8042585F8052545F250423946F0
:103520002846FFF75FFE0443E4B2BCE7F0B583B082
:1035300006460D460023019300F5A06708234AF6CE
:1035400030523946FFF7E0FD0446012D03D0032D2C
:103550001ED07F2407E0012386F80135032386F877
:1035600003350023019308234AF63052394630468A
:10357000FFF738FE0443E4B204234DF664120DEB6A
:1035800003013046FFF72EFE2043C0B203B0F0BD6A
:10359000032386F80135022386F8033501230193BE
:1035A000E1E72DE9F04106460D4617469846FFF73C
:1035B000ABFD0446BDF81C200699BDF82000284448
:1035C0002EF0D5FA43463A4629463046FFF70AFE22
:1035D0002043C0B2BDE8F0812DE9F04788B0054630
:1035E0004FF00113069301260596554BC360554BCA
:1035F0008360002780F8AC7A3A4647F6FF71FEF701
:103600001DFE0446042209212846FEF717FE044346
:10361000E4B240220F212846FEF710FE0443E4B234
:1036200003220A212846FEF709FE0443E4B20DF105
:103630001F0247F6FF712846FEF7E0FD0443E4B29F
:1036400032460C212846FEF7F9FD0443E4B23A461F
:1036500040F201112846FEF7F1FD0443E4B23A4678
:103660004FF481712846FEF7E9FD0443E4B2324687
:103670004FF485712846FEF7E1FD0443E4B232467B
:1036800044F202012846FEF7D9FD0443E4B23A466B
:1036900044F202012846FEF7D1FD0443E4B20322BE
:1036A0004FF485712846FEF7C9FD0443E4B2324663
:1036B00040F203112846FEF7C1FD0443E4B23A4646
:1036C0000C212846FEF7BAFD0443E4B243220F2141
:1036D0002846FEF7B3FD0443E4B231462846FEF720
:1036E0001BFE0443E4B240220F212846FEF7A6FD4C
:1036F0000443E4B232460A212846FEF79FFD044304
:10370000E4B264212846FEF707FE0443E4B23A46D9
:1037100047F6FF712846FEF791FD0443E4B2019697
:10372000FF23009306233A4631462846FFF798F9CF
:10373000044314F0FF0407D0204608B0BDE8F0872A
:10374000DC5A0308E45D030832460E212846FEF7E2
:1037500075FD0446022247F6FF712846FEF76EFD0E
:103760000443E4B20D2203212846FEF767FD04431B
:10377000E4B2324647F6FF712846FEF75FFD044388
:10378000E4B210260196009621233A4601212846EC
:10379000FFF766F90443E4B23A4647F6FF7128465C
:1037A000FEF74CFD0443E4B20DF11F073A4647F61D
:1037B000FF712846FEF722FD0443E4B201220C21EA
:1037C0002846FEF73BFD0443E4B2002247F6FF71B2
:1037D0002846FEF733FD0443E4B2002240F2011113
:1037E0002846FEF72BFD0443E4B200224FF481711A
:1037F0002846FEF723FD0443E4B201224FF485710D
:103800002846FEF71BFD0443E4B2012244F2020104
:103810002846FEF713FD0443E4B2002244F20201FD
:103820002846FEF70BFD0443E4B203224FF48571F2
:103830002846FEF703FD0443E4B2012240F20311DF
:103840002846FEF7FBFC0443E4B2002244F20F01D9
:103850002846FEF7F3FC0443E4B2432240F21A2167
:103860002846FEF7EBFC0443E4B2032240F21A219F
:103870002846FEF7E3FC0443E4B2012240F21A2199
:103880002846FEF7DBFC0443E4B2002240F21A2192
:103890002846FEF7D3FC0443E4B2002240F219218B
:1038A0002846FEF7CBFC0443E4B2002240F21B2181
:1038B0002846FEF7C3FC0443E4B2002247F6FF713A
:1038C0002846FEF7BBFC0443E4B23A4647F6FF71D4
:1038D0002846FEF793FC0443E4B200220C2128465C
:1038E000FEF7ACFC0443E4B2012247F6FF71284620
:1038F000FEF7A4FC0443E4B2072220212846FEF789
:103900009DFC0443E4B2062220212846FEF796FCE3
:103910000443E4B2092247F6FF712846FEF78EFC05
:103920000443E4B2B84F4FF400433A46002128461E
:10393000FEF79AFC0443E4B20A2247F6FF712846D8
:10394000FEF77CFC0443E4B24FF40043FA18002174
:103950002846FEF789FC0443E4B20B2247F6FF71C8
:103960002846FEF76BFC0443E4B24FF4A04307F58E
:10397000803200212846FEF777FC0443E4B201229E
:1039800047F6FF712846FEF759FC0443E4B20222D1
:1039900047F6FF712846FEF751FC0443E4B20D22BE
:1039A00003212846FEF74AFC0443E4B2012247F60D
:1039B000FF712846FEF742FC0443E4B201960096EC
:1039C0002123002201212846FFF74AF8044314F07E
:1039D000FF047FF4B1AE002247F6FF712846FEF7E0
:1039E0002DFC07460DF11F06324647F6FF712846AB
:1039F000FEF704FC0743FFB201220C212846FEF724
:103A00001DFC0743FFB2002247F6FF712846FEF770
:103A100015FC0743FFB200224FF48A712846FEF7D7
:103A20000DFC0743FFB2002240F215112846FEF7B5
:103A300005FC0743FFB242224FF48B712846FEF784
:103A4000FDFB0743FFB2002240F217112846FEF7A4
:103A5000F5FB0743FFB200220B212846FEF7EEFBE1
:103A60000743FFB2324647F6FF712846FEF7C6FB12
:103A70000743FFB200220C212846FEF7DFFB074375
:103A8000FFB201220B212846FEF7D8FB0743FFB205
:103A90004FF4FA760DF112094FF006084FF0010AC3
:103AA0004A4641462846FEF7A9FB2043C4B29DF989
:103AB0001230002B0DDB51462846FEF72DFC9DF8F9
:103AC000123013F0010F0FD1013EB6B2002EE7D134
:103AD0000AE00DF1130207212846FEF78FFB9DF83F
:103AE000133023430343DCB23C437FF425AE022270
:103AF00047F6FF712846FEF7A1FB04462823434AF8
:103B000042F6D8712846FEF7AFFB0443E4B2022325
:103B10000193FF2700974FF43053002204212846D9
:103B2000FEF79EFF0443E4B205F5A0664FF4F6737A
:103B3000324642F604412846FEF7AAFB0443E4B2AB
:103B40004FF4F472314605F110002EF010F81021F8
:103B50002846FEF7BFFF0443E4B24FF442722C49FB
:103B600005F5FC702EF003F810212846FFF766F8E3
:103B70000443E4B24FF47373AA6842F63441284612
:103B8000FEF772FB0443E4B20323019300974FF462
:103B90003053012204212846FEF762FF0443E4B2B9
:103BA00004234DF6803206A92846FFF71BFB044389
:103BB000E4B204234DF6641205A92846FFF712FB70
:103BC0000443E4B201278DF81F7026230293019766
:103BD0000DF11F08CDF8008028234EF2081231465F
:103BE0002846FFF7DEFC0443E4B225230293019745
:103BF000CDF8008028234EF2081231462846FFF700
:103C0000D0FC0443E4B297E5B0610308B45A03085A
:103C1000F450030800B587B08DF817100123029304
:103C200001930DF117030093042345F2584200F568
:103C3000A061FFF7B6FC07B000BD0000DFF834D08C
:103C4000FEF704FF0C480D490D4A002302E0D4584A
:103C5000C4500433C4188C42F9D30A4A0A4C0023D6
:103C600001E013600432A242FBD32DF051FFFDF7B7
:103C700099FD70470000022000000020C4020020CF
:103C800064490508C402002030940120FEE70B15AA
:103C900000F181802DE9F04345886C1E9C427CDD5B
:103CA0005FEA225E7CD40488013C74457ADD446876
:103CB000C1F3130105FB0EFE0EEB0309C2F3130261
:103CC000AE449E44C1F57F2C0CF6FF7C4FEAEC75A8
:103CD000C2F57F2000F6FF70C61734F919304FEA9D
:103CE000E37803FB05F70CFB0877A3FB0C3847448C
:103CF0001B0943EA07734FEAE37803FB06F700FB6F
:103D00000877A3FB00831F4404EB4909B9F902308B
:103D10004FEAE37903FB06F600FB0966A3FB0030DC
:103D200006441B0943EA0673D817A3FB013601FBBF
:103D3000006613EB080047EB060634F91E30DF1768
:103D400003FB05F50CFB0755A3FB0C3C65441B0965
:103D500043EA0573DF17A3FB023502FB075513EB9C
:103D6000000C45EB060504EB4E04B4F90230DC17F9
:103D7000A3FB013001FB04011B0943EA0173D917BE
:103D8000A3FB023002FB010013EB0C0340EB050028
:103D900040F30F1002E0002070470020BDE8F083E0
:103DA0000020FBE70020F9E710B504460E4B1A7817
:103DB0004FF47A73B3FBF2F30C4A1068B0FBF3F0E4
:103DC00000F0C0F868B90F2C01D901200AE00022E8
:103DD00021464FF0FF3000F05FF8054B1C600020DB
:103DE00000E0012010BD00BF58000020540000205A
:103DF0005C00002008B50B4B1A6842F400721A6090
:103E00001A6842F480621A601A6842F480721A607A
:103E1000032000F02FF80020FFF7C6FFFEF7DCFBC1
:103E2000002008BD003C0240034A1168034B1B7888
:103E30000B441360704700BF48CE0020580000209C
:103E4000014B1868704700BF48CE002038B50446C3
:103E5000FFF7F6FF0546B4F1FF3F02D0044B1B7895
:103E60001C44FFF7EDFF401BA042FAD338BD00BF52
:103E7000580000200749CA68030203F4E06322F4F3
:103E8000E0621204120C134343F0BF6343F40033A7
:103E9000CB60704700ED00E000B5184BDB68C3F362
:103EA0000223C3F1070CBCF1040F28BF4FF0040C30
:103EB00003F1040EBEF1060F8CBF033B00234FF04D
:103EC000FF3E0EFA0CFC21EA0C0199400EFA03FEAB
:103ED00022EA0E021143002808DB0901C9B200F1F1
:103EE000604000F5614080F8001300BD00F00F0055
:103EF0000901C9B2024B1954F7E700BF00ED00E019
:103F000014ED00E0002807DB410900F01F00012349
:103F10008340024A42F82130704700BF00E100E0D0
:103F200000280CDB430900F01F00012282402033EF
:103F3000034941F82320BFF34F8FBFF36F8F7047C2
:103F400000E100E00138B0F1807F0BD24FF0E023B8
:103F50005861054AF02182F8231000209861072259
:103F60001A6170470120704700ED00E010B402466E
:103F70000368D8B210380A49A1FB00410909094C6D
:103F8000615CD1655F2887BF6FF30903181D23F4B7
:103F90007F7020F0030090655DF8044B704700BF10
:103FA000ABAAAAAAB0B1040838B50446FFF748FF87
:103FB000002C00F08A800546022384F83530002367
:103FC00084F834302268136823F0010313602368F7
:103FD0001A6812F0010F0AD0FFF732FF431B052BBE
:103FE000F5D920236365032084F8350038BD1A68AD
:103FF000374911406268A0680243E06802432069C3
:10400000024360690243A0690243E0690243206AF7
:1040100002430A43616A042924D01A6021684B696B
:1040200023F00703626A1343042A0DD1A26A1343E3
:10403000E06A48B1A56905BB012A18D032F0020236
:1040400002D1C0F3006018BB4B612046FFF78EFF22
:10405000E26D3F239340836000206065012384F874
:104060003530C3E7E16A206B01430A43D5E7B0F17D
:10407000C07F14BF00200120E5E7B5F5005F0DD03B
:10408000022A05D9032ADFD1C0F300600028DBD063
:1040900040236365012084F83500A7E7032AD3D8BD
:1040A00001A555F822F000BF91400008B940000872
:1040B00091400008BF400008C0F30060E6E7B0F19F
:1040C000C07F14BF00200120E0E701208EE700BF81
:1040D0003F8010F070B4846D90F834C0BCF1010FD3
:1040E0003DD04FF0010C80F834C090F835C0BCF1E1
:1040F000010F05D0002380F83430022070BC7047D7
:10410000022580F83550002545650668356825F498
:104110008025356005686B608368402B1AD0036882
:1041200099600368DA60C26D3F239340A360026820
:10413000136843F016031360036C23B1026813681D
:1041400043F0080313600268136843F0010313602F
:104150000020D3E703689A600368D960E3E7022090
:10416000CCE790F83530022B03D080234365012043
:104170007047052380F835300268136823F0010387
:104180001360002070470000F0B583B004460023A0
:104190000193724B1E68876D3D68C26D0823934082
:1041A0002B4210D003681A6812F0040F0BD01A6863
:1041B00022F004021A60C26D08239340BB60436D75
:1041C00043F001034365E26D012393402B4209D084
:1041D0002268526912F0800F04D0BB60636D43F017
:1041E00002036365E26D042393402B4209D02268E9
:1041F000126812F0020F04D0BB60636D43F0040339
:104200006365E26D102393402B4224D0226812682C
:1042100012F0080F1FD0BB6023681A6812F4802FB9
:104220000DD01B6813F4002F04D1236C9BB12046E2
:10423000984710E0A36C73B1204698470BE01A68CA
:1042400012F4807F03D11A6822F008021A60236CEE
:104250000BB120469847E26D202393402B4254D067
:104260002268126812F0100F4FD0BB6094F83530FE
:10427000052B0ED023681A6812F4802F33D01B68E8
:1042800013F4002F2AD1636C002B3ED020469847B0
:104290003BE02268136823F0160313602268536919
:1042A00023F080035361236CA3B12268136823F0C9
:1042B00008031360E26D3F239340BB60012384F841
:1042C0003530002384F83430236D002B43D0204652
:1042D000984740E0A36C002BE7D1EBE7E36BA3B179
:1042E0002046984711E01A6812F4807F09D11A68B5
:1042F00022F010021A60012384F83530002384F87C
:104300003430E36B0BB120469847636D1BB3636D8C
:1043100013F0010F1BD0124BA3FB0636B60A052380
:1043200084F835302268136823F001031360019B81
:1043300001330193B34204D823681B6813F0010FC3
:10434000F5D1012384F83530002384F83430E36C50
:104350000BB12046984703B0F0BD00BF54000020C9
:10436000B5814E1B2DE9F04F83B0002213464FF06C
:10437000010E03254FF00F086B4C4BE0876805FAE0
:1043800002FA27EA0A0ACF68974047EA0A078760D5
:10439000476827EA0C0C4F68C7F300179F4047EAAD
:1043A0000C07476044E04FF0000C0CFA0BFC4CEAA1
:1043B0000A0CC7F808C0A7686FEA090C4E6816F423
:1043C000801F0CBF0CEA070749EA0707A760E768E8
:1043D0004E6816F4001F0CBF0CEA070749EA0707EE
:1043E000E76067684E6816F4003F0CBF0CEA0707E9
:1043F00049EA0707676027684E6816F4803F0CBFDC
:104400000CEA070749EA0707276001330232102B3D
:1044100000F086800EFA03FC0F680CEA07093CEAFC
:104420000707F2D14F6807F00307013F012FA5D915
:104430004F6807F00307032F23D0C76805FA02FC73
:1044400027EA0C0C8F68974047EA0C07C7604F6853
:1044500007F00307022F14D14FEAD30C00EB8C0CAA
:10446000DCF8207003F0070B4FEA8B0B08FA0BFA0D
:1044700027EA0A0A0F6907FA0BF747EA0A07CCF896
:104480002070076805FA02FC27EA0C0C4F6807F059
:104490000307974047EA0C0707604F6817F4403F4F
:1044A000B3D000270197214E776C47F4804777649B
:1044B000776C07F480470197019F23F0030707F10A
:1044C000804707F59C37D7F808A003F0030B4FEAA5
:1044D0008B0B08FA0BFC2AEA0C0AA6F56056B042D0
:1044E0003FF461AF06F58066B04210D006F58066F5
:1044F000B0420FD0DFF838C060450ED00CF5806CAC
:10450000604514BF4FF0070C4FF0040C4DE74FF01F
:10451000010C4AE74FF0020C47E74FF0030C44E769
:1045200003B0BDE8F08F00BF003C014000380240FE
:10453000000C02400AB18161704709048161704733
:10454000436901EA030221EA030141EA0241816170
:104550007047000008B5054B5B69034200D108BDF8
:10456000024B5861FDF770FCF9E700BF003C0140C9
:1045700003685A6912F4806F01D1002070476FF40C
:1045800080625A6100230363202280F83D2080F876
:104590003E30026C42F00402026480F83C3001209C
:1045A00070472DE9F04105460C4616461F46C1F3FB
:1045B0000748B8F1010F2B680CBF5B699B6924EABF
:1045C000030C1FFA8CFCBCFA8CFC4FEA5C1C6645A1
:1045D00027D1B7F1FF3FECD0FFF732FC069BC01AA2
:1045E000B84201D8002FE4D1B8F1010F2B680CBFFD
:1045F0005B699B6924EA03039BB2B3FA83F35B090B
:104600009E42D6D100232B63202285F83D2085F8D9
:104610003E302A6C42F020022A6485F83C300120AA
:1046200000E00020BDE8F0812DE9F84305460E4684
:1046300017469946C1F30748B8F1010F2B680CBF24
:104640005C699C6926EA0404A4B2003C18BF0124FA
:10465000002C43D02B685A6912F4806F27D1B7F130
:10466000FF3FE9D0FFF7ECFBA0EB0900B84201D80F
:10467000002FE1D1B8F1010F2B680CBF5B699B697A
:1046800026EA03039BB2003B18BF0123002BD3D0C3
:1046900000232B63202285F83D2085F83E302A6CCC
:1046A00042F020022A6485F83C30012017E01A68A5
:1046B00042F400721A602B686FF480625A61002322
:1046C0002B63202285F83D2085F83E302A6C42F08D
:1046D00004022A6485F83C30012000E00020BDE897
:1046E000F88370B504460D46164623685B6913F0DF
:1046F000800F21D12046FFF73BFFF8B9B5F1FF3F0E
:10470000F3D0FFF79DFB801BA84201D8002DECD110
:1047100023685B6913F0800FE7D100232363202215
:1047200084F83D2084F83E30226C42F0200222645E
:1047300084F83C30012000E0002070BD0120FCE73F
:104740002DE9F04385B004460D4691461F46DDF83D
:1047500030800D9E0368196841F4807119600096DD
:10476000434600224FF00111FFF71BFF70B9236889
:1047700005F0FE051D613346424628492046FFF7F5
:1047800053FF68B1012005B0BDE8F08323681B68C2
:1047900013F4807F40D04FF4007323640320F2E7CA
:1047A0000023039323685A6903929B690393039B35
:1047B000324641462046FFF794FF30B9012F10D111
:1047C00023685FFA89F61E61DDE7236C042B01D0B4
:1047D0000120D8E72268136843F4007313600120B6
:1047E000D1E723684FEA19221A6132464146204632
:1047F000FFF777FF20B923685FFA89F61E61C2E7E9
:10480000236C042B01D00120BDE72268136843F418
:10481000007313600120B6E70320B4E70200010033
:1048200070B504460D46164623685B6913F0040F05
:1048300021D12046FFF79CFEF8B9B5F1FF3FF3D038
:10484000FFF7FEFA801BA84201D8002DECD12368A7
:104850005B6913F0040FE7D100232363202284F85F
:104860003D2084F83E30226C42F02002226484F81D
:104870003C30012000E0002070BD0120FCE770B555
:1048800004460D46164603685A6912F0400F1BD0C5
:1048900000200EE06FF010025A61002323632022F3
:1048A00084F83D2084F83E30226C226484F83C3049
:1048B000012070BD23685B6913F0400F10D023689E
:1048C000586910F0400F1AD1586910F0100FE1D15B
:1048D000FFF7B6FA801BA842ECD8002DEFD1E9E72C
:1048E00000232363202284F83D2084F83E30226C8C
:1048F00042F02002226484F83C300120D9E70020F5
:10490000D7E70000002800F0B08070B5044690F8AA
:104910003D30002B73D0242384F83D302268136887
:1049200023F0010313602268136843F4004313600B
:104930002268136823F40043136000F05DFF62688F
:104940004C4B9A4260D84C4B984240F290804B4975
:10495000A1FB00318B0C25686A6822F03F0242EA15
:1049600091426A6021680A6A22F03F02414D6668FE
:10497000AE424ED8013313430B622168CA6922F458
:104980004F4222F0FF0265683A4B9D424BD8431ECE
:104990006D00B3FBF5F3013340F6FC7003425ED0CB
:1049A000C3F30B031A43CA6121680A68E369206AEA
:1049B000034322F0C00213430B6021688A68236915
:1049C000E068034322F4034222F0FF0213438B60AA
:1049D0002168CA686369A069034322F0FF02134398
:1049E000CB602268136843F0010313600020206449
:1049F000202384F83D30206384F83E0070BD80F8A9
:104A00003C30FDF717FE86E71D4B98429FD80120EA
:104A1000F4E74FF4967505FB03F31A4DA5FB03531A
:104A20009B090133A7E7A3685BB9431E05EB450566
:104A3000B3FBF5F30133C3F30B0393B143F400432A
:104A4000B0E7431E05EB850505EB8505B3FBF5F3E4
:104A50000133C3F30B0333B143F44043A2E7042310
:104A6000A0E701239EE701239CE701207047012076
:104A7000C4E700BFA08601007F841E0083DE1B43C5
:104A8000FF083D00D34D62102DE9F04385B0044688
:104A90000F46904699460C9EFFF7D2F994F83D10C8
:104AA000202904D00227384605B0BDE8F08305462A
:104AB00000901923012272492046FFF772FD002859
:104AC00040F0D78094F83C30012B00F0D4800123D3
:104AD00084F83C3023681A6812F0010F03D11A6879
:104AE00042F001021A602268136823F40063136025
:104AF000212384F83D30102384F83E3000232364C2
:104B0000C4F82480A4F82A90638D23855D4BE3626A
:104B1000E36A082B0DD0012B0BD013F5803F08D092
:104B2000236B122B0AD12268136843F4807313603D
:104B300004E02268136843F48073136000953346E1
:104B400000224FF001112046FFF72BFDD0B9236959
:104B5000B3F5804F20D1236807F0FE071F612B4675
:104B6000324649492046FFF75FFD0746002840F0DE
:104B700084800023039323685A6903929B690393FB
:104B8000039B2FE023681B6813F4807F02D04FF44F
:104B900000732364012786E72268FB1103F00603F4
:104BA00043F0F00313612B46324638492046FFF7A5
:104BB0003BFD0028EED12368FFB21F61CFE7236CD5
:104BC000042B01D001276EE72268136843F40073B9
:104BD0001360012767E72A4631462046FFF720FE8B
:104BE00000282CD1238D002B35D02A463146204673
:104BF000FFF777FD0028E2D12368626A12781A6114
:104C0000626A531C6362618D013989B26185218DAD
:104C1000013989B221852368586910F0040FDAD070
:104C20000029D8D052781A61636A01336362638DB8
:104C3000013B9BB26385238D013B2385CBE7236C2E
:104C4000042B01D001272EE72268136843F4007378
:104C50001360012727E72268136843F40073136089
:104C6000202384F83D30002384F83E3084F83C3023
:104C700019E7022717E7022715E7012713E700BF07
:104C8000020010000000FFFF020001000800010008
:104C90002DE9F04389B004460F4690469946109E90
:104CA000FFF7CEF894F83D10202905D04FF0020907
:104CB000484609B0BDE8F08305460090192301225B
:104CC00087492046FFF76DFC002840F0C78194F823
:104CD0003C30012B00F0C581012384F83C3023686F
:104CE0001A6812F0010F03D11A6842F001021A602B
:104CF0002268136823F400631360222384F83D3094
:104D0000102384F83E3000232364C4F82480A4F8E0
:104D10002A90638D2385734BE362E26A21680B68F6
:104D200043F480630B60082A0DD0012A0BD012F5E2
:104D3000803F08D0236B112B0AD12268136843F4FB
:104D40008073136004E02268136843F48073136077
:104D50000095334600224FF001112046FFF721FC59
:104D600040BB2369B3F5804F2DD1236847F001077D
:104D7000FFB21F612B4632465B492046FFF754FCC9
:104D80008146002840F07081238D002B5AD1039377
:104D900023685A6903929A690392039A1A6842F443
:104DA00000721A60218D002900F04F81DFF84081E8
:104DB0000027CCE023681B6813F4807F12D04FF4E7
:104DC000007323640EE04FEAE71808F00608236832
:104DD00048F0F0021A612B46324644492046FFF75C
:104DE00023FC10B14FF0010962E72368FFB21F6195
:104DF0002B4632463C492046FFF716FC0028F1D1ED
:104E000000220792236859690791996907910799C8
:104E1000196841F480711960009533464FF0011113
:104E20002046FFF7BEFB20B9226848F0F10313616A
:104E3000A0E723681B6813F4807FD3D04FF400737E
:104E40002364CFE7012B0FD0022B1FD022681368F9
:104E500043F4806313600023069323685A69069223
:104E60009B690693069B9DE72268136823F4806381
:104E700013600023049323685A6904929A69049288
:104E8000049A1A6842F400721A608BE72268136869
:104E900023F4806313602268136843F40063136093
:104EA0000023059323685A6905929B690593059B26
:104EB00078E72A4631462046FFF7E1FC002840F01B
:104EC000D68023681A69636A1A70636A0133636261
:104ED000238D013B2385638D013B9BB2638533E0CA
:104EE000020010000000FFFF0200010008000100A6
:104EF00004000100009533463A4641462046FFF73C
:104F000050FB002840F0B6802268136843F4007319
:104F1000136023681A69636A1A70626A531C6362B9
:104F2000238D013B2385638D013B9BB26385236801
:104F30001B695370636A01336362238D013B2385D0
:104F4000638D013B9BB26385218D00297DD00329B0
:104F50004AD80129ADD00229CCD0009533463A4633
:104F600041462046FFF71DFB002840F0868022685E
:104F7000136823F48063136023681A69636A1A70E4
:104F8000636A01336362238D013B2385638D013B9B
:104F90009BB26385009533463A4641462046FFF76B
:104FA00000FB00286CD12268136843F4007313607F
:104FB00023681A69636A1A70626A531C6362238DDC
:104FC000013B2385638D013B9BB2638523681B698D
:104FD0005370636A01336362238D013B2385638DC4
:104FE000013B9BB26385AFE72A4631462046FFF777
:104FF00046FC002847D123681A69636A1A70636AFD
:1050000001336362238D013B9BB22385628D013A9C
:1050100092B262852268516911F0040F94D0032B7B
:105020000ED023681A69636A1A70636A0133636277
:10503000238D013B2385638D013B9BB2638583E711
:10504000136823F480631360EBE7202384F83D307A
:10505000002384F83E3084F83C3029E64FF0020902
:1050600026E64FF0020923E64FF0010920E64FF053
:1050700001091DE64FF001091AE64FF0010917E694
:105080004FF0010914E64FF0010911E62DE9F04354
:1050900083B004460F46904699460C9EFEF7D0FE1C
:1050A00094F83D20202A03D0022003B0BDE8F0830D
:1050B00005460090192301224C492046FFF771FA5A
:1050C000002840F08D8094F83C30012B00F08A805D
:1050D000012384F83C3023681A6812F0010F03D1D1
:1050E0001A6842F001021A602268136823F4006310
:1050F0001360212384F83D30402384F83E300023A0
:1051000023640A9B6362BDF82C306385638D23851D
:10511000374BE362019500964B464246394620469E
:10512000FFF70EFB00285FD1238DD3B92A46314605
:105130002046FFF775FB002844D0236C042B3AD09F
:105140000120B2E7236C042B01D00120ADE72268D7
:10515000136843F4007313600120A6E7238D002B2E
:10516000E4D02A4631462046FFF7BBFA0028E9D1B1
:105170002368626A12781A61606A431C6362238D35
:10518000013B9BB22385618D013989B2618522681B
:10519000516911F0040FE1D0002BC7D0437813619F
:1051A000636A01336362238D013B2385638D013B79
:1051B0009BB26385D2E72268136843F400731360DF
:1051C000012072E72268136843F400731360202300
:1051D00084F83D30002384F83E3084F83C3064E7A6
:1051E000022062E7022060E701205EE70200100073
:1051F0000000FFFF002800F0E1812DE9F04182B0BE
:105200000446036813F0010F3BD09F4B9B6803F0EB
:105210000C03042B2CD09C4B9B6803F00C03082B35
:1052200021D06368B3F5803F4FD0B3F5A02F52D0A3
:10523000954B1A6822F480321A601A6822F4802290
:105240001A606368002B50D0FEF7FAFD05468E4EBB
:10525000336813F4003F14D1FEF7F2FD401B6428BD
:10526000F6D90320B1E1884B5B6813F4800FD8D0E6
:10527000854B1B6813F4003F03D06368002B00F0DC
:105280009F81236813F0020F54D07F4B9B6813F06B
:105290000C0F3ED07C4B9B6803F00C03082B33D0E3
:1052A000E368002B68D0794B01221A60FEF7C8FD35
:1052B0000546754E336813F0020F54D1FEF7C0FD5A
:1052C000401B0228F6D903207FE16F4A136843F49C
:1052D00080331360B5E76C4B1A6842F480221A6081
:1052E0001A6842F480321A60ABE7FEF7A9FD054662
:1052F000654E336813F4003FC3D0FEF7A1FD401B99
:105300006428F6D9032060E15F4B5B6813F4800FDB
:10531000C6D15D4B1B6813F0020F03D0E368012B6D
:1053200040F05081584A1368216923F0F80343EA9A
:10533000C1031360236813F0080F42D063696BB395
:10534000524B0122C3F8802EFEF77AFD05464E4EE1
:10535000736F13F0020F34D1FEF772FD401B022869
:10536000F6D9032031E1484A1368216923F0F80394
:1053700043EAC1031360DDE7444B00221A60FEF7E5
:105380005FFD0546404E336813F0020FD2D0FEF7A2
:1053900057FD401B0228F6D9032016E13B4B0022A3
:1053A000C3F8802EFEF74CFD0546374E736F13F0A1
:1053B000020F06D0FEF744FD401B0228F6D9032059
:1053C00003E1236813F0040F76D02F4B1B6C13F00E
:1053D000805F33D1002301932B4B1A6C42F0805233
:1053E0001A641B6C03F080530193019B0125284B29
:1053F0001B6813F4807F23D0A368012B34D0052BC6
:1054000038D0214B1A6F22F001021A671A6F22F06E
:1054100004021A67A368002B3CD0FEF711FD064674
:10542000194F41F288383B6F13F0020F43D1FEF75A
:1054300007FD801B4045F6D90320C6E00025D6E7CE
:10544000134A136843F480731360FEF7F9FC0646B1
:105450000F4F3B6813F4807FCED1FEF7F1FC801B29
:105460000228F6D90320B0E0074A136F43F0010386
:105470001367CFE7044B1A6F42F004021A671A6FE2
:1054800042F001021A67C5E70038024000004742B7
:1054900000700040FEF7D4FC0646524F41F28838B7
:1054A0003B6F13F0020F06D0FEF7CAFC801B40458D
:1054B000F6D9032089E0EDB9A369002B00F08480C0
:1054C000484A926802F00C02082A51D0022B17D0E9
:1054D000454B00221A66FEF7B3FC0446414D2B688B
:1054E00013F0007F42D0FEF7ABFC001B0228F6D978
:1054F00003206AE03B4A136C23F080531364DBE71C
:10550000394B00221A66FEF79BFC0546354E336880
:1055100013F0007F06D0FEF793FC401B0228F6D95B
:10552000032052E0E369226A1343626A43EA82136A
:10553000E26A43EA0263A26A5208013A43EA02437A
:10554000284A5360284B01221A66FEF779FC04466C
:10555000244D2B6813F0007F06D1FEF771FC001B71
:105560000228F6D9032030E000202EE000202CE0B5
:10557000012B2DD01B4B5B6803F48001E269914243
:1055800028D103F03F02216A8A4225D1616A47F699
:10559000C0721A40B2EB811F20D103F44031A26ADD
:1055A0005208013AB1EB024F1AD1E26A03F070637C
:1055B000B3EB026F14BF0120002006E0012070470A
:1055C000012002E0012000E0002002B0BDE8F081EF
:1055D0000120FAE70120F8E70120F6E70120F4E7CF
:1055E0000120F2E7003802400000474208B5264B90
:1055F0009B6803F00C03042B41D0082B41D1224BB4
:105600005A6802F03F025B6813F4800F12D01E4B01
:105610005968C1F388111D480023A1FB0001FBF765
:105620004BFB194B5B68C3F3014301335B00B0FBD9
:10563000F3F008BD144B5868C0F388104FEA401CC3
:10564000BCEB000C6EEB0E0E4FEA8E1343EA9C632C
:105650004FEA8C11B1EB0C0163EB0E03DB0043EA64
:105660005173C90011EB000C43F1000399020023B0
:105670004FEA8C2041EA9C51FBF71EFBD1E703481F
:10568000D7E70348D5E700BF0038024040787D01E6
:105690000024F400002800F09D802DE9F0410D4623
:1056A0000446504B1B6803F007038B4208D2CBB271
:1056B0004C4A1370136803F007038B4240F08C8050
:1056C000236813F0020F17D013F0040F04D0464ADA
:1056D000936843F4E0539360236813F0080F04D0F9
:1056E000414A936843F4604393603F4A936823F0D0
:1056F000F003A1680B439360236813F0010F32D0CD
:105700006268012A21D0931E012B25D9364B1B68D4
:1057100013F0020F62D034498B6823F00303134364
:105720008B60FEF78DFB06462F4F41F28838BB6831
:1057300003F00C036268B3EB820F14D0FEF780FB1A
:10574000801B4045F3D9032042E0274B1B6813F42C
:10575000003FE0D101203BE0234B1B6813F0007FAA
:10576000D9D1012034E01F4B1B6803F00703AB4283
:1057700007D9EAB21B4B1A701B6803F00703AB4250
:105780002ED1236813F0040F06D0174A936823F430
:10579000E053E1680B439360236813F0080F07D0D0
:1057A000114A9368216923F4604343EAC10393607B
:1057B000FFF71CFF0C4B9B68C3F303130B4AD35C2E
:1057C000D8400B4B18600B4B1868FEF7EDFA002021
:1057D000BDE8F081012070470120F9E70120F7E7DB
:1057E0000120F5E7003C024000380240A45A0308BB
:1057F000540000205C000020044B9B68C3F382230C
:10580000034AD35C034A1068D8407047003802400E
:105810009C5A0308540000202DE9F04383B08046D1
:105820000C4615461F46FEF70BFB0A9E3E44361AF1
:10583000FEF706FB8146324B1A68C2F3CB3206FBF9
:1058400002F20192D8F80020936834EA03030CBFF7
:1058500001230023AB4251D0B7F1FF3F0AD0FEF73E
:10586000EFFAA0EB0900B04210D2019B002B41D10E
:105870001E46E7E7936834EA03030CBF01230023C5
:10588000AB42F7D1002003B0BDE8F083D8F8002088
:10589000536823F0E0035360D8F80430B3F5827FF7
:1058A0000CD0D8F82830B3F5005F16D0012388F863
:1058B0005130002388F850300320E4E7D8F808304E
:1058C000B3F5004F02D0B3F5806FEAD1D8F80020CD
:1058D000136823F040031360E3E7D8F8002013684F
:1058E00023F400531360D8F80020136843F40053E6
:1058F0001360DBE7019B013B0193A3E70020C2E7B4
:105900005400002070B584B004460D46164600923F
:105910000B4601220221FFF77FFFD0B9174B1B680E
:10592000174AA2FB03235B0D4FF47A7202FB03F3C9
:1059300003936368B3F5827F11D0039B3BB1039B54
:10594000013B039323689B6813F0800FF5D104B0EB
:1059500070BD636D43F0200363650320F7E7009695
:105960002B46002280212046FFF756FF0028EED06C
:10597000636D43F0200363650320E8E754000020D3
:10598000819F5E1610B582B004460B464168B1F5A2
:10599000827F09D00092002201212046FFF73CFFC0
:1059A000002831D102B010BD8168B1F5004F02D09E
:1059B000B1F5806F0CD12068016821F040010160D1
:1059C0006168B1F5827FE5D1A168B1F5806F0DD036
:1059D0000092002280212046FFF71EFF0028E1D020
:1059E000636D43F0200363650320DBE70092002230
:1059F00001212046FFF710FF0028D3D0636D43F04C
:105A0000200363650320CDE7636D43F020036365E6
:105A10000320C7E700285AD010B50446436A33B9BB
:105A20004368B3F5827F05D00023C36102E0002301
:105A3000036143610023A36294F85130002B40D0EE
:105A4000022384F851302268136823F04003136066
:105A50002268636803F48273A16801F404410B4374
:105A6000E16801F400610B43216901F002010B437D
:105A7000616901F001010B43A16901F400710B435D
:105A8000E16901F038010B43216A01F080010B4309
:105A9000A16A01F400510B4313602168638B03F08A
:105AA0000403626A02F0100213434B602268D36958
:105AB00023F40063D36100206065012384F8513032
:105AC00010BD84F850302046FCF702FEB8E70120F4
:105AD00070472DE9F04182B00446884617461D46BE
